20250411-01:46:46.909534000 : 8=FIXT.1.1|9=215|35=A|34=1|49=24ab46f784d1b20db435b852086e3250|52=20250411-01:46:46.899|56=Coinbase|95=44|96=tke5XG9gb0sfLrZifMnV3f6kffaKNsZYd144+qprotM=|98=0|108=30|141=Y|553=24ab46f784d1b20db435b852086e3250|554=akmwnltyfgb|1137=9|10=175|
20250411-01:46:47.162312000 : 8=FIXT.1.1|9=125|35=A|49=Coinbase|56=24ab46f784d1b20db435b852086e3250|34=1|50=TEST|52=20250411-01:46:47.052357|369=1|98=0|108=30|141=Y|1137=9|10=196|
20250411-01:46:48.471212000 : 8=FIXT.1.1|9=178|35=V|34=2|49=24ab46f784d1b20db435b852086e3250|52=20250411-01:46:48.469|56=Coinbase|1128=9|146=1|55=BTC-USD|262=87859126-8df1-460e-8f6d-b0b1f3c82bc3|263=1|264=0|267=2|269=0|269=1|10=035|
20250411-01:46:48.834059000 : 8=FIXT.1.1|9=281|35=X|49=Coinbase|56=24ab46f784d1b20db435b852086e3250|34=2|50=TEST|52=20250411-01:46:48.723029|369=2|262=87859126-8df1-460e-8f6d-b0b1f3c82bc3|268=1|279=0|269=0|83=1597565201|55=BTC-USD|270=3.71|271=0.62322946|60=20250411-01:46:48.721524|40=2|37=1f388486-3ccb-4166-bd21-4483ecdfdc82|10=215|
20250411-01:46:48.835125000 : 8=FIXT.1.1|9=324|35=X|49=Coinbase|56=24ab46f784d1b20db435b852086e3250|34=3|50=TEST|52=20250411-01:46:48.723038|369=2|262=87859126-8df1-460e-8f6d-b0b1f3c82bc3|268=1|279=0|269=2|278=c5b88ea9-605d-4595-ac52-f7c3f08523ba|83=1597565202|55=BTC-USD|270=3.55|271=0.62322946|60=20250411-01:46:48.721524|37=1f388486-3ccb-4166-bd21-4483ecdfdc82|5797=1|10=173|
20250411-01:46:48.835354000 : 8=FIXT.1.1|9=287|35=X|49=Coinbase|56=24ab46f784d1b20db435b852086e3250|34=4|50=TEST|52=20250411-01:46:48.723044|369=2|262=87859126-8df1-460e-8f6d-b0b1f3c82bc3|268=1|279=2|269=0|278=1f388486-3ccb-4166-bd21-4483ecdfdc82|83=1597565203|55=BTC-USD|270=3.71|271=0.00000000|60=20250411-01:46:48.721524|58=FILLED|10=124|
20250411-01:46:48.886363000 : 8=FIXT.1.1|9=281|35=X|49=Coinbase|56=24ab46f784d1b20db435b852086e3250|34=5|50=TEST|52=20250411-01:46:48.777569|369=2|262=87859126-8df1-460e-8f6d-b0b1f3c82bc3|268=1|279=0|269=1|83=1597565204|55=BTC-USD|270=3.18|271=0.62322946|60=20250411-01:46:48.776607|40=2|37=3fc9428f-67f8-465f-abd1-8dc7f2c0eef2|10=154|
20250411-01:46:48.886705000 : 8=FIXT.1.1|9=324|35=X|49=Coinbase|56=24ab46f784d1b20db435b852086e3250|34=6|50=TEST|52=20250411-01:46:48.777579|369=2|262=87859126-8df1-460e-8f6d-b0b1f3c82bc3|268=1|279=0|269=2|278=4d60a78e-b39b-420e-b830-bc0f3f4fdde2|83=1597565205|55=BTC-USD|270=3.53|271=0.62322946|60=20250411-01:46:48.776607|37=3fc9428f-67f8-465f-abd1-8dc7f2c0eef2|5797=2|10=238|
20250411-01:46:48.886892000 : 8=FIXT.1.1|9=287|35=X|49=Coinbase|56=24ab46f784d1b20db435b852086e3250|34=7|50=TEST|52=20250411-01:46:48.777583|369=2|262=87859126-8df1-460e-8f6d-b0b1f3c82bc3|268=1|279=2|269=1|278=3fc9428f-67f8-465f-abd1-8dc7f2c0eef2|83=1597565206|55=BTC-USD|270=3.18|271=0.00000000|60=20250411-01:46:48.776607|58=FILLED|10=062|
20250411-01:46:49.033011000 : 8=FIXT.1.1|9=276|35=X|49=Coinbase|56=24ab46f784d1b20db435b852086e3250|34=8|50=TEST|52=20250411-01:46:48.924133|369=2|262=87859126-8df1-460e-8f6d-b0b1f3c82bc3|268=1|279=0|269=0|83=1597565207|55=BTC-USD|29004=2.2088955195|60=20250411-01:46:48.923154|40=1|37=e436cb35-e14e-422f-8765-7a5ae92a4747|10=197|
20250411-01:46:49.033801000 : 8=FIXT.1.1|9=324|35=X|49=Coinbase|56=24ab46f784d1b20db435b852086e3250|34=9|50=TEST|52=20250411-01:46:48.924139|369=2|262=87859126-8df1-460e-8f6d-b0b1f3c82bc3|268=1|279=0|269=2|278=c5b88ea9-605d-4595-ac52-f7c3f08523ba|83=1597565208|55=BTC-USD|270=3.55|271=0.62222409|60=20250411-01:46:48.923154|37=e436cb35-e14e-422f-8765-7a5ae92a4747|5797=1|10=094|
20250411-01:46:49.033991000 : 8=FIXT.1.1|9=264|35=X|49=Coinbase|56=24ab46f784d1b20db435b852086e3250|34=10|50=TEST|52=20250411-01:46:48.924143|369=2|262=87859126-8df1-460e-8f6d-b0b1f3c82bc3|268=1|279=2|269=0|278=e436cb35-e14e-422f-8765-7a5ae92a4747|83=1597565209|55=BTC-USD|60=20250411-01:46:48.923154|58=FILLED|10=254|
20250411-01:46:49.071995000 : 8=FIXT.1.1|9=282|35=X|49=Coinbase|56=24ab46f784d1b20db435b852086e3250|34=11|50=TEST|52=20250411-01:46:48.950452|369=2|262=87859126-8df1-460e-8f6d-b0b1f3c82bc3|268=1|279=0|269=0|83=1597565210|55=BTC-USD|270=3.85|271=0.61971831|60=20250411-01:46:48.949195|40=2|37=60b59028-1eb8-478f-ac29-051c85c3dd2b|10=234|
20250411-01:46:49.074581000 : 8=FIXT.1.1|9=325|35=X|49=Coinbase|56=24ab46f784d1b20db435b852086e3250|34=12|50=TEST|52=20250411-01:46:48.950459|369=2|262=87859126-8df1-460e-8f6d-b0b1f3c82bc3|268=1|279=0|269=2|278=c5b88ea9-605d-4595-ac52-f7c3f08523ba|83=1597565211|55=BTC-USD|270=3.55|271=0.61971831|60=20250411-01:46:48.949195|37=60b59028-1eb8-478f-ac29-051c85c3dd2b|5797=1|10=194|
20250411-01:46:49.075516000 : 8=FIXT.1.1|9=288|35=X|49=Coinbase|56=24ab46f784d1b20db435b852086e3250|34=13|50=TEST|52=20250411-01:46:48.950463|369=2|262=87859126-8df1-460e-8f6d-b0b1f3c82bc3|268=1|279=2|269=0|278=60b59028-1eb8-478f-ac29-051c85c3dd2b|83=1597565212|55=BTC-USD|270=3.85|271=0.00000000|60=20250411-01:46:48.949195|58=FILLED|10=146|
20250411-01:46:49.076878000 : 8=FIXT.1.1|9=273|35=X|49=Coinbase|56=24ab46f784d1b20db435b852086e3250|34=14|50=TEST|52=20250411-01:46:48.953062|369=2|262=87859126-8df1-460e-8f6d-b0b1f3c82bc3|268=1|279=0|269=1|83=1597565213|55=BTC-USD|271=0.62322946|60=20250411-01:46:48.951585|40=1|37=f4fb980e-3e9e-40e8-83e6-22bf34114aa3|10=120|
20250411-01:46:49.077191000 : 8=FIXT.1.1|9=325|35=X|49=Coinbase|56=24ab46f784d1b20db435b852086e3250|34=15|50=TEST|52=20250411-01:46:48.953066|369=2|262=87859126-8df1-460e-8f6d-b0b1f3c82bc3|268=1|279=0|269=2|278=4d60a78e-b39b-420e-b830-bc0f3f4fdde2|83=1597565214|55=BTC-USD|270=3.53|271=0.62322946|60=20250411-01:46:48.951585|37=f4fb980e-3e9e-40e8-83e6-22bf34114aa3|5797=2|10=113|
20250411-01:46:49.077722000 : 8=FIXT.1.1|9=279|35=X|49=Coinbase|56=24ab46f784d1b20db435b852086e3250|34=16|50=TEST|52=20250411-01:46:48.953142|369=2|262=87859126-8df1-460e-8f6d-b0b1f3c82bc3|268=1|279=2|269=1|278=f4fb980e-3e9e-40e8-83e6-22bf34114aa3|83=1597565215|55=BTC-USD|271=0.00000000|60=20250411-01:46:48.951585|58=FILLED|10=032|
20250411-01:46:49.114635000 : 8=FIXT.1.1|9=281|35=X|49=Coinbase|56=24ab46f784d1b20db435b852086e3250|34=17|50=TEST|52=20250411-01:46:49.006083|369=2|262=87859126-8df1-460e-8f6d-b0b1f3c82bc3|268=1|279=0|269=1|83=1597565216|55=BTC-USD|270=3.2|271=0.61971831|60=20250411-01:46:49.005199|40=2|37=112ef416-11c3-4ad0-bc9d-9c6773c82229|10=114|
20250411-01:46:49.115187000 : 8=FIXT.1.1|9=325|35=X|49=Coinbase|56=24ab46f784d1b20db435b852086e3250|34=18|50=TEST|52=20250411-01:46:49.006137|369=2|262=87859126-8df1-460e-8f6d-b0b1f3c82bc3|268=1|279=0|269=2|278=4d60a78e-b39b-420e-b830-bc0f3f4fdde2|83=1597565217|55=BTC-USD|270=3.53|271=0.61971831|60=20250411-01:46:49.005199|37=112ef416-11c3-4ad0-bc9d-9c6773c82229|5797=2|10=253|
20250411-01:46:49.115379000 : 8=FIXT.1.1|9=287|35=X|49=Coinbase|56=24ab46f784d1b20db435b852086e3250|34=19|50=TEST|52=20250411-01:46:49.006145|369=2|262=87859126-8df1-460e-8f6d-b0b1f3c82bc3|268=1|279=2|269=1|278=112ef416-11c3-4ad0-bc9d-9c6773c82229|83=1597565218|55=BTC-USD|270=3.2|271=0.00000000|60=20250411-01:46:49.005199|58=FILLED|10=023|
20250411-01:46:49.605781000 : 8=FIXT.1.1|9=277|35=X|49=Coinbase|56=24ab46f784d1b20db435b852086e3250|34=20|50=TEST|52=20250411-01:46:49.496165|369=2|262=87859126-8df1-460e-8f6d-b0b1f3c82bc3|268=1|279=0|269=0|83=1597565219|55=BTC-USD|29004=2.2088955195|60=20250411-01:46:49.494182|40=1|37=d36bf88d-c313-4fd9-8916-a4998137bc92|10=019|
20250411-01:46:49.607843000 : 8=FIXT.1.1|9=325|35=X|49=Coinbase|56=24ab46f784d1b20db435b852086e3250|34=21|50=TEST|52=20250411-01:46:49.496172|369=2|262=87859126-8df1-460e-8f6d-b0b1f3c82bc3|268=1|279=0|269=2|278=c5b88ea9-605d-4595-ac52-f7c3f08523ba|83=1597565220|55=BTC-USD|270=3.55|271=0.62222409|60=20250411-01:46:49.494182|37=d36bf88d-c313-4fd9-8916-a4998137bc92|5797=1|10=155|
20250411-01:46:49.608319000 : 8=FIXT.1.1|9=264|35=X|49=Coinbase|56=24ab46f784d1b20db435b852086e3250|34=22|50=TEST|52=20250411-01:46:49.496177|369=2|262=87859126-8df1-460e-8f6d-b0b1f3c82bc3|268=1|279=2|269=0|278=d36bf88d-c313-4fd9-8916-a4998137bc92|83=1597565221|55=BTC-USD|60=20250411-01:46:49.494182|58=FILLED|10=029|
20250411-01:46:49.641995000 : 8=FIXT.1.1|9=273|35=X|49=Coinbase|56=24ab46f784d1b20db435b852086e3250|34=23|50=TEST|52=20250411-01:46:49.524399|369=2|262=87859126-8df1-460e-8f6d-b0b1f3c82bc3|268=1|279=0|269=1|83=1597565222|55=BTC-USD|271=0.62322946|60=20250411-01:46:49.523295|40=1|37=cc3ab4ba-63c5-4c8c-90ab-3e5d02db225f|10=033|
20250411-01:46:49.642306000 : 8=FIXT.1.1|9=325|35=X|49=Coinbase|56=24ab46f784d1b20db435b852086e3250|34=24|50=TEST|52=20250411-01:46:49.524404|369=2|262=87859126-8df1-460e-8f6d-b0b1f3c82bc3|268=1|279=0|269=2|278=4d60a78e-b39b-420e-b830-bc0f3f4fdde2|83=1597565223|55=BTC-USD|270=3.53|271=0.62322946|60=20250411-01:46:49.523295|37=cc3ab4ba-63c5-4c8c-90ab-3e5d02db225f|5797=2|10=009|
20250411-01:46:49.642438000 : 8=FIXT.1.1|9=279|35=X|49=Coinbase|56=24ab46f784d1b20db435b852086e3250|34=25|50=TEST|52=20250411-01:46:49.524407|369=2|262=87859126-8df1-460e-8f6d-b0b1f3c82bc3|268=1|279=2|269=1|278=cc3ab4ba-63c5-4c8c-90ab-3e5d02db225f|83=1597565224|55=BTC-USD|271=0.00000000|60=20250411-01:46:49.523295|58=FILLED|10=192|
20250411-01:46:50.089648000 : 8=FIXT.1.1|9=282|35=X|49=Coinbase|56=24ab46f784d1b20db435b852086e3250|34=26|50=TEST|52=20250411-01:46:49.980544|369=2|262=87859126-8df1-460e-8f6d-b0b1f3c82bc3|268=1|279=0|269=0|83=1597565225|55=BTC-USD|270=3.71|271=0.62322946|60=20250411-01:46:49.979340|40=2|37=d09ca63c-b19f-4de4-b6c4-79ed8cdaebe0|10=069|
20250411-01:46:50.090183000 : 8=FIXT.1.1|9=325|35=X|49=Coinbase|56=24ab46f784d1b20db435b852086e3250|34=27|50=TEST|52=20250411-01:46:49.980556|369=2|262=87859126-8df1-460e-8f6d-b0b1f3c82bc3|268=1|279=0|269=2|278=c5b88ea9-605d-4595-ac52-f7c3f08523ba|83=1597565226|55=BTC-USD|270=3.55|271=0.62322946|60=20250411-01:46:49.979340|37=d09ca63c-b19f-4de4-b6c4-79ed8cdaebe0|5797=1|10=030|
20250411-01:46:50.090369000 : 8=FIXT.1.1|9=288|35=X|49=Coinbase|56=24ab46f784d1b20db435b852086e3250|34=28|50=TEST|52=20250411-01:46:49.980561|369=2|262=87859126-8df1-460e-8f6d-b0b1f3c82bc3|268=1|279=2|269=0|278=d09ca63c-b19f-4de4-b6c4-79ed8cdaebe0|83=1597565227|55=BTC-USD|270=3.71|271=0.00000000|60=20250411-01:46:49.979340|58=FILLED|10=236|
20250411-01:46:50.142976000 : 8=FIXT.1.1|9=282|35=X|49=Coinbase|56=24ab46f784d1b20db435b852086e3250|34=29|50=TEST|52=20250411-01:46:50.034916|369=2|262=87859126-8df1-460e-8f6d-b0b1f3c82bc3|268=1|279=0|269=1|83=1597565228|55=BTC-USD|270=3.33|271=0.62322946|60=20250411-01:46:50.033539|40=2|37=9da970bd-9051-4c1f-9169-d8dd9e06c2ad|10=066|
20250411-01:46:50.143263000 : 8=FIXT.1.1|9=325|35=X|49=Coinbase|56=24ab46f784d1b20db435b852086e3250|34=30|50=TEST|52=20250411-01:46:50.034933|369=2|262=87859126-8df1-460e-8f6d-b0b1f3c82bc3|268=1|279=0|269=2|278=4d60a78e-b39b-420e-b830-bc0f3f4fdde2|83=1597565229|55=BTC-USD|270=3.53|271=0.62322946|60=20250411-01:46:50.033539|37=9da970bd-9051-4c1f-9169-d8dd9e06c2ad|5797=2|10=142|
20250411-01:46:50.144341000 : 8=FIXT.1.1|9=288|35=X|49=Coinbase|56=24ab46f784d1b20db435b852086e3250|34=31|50=TEST|52=20250411-01:46:50.034938|369=2|262=87859126-8df1-460e-8f6d-b0b1f3c82bc3|268=1|279=2|269=1|278=9da970bd-9051-4c1f-9169-d8dd9e06c2ad|83=1597565230|55=BTC-USD|270=3.33|271=0.00000000|60=20250411-01:46:50.033539|58=FILLED|10=220|
20250411-01:46:50.203659000 : 8=FIXT.1.1|9=282|35=X|49=Coinbase|56=24ab46f784d1b20db435b852086e3250|34=32|50=TEST|52=20250411-01:46:50.095639|369=2|262=87859126-8df1-460e-8f6d-b0b1f3c82bc3|268=1|279=0|269=1|83=1597565231|55=BTC-USD|270=3.24|271=0.62322946|60=20250411-01:46:50.093756|40=2|37=1689c668-c5d1-4708-ad40-35e682af2553|10=085|
20250411-01:46:50.204178000 : 8=FIXT.1.1|9=325|35=X|49=Coinbase|56=24ab46f784d1b20db435b852086e3250|34=33|50=TEST|52=20250411-01:46:50.095649|369=2|262=87859126-8df1-460e-8f6d-b0b1f3c82bc3|268=1|279=0|269=2|278=4d60a78e-b39b-420e-b830-bc0f3f4fdde2|83=1597565232|55=BTC-USD|270=3.53|271=0.62322946|60=20250411-01:46:50.093756|37=1689c668-c5d1-4708-ad40-35e682af2553|5797=2|10=172|
20250411-01:46:50.204333000 : 8=FIXT.1.1|9=288|35=X|49=Coinbase|56=24ab46f784d1b20db435b852086e3250|34=34|50=TEST|52=20250411-01:46:50.095656|369=2|262=87859126-8df1-460e-8f6d-b0b1f3c82bc3|268=1|279=2|269=1|278=1689c668-c5d1-4708-ad40-35e682af2553|83=1597565233|55=BTC-USD|270=3.24|271=0.00000000|60=20250411-01:46:50.093756|58=FILLED|10=252|
20250411-01:46:50.257921000 : 8=FIXT.1.1|9=282|35=X|49=Coinbase|56=24ab46f784d1b20db435b852086e3250|34=35|50=TEST|52=20250411-01:46:50.149234|369=2|262=87859126-8df1-460e-8f6d-b0b1f3c82bc3|268=1|279=0|269=0|83=1597565234|55=BTC-USD|270=3.81|271=0.62322946|60=20250411-01:46:50.148191|40=2|37=6c868d05-5150-49af-a613-68bfa11e4912|10=115|
20250411-01:46:50.258427000 : 8=FIXT.1.1|9=325|35=X|49=Coinbase|56=24ab46f784d1b20db435b852086e3250|34=36|50=TEST|52=20250411-01:46:50.149243|369=2|262=87859126-8df1-460e-8f6d-b0b1f3c82bc3|268=1|279=0|269=2|278=c5b88ea9-605d-4595-ac52-f7c3f08523ba|83=1597565235|55=BTC-USD|270=3.55|271=0.62322946|60=20250411-01:46:50.148191|37=6c868d05-5150-49af-a613-68bfa11e4912|5797=1|10=072|
20250411-01:46:50.258586000 : 8=FIXT.1.1|9=288|35=X|49=Coinbase|56=24ab46f784d1b20db435b852086e3250|34=37|50=TEST|52=20250411-01:46:50.149248|369=2|262=87859126-8df1-460e-8f6d-b0b1f3c82bc3|268=1|279=2|269=0|278=6c868d05-5150-49af-a613-68bfa11e4912|83=1597565236|55=BTC-USD|270=3.81|271=0.00000000|60=20250411-01:46:50.148191|58=FILLED|10=032|
20250411-01:46:50.288812000 : 8=FIXT.1.1|9=308|35=X|49=Coinbase|56=24ab46f784d1b20db435b852086e3250|34=38|50=TEST|52=20250411-01:46:50.179404|369=2|262=87859126-8df1-460e-8f6d-b0b1f3c82bc3|268=1|279=1|269=1|278=ab722d07-606d-4d61-bf2d-aaebc3dbb224|83=1597565237|55=BTC-USD|270=3.56|271=0.51483099|60=20250411-01:46:50.178537|58=CHANGE_REASON_MODIFY_ORDER|10=156|
20250411-01:46:50.411686000 : 8=FIXT.1.1|9=277|35=X|49=Coinbase|56=24ab46f784d1b20db435b852086e3250|34=39|50=TEST|52=20250411-01:46:50.303082|369=2|262=87859126-8df1-460e-8f6d-b0b1f3c82bc3|268=1|279=0|269=0|83=1597565238|55=BTC-USD|29004=2.2088955195|60=20250411-01:46:50.301097|40=1|37=17790fbb-359c-4257-baf4-9caf06a64793|10=023|
20250411-01:46:50.412090000 : 8=FIXT.1.1|9=325|35=X|49=Coinbase|56=24ab46f784d1b20db435b852086e3250|34=40|50=TEST|52=20250411-01:46:50.303101|369=2|262=87859126-8df1-460e-8f6d-b0b1f3c82bc3|268=1|279=0|269=2|278=c5b88ea9-605d-4595-ac52-f7c3f08523ba|83=1597565239|55=BTC-USD|270=3.55|271=0.62222409|60=20250411-01:46:50.301097|37=17790fbb-359c-4257-baf4-9caf06a64793|5797=1|10=153|
20250411-01:46:50.412331000 : 8=FIXT.1.1|9=264|35=X|49=Coinbase|56=24ab46f784d1b20db435b852086e3250|34=41|50=TEST|52=20250411-01:46:50.303106|369=2|262=87859126-8df1-460e-8f6d-b0b1f3c82bc3|268=1|279=2|269=0|278=17790fbb-359c-4257-baf4-9caf06a64793|83=1597565240|55=BTC-USD|60=20250411-01:46:50.301097|58=FILLED|10=018|
20250411-01:46:50.431948000 : 8=FIXT.1.1|9=273|35=X|49=Coinbase|56=24ab46f784d1b20db435b852086e3250|34=42|50=TEST|52=20250411-01:46:50.323877|369=2|262=87859126-8df1-460e-8f6d-b0b1f3c82bc3|268=1|279=0|269=1|83=1597565241|55=BTC-USD|271=0.61971831|60=20250411-01:46:50.322730|40=1|37=080725c9-281d-429a-b301-524799993172|10=234|
20250411-01:46:50.432170000 : 8=FIXT.1.1|9=325|35=X|49=Coinbase|56=24ab46f784d1b20db435b852086e3250|34=43|50=TEST|52=20250411-01:46:50.323885|369=2|262=87859126-8df1-460e-8f6d-b0b1f3c82bc3|268=1|279=0|269=2|278=4d60a78e-b39b-420e-b830-bc0f3f4fdde2|83=1597565242|55=BTC-USD|270=3.53|271=0.61971831|60=20250411-01:46:50.322730|37=080725c9-281d-429a-b301-524799993172|5797=2|10=222|
20250411-01:46:50.432307000 : 8=FIXT.1.1|9=279|35=X|49=Coinbase|56=24ab46f784d1b20db435b852086e3250|34=44|50=TEST|52=20250411-01:46:50.323890|369=2|262=87859126-8df1-460e-8f6d-b0b1f3c82bc3|268=1|279=2|269=1|278=080725c9-281d-429a-b301-524799993172|83=1597565243|55=BTC-USD|271=0.00000000|60=20250411-01:46:50.322730|58=FILLED|10=140|
20250411-01:46:50.436419000 : 8=FIXT.1.1|9=282|35=X|49=Coinbase|56=24ab46f784d1b20db435b852086e3250|34=45|50=TEST|52=20250411-01:46:50.328052|369=2|262=87859126-8df1-460e-8f6d-b0b1f3c82bc3|268=1|279=0|269=0|83=1597565244|55=BTC-USD|270=3.91|271=0.61971831|60=20250411-01:46:50.326355|40=2|37=23ce91b1-7e6f-4ec3-bde9-a35fc8cb0422|10=145|
20250411-01:46:50.436764000 : 8=FIXT.1.1|9=325|35=X|49=Coinbase|56=24ab46f784d1b20db435b852086e3250|34=46|50=TEST|52=20250411-01:46:50.328060|369=2|262=87859126-8df1-460e-8f6d-b0b1f3c82bc3|268=1|279=0|269=2|278=c5b88ea9-605d-4595-ac52-f7c3f08523ba|83=1597565245|55=BTC-USD|270=3.55|271=0.61971831|60=20250411-01:46:50.326355|37=23ce91b1-7e6f-4ec3-bde9-a35fc8cb0422|5797=1|10=100|
20250411-01:46:50.437056000 : 8=FIXT.1.1|9=288|35=X|49=Coinbase|56=24ab46f784d1b20db435b852086e3250|34=47|50=TEST|52=20250411-01:46:50.328064|369=2|262=87859126-8df1-460e-8f6d-b0b1f3c82bc3|268=1|279=2|269=0|278=23ce91b1-7e6f-4ec3-bde9-a35fc8cb0422|83=1597565246|55=BTC-USD|270=3.91|271=0.00000000|60=20250411-01:46:50.326355|58=FILLED|10=058|
20250411-01:46:50.576464000 : 8=FIXT.1.1|9=308|35=X|49=Coinbase|56=24ab46f784d1b20db435b852086e3250|34=48|50=TEST|52=20250411-01:46:50.466816|369=2|262=87859126-8df1-460e-8f6d-b0b1f3c82bc3|268=1|279=1|269=0|278=f689890c-8f76-4091-8ff9-a0a99f3d7660|83=1597565247|55=BTC-USD|270=3.43|271=0.43497472|60=20250411-01:46:50.465106|58=CHANGE_REASON_MODIFY_ORDER|10=141|
20250411-01:46:50.577084000 : 8=FIXT.1.1|9=277|35=X|49=Coinbase|56=24ab46f784d1b20db435b852086e3250|34=49|50=TEST|52=20250411-01:46:50.466825|369=2|262=87859126-8df1-460e-8f6d-b0b1f3c82bc3|268=1|279=0|269=0|83=1597565248|55=BTC-USD|29004=2.2088955195|60=20250411-01:46:50.465502|40=1|37=5fa5d740-f2df-4a43-9ade-a619d07f54a2|10=173|
20250411-01:46:50.577273000 : 8=FIXT.1.1|9=325|35=X|49=Coinbase|56=24ab46f784d1b20db435b852086e3250|34=50|50=TEST|52=20250411-01:46:50.466842|369=2|262=87859126-8df1-460e-8f6d-b0b1f3c82bc3|268=1|279=0|269=2|278=c5b88ea9-605d-4595-ac52-f7c3f08523ba|83=1597565249|55=BTC-USD|270=3.55|271=0.62222409|60=20250411-01:46:50.465502|37=5fa5d740-f2df-4a43-9ade-a619d07f54a2|5797=1|10=054|
20250411-01:46:50.577450000 : 8=FIXT.1.1|9=264|35=X|49=Coinbase|56=24ab46f784d1b20db435b852086e3250|34=51|50=TEST|52=20250411-01:46:50.466847|369=2|262=87859126-8df1-460e-8f6d-b0b1f3c82bc3|268=1|279=2|269=0|278=5fa5d740-f2df-4a43-9ade-a619d07f54a2|83=1597565250|55=BTC-USD|60=20250411-01:46:50.465502|58=FILLED|10=175|
20250411-01:46:50.603916000 : 8=FIXT.1.1|9=273|35=X|49=Coinbase|56=24ab46f784d1b20db435b852086e3250|34=52|50=TEST|52=20250411-01:46:50.496210|369=2|262=87859126-8df1-460e-8f6d-b0b1f3c82bc3|268=1|279=0|269=1|83=1597565251|55=BTC-USD|271=0.61971831|60=20250411-01:46:50.494914|40=1|37=7dd90281-a8e1-4cfe-a2e3-7a1f41211ad7|10=139|
20250411-01:46:50.604102000 : 8=FIXT.1.1|9=325|35=X|49=Coinbase|56=24ab46f784d1b20db435b852086e3250|34=53|50=TEST|52=20250411-01:46:50.496219|369=2|262=87859126-8df1-460e-8f6d-b0b1f3c82bc3|268=1|279=0|269=2|278=4d60a78e-b39b-420e-b830-bc0f3f4fdde2|83=1597565252|55=BTC-USD|270=3.53|271=0.61971831|60=20250411-01:46:50.494914|37=7dd90281-a8e1-4cfe-a2e3-7a1f41211ad7|5797=2|10=137|
20250411-01:46:50.604295000 : 8=FIXT.1.1|9=279|35=X|49=Coinbase|56=24ab46f784d1b20db435b852086e3250|34=54|50=TEST|52=20250411-01:46:50.496224|369=2|262=87859126-8df1-460e-8f6d-b0b1f3c82bc3|268=1|279=2|269=1|278=7dd90281-a8e1-4cfe-a2e3-7a1f41211ad7|83=1597565253|55=BTC-USD|271=0.00000000|60=20250411-01:46:50.494914|58=FILLED|10=055|
20250411-01:46:50.661012000 : 8=FIXT.1.1|9=281|35=X|49=Coinbase|56=24ab46f784d1b20db435b852086e3250|34=55|50=TEST|52=20250411-01:46:50.552469|369=2|262=87859126-8df1-460e-8f6d-b0b1f3c82bc3|268=1|279=0|269=1|83=1597565254|55=BTC-USD|270=3.3|271=0.62322946|60=20250411-01:46:50.550797|40=2|37=f3be00b7-9437-4d09-9572-4b07bb164a4a|10=124|
20250411-01:46:50.661327000 : 8=FIXT.1.1|9=325|35=X|49=Coinbase|56=24ab46f784d1b20db435b852086e3250|34=56|50=TEST|52=20250411-01:46:50.552478|369=2|262=87859126-8df1-460e-8f6d-b0b1f3c82bc3|268=1|279=0|269=2|278=4d60a78e-b39b-420e-b830-bc0f3f4fdde2|83=1597565255|55=BTC-USD|270=3.53|271=0.62322946|60=20250411-01:46:50.550797|37=f3be00b7-9437-4d09-9572-4b07bb164a4a|5797=2|10=006|
20250411-01:46:50.661680000 : 8=FIXT.1.1|9=287|35=X|49=Coinbase|56=24ab46f784d1b20db435b852086e3250|34=57|50=TEST|52=20250411-01:46:50.552483|369=2|262=87859126-8df1-460e-8f6d-b0b1f3c82bc3|268=1|279=2|269=1|278=f3be00b7-9437-4d09-9572-4b07bb164a4a|83=1597565256|55=BTC-USD|270=3.3|271=0.00000000|60=20250411-01:46:50.550797|58=FILLED|10=032|
20250411-01:46:50.714236000 : 8=FIXT.1.1|9=282|35=X|49=Coinbase|56=24ab46f784d1b20db435b852086e3250|34=58|50=TEST|52=20250411-01:46:50.606213|369=2|262=87859126-8df1-460e-8f6d-b0b1f3c82bc3|268=1|279=0|269=0|83=1597565257|55=BTC-USD|270=3.86|271=0.62322946|60=20250411-01:46:50.605030|40=2|37=c4dc5e02-c22b-49ec-b047-9bb5596e394e|10=056|
20250411-01:46:50.714821000 : 8=FIXT.1.1|9=325|35=X|49=Coinbase|56=24ab46f784d1b20db435b852086e3250|34=59|50=TEST|52=20250411-01:46:50.606222|369=2|262=87859126-8df1-460e-8f6d-b0b1f3c82bc3|268=1|279=0|269=2|278=c5b88ea9-605d-4595-ac52-f7c3f08523ba|83=1597565258|55=BTC-USD|270=3.55|271=0.62322946|60=20250411-01:46:50.605030|37=c4dc5e02-c22b-49ec-b047-9bb5596e394e|5797=1|10=008|
20250411-01:46:50.714993000 : 8=FIXT.1.1|9=288|35=X|49=Coinbase|56=24ab46f784d1b20db435b852086e3250|34=60|50=TEST|52=20250411-01:46:50.606228|369=2|262=87859126-8df1-460e-8f6d-b0b1f3c82bc3|268=1|279=2|269=0|278=c4dc5e02-c22b-49ec-b047-9bb5596e394e|83=1597565259|55=BTC-USD|270=3.86|271=0.00000000|60=20250411-01:46:50.605030|58=FILLED|10=221|
20250411-01:46:50.863018000 : 8=FIXT.1.1|9=308|35=X|49=Coinbase|56=24ab46f784d1b20db435b852086e3250|34=61|50=TEST|52=20250411-01:46:50.751871|369=2|262=87859126-8df1-460e-8f6d-b0b1f3c82bc3|268=1|279=1|269=1|278=1f8be7f0-8e9b-4e68-81dd-048971f81cf9|83=1597565260|55=BTC-USD|270=3.56|271=0.47164349|60=20250411-01:46:50.750811|58=CHANGE_REASON_MODIFY_ORDER|10=010|
20250411-01:46:50.920834000 : 8=FIXT.1.1|9=277|35=X|49=Coinbase|56=24ab46f784d1b20db435b852086e3250|34=62|50=TEST|52=20250411-01:46:50.812482|369=2|262=87859126-8df1-460e-8f6d-b0b1f3c82bc3|268=1|279=0|269=0|83=1597565261|55=BTC-USD|29004=2.2088955195|60=20250411-01:46:50.811219|40=1|37=6d7a5eba-4f2b-44c9-892e-f86acf57132e|10=172|
20250411-01:46:50.921373000 : 8=FIXT.1.1|9=325|35=X|49=Coinbase|56=24ab46f784d1b20db435b852086e3250|34=63|50=TEST|52=20250411-01:46:50.812491|369=2|262=87859126-8df1-460e-8f6d-b0b1f3c82bc3|268=1|279=0|269=2|278=c5b88ea9-605d-4595-ac52-f7c3f08523ba|83=1597565262|55=BTC-USD|270=3.55|271=0.62222409|60=20250411-01:46:50.811219|37=6d7a5eba-4f2b-44c9-892e-f86acf57132e|5797=1|10=063|
20250411-01:46:50.921551000 : 8=FIXT.1.1|9=264|35=X|49=Coinbase|56=24ab46f784d1b20db435b852086e3250|34=64|50=TEST|52=20250411-01:46:50.812496|369=2|262=87859126-8df1-460e-8f6d-b0b1f3c82bc3|268=1|279=2|269=0|278=6d7a5eba-4f2b-44c9-892e-f86acf57132e|83=1597565263|55=BTC-USD|60=20250411-01:46:50.811219|58=FILLED|10=193|
20250411-01:46:50.949280000 : 8=FIXT.1.1|9=273|35=X|49=Coinbase|56=24ab46f784d1b20db435b852086e3250|34=65|50=TEST|52=20250411-01:46:50.840784|369=2|262=87859126-8df1-460e-8f6d-b0b1f3c82bc3|268=1|279=0|269=1|83=1597565264|55=BTC-USD|271=0.61971831|60=20250411-01:46:50.839173|40=1|37=2d58db23-ca00-4236-a49d-bbdd33cfe452|10=199|
20250411-01:46:50.949600000 : 8=FIXT.1.1|9=325|35=X|49=Coinbase|56=24ab46f784d1b20db435b852086e3250|34=66|50=TEST|52=20250411-01:46:50.840804|369=2|262=87859126-8df1-460e-8f6d-b0b1f3c82bc3|268=1|279=0|269=2|278=4d60a78e-b39b-420e-b830-bc0f3f4fdde2|83=1597565265|55=BTC-USD|270=3.53|271=0.61971831|60=20250411-01:46:50.839173|37=2d58db23-ca00-4236-a49d-bbdd33cfe452|5797=2|10=181|
20250411-01:46:50.949892000 : 8=FIXT.1.1|9=279|35=X|49=Coinbase|56=24ab46f784d1b20db435b852086e3250|34=67|50=TEST|52=20250411-01:46:50.840809|369=2|262=87859126-8df1-460e-8f6d-b0b1f3c82bc3|268=1|279=2|269=1|278=2d58db23-ca00-4236-a49d-bbdd33cfe452|83=1597565266|55=BTC-USD|271=0.00000000|60=20250411-01:46:50.839173|58=FILLED|10=108|
20250411-01:46:51.146180000 : 8=FIXT.1.1|9=308|35=X|49=Coinbase|56=24ab46f784d1b20db435b852086e3250|34=68|50=TEST|52=20250411-01:46:51.037570|369=2|262=87859126-8df1-460e-8f6d-b0b1f3c82bc3|268=1|279=1|269=1|278=6ccc674e-1f21-41b2-bc6e-a5bd9976780c|83=1597565267|55=BTC-USD|270=3.69|271=0.44095772|60=20250411-01:46:51.036112|58=CHANGE_REASON_MODIFY_ORDER|10=034|
20250411-01:46:51.146892000 : 8=FIXT.1.1|9=277|35=X|49=Coinbase|56=24ab46f784d1b20db435b852086e3250|34=69|50=TEST|52=20250411-01:46:51.039144|369=2|262=87859126-8df1-460e-8f6d-b0b1f3c82bc3|268=1|279=0|269=0|83=1597565268|55=BTC-USD|29004=2.2088955195|60=20250411-01:46:51.037968|40=1|37=ad25af30-476c-47bf-bf5e-e3cb34e4488d|10=233|
20250411-01:46:51.147026000 : 8=FIXT.1.1|9=325|35=X|49=Coinbase|56=24ab46f784d1b20db435b852086e3250|34=70|50=TEST|52=20250411-01:46:51.039152|369=2|262=87859126-8df1-460e-8f6d-b0b1f3c82bc3|268=1|279=0|269=2|278=c5b88ea9-605d-4595-ac52-f7c3f08523ba|83=1597565269|55=BTC-USD|270=3.55|271=0.62222409|60=20250411-01:46:51.037968|37=ad25af30-476c-47bf-bf5e-e3cb34e4488d|5797=1|10=114|
20250411-01:46:51.147375000 : 8=FIXT.1.1|9=264|35=X|49=Coinbase|56=24ab46f784d1b20db435b852086e3250|34=71|50=TEST|52=20250411-01:46:51.039156|369=2|262=87859126-8df1-460e-8f6d-b0b1f3c82bc3|268=1|279=2|269=0|278=ad25af30-476c-47bf-bf5e-e3cb34e4488d|83=1597565270|55=BTC-USD|60=20250411-01:46:51.037968|58=FILLED|10=234|
20250411-01:46:51.176528000 : 8=FIXT.1.1|9=273|35=X|49=Coinbase|56=24ab46f784d1b20db435b852086e3250|34=72|50=TEST|52=20250411-01:46:51.068622|369=2|262=87859126-8df1-460e-8f6d-b0b1f3c82bc3|268=1|279=0|269=1|83=1597565271|55=BTC-USD|271=0.62322946|60=20250411-01:46:51.067169|40=1|37=a9bb4adc-73a2-442a-bce0-a1c76972e0eb|10=024|
20250411-01:46:51.176973000 : 8=FIXT.1.1|9=325|35=X|49=Coinbase|56=24ab46f784d1b20db435b852086e3250|34=73|50=TEST|52=20250411-01:46:51.068631|369=2|262=87859126-8df1-460e-8f6d-b0b1f3c82bc3|268=1|279=0|269=2|278=4d60a78e-b39b-420e-b830-bc0f3f4fdde2|83=1597565272|55=BTC-USD|270=3.53|271=0.62322946|60=20250411-01:46:51.067169|37=a9bb4adc-73a2-442a-bce0-a1c76972e0eb|5797=2|10=013|
20250411-01:46:51.177159000 : 8=FIXT.1.1|9=279|35=X|49=Coinbase|56=24ab46f784d1b20db435b852086e3250|34=74|50=TEST|52=20250411-01:46:51.068636|369=2|262=87859126-8df1-460e-8f6d-b0b1f3c82bc3|268=1|279=2|269=1|278=a9bb4adc-73a2-442a-bce0-a1c76972e0eb|83=1597565273|55=BTC-USD|271=0.00000000|60=20250411-01:46:51.067169|58=FILLED|10=198|
20250411-01:46:51.317289000 : 8=FIXT.1.1|9=277|35=X|49=Coinbase|56=24ab46f784d1b20db435b852086e3250|34=75|50=TEST|52=20250411-01:46:51.209402|369=2|262=87859126-8df1-460e-8f6d-b0b1f3c82bc3|268=1|279=0|269=0|83=1597565274|55=BTC-USD|29004=2.2088955195|60=20250411-01:46:51.208193|40=1|37=9f36bfc6-19a9-4c8a-bab2-6e33eda09d89|10=222|
20250411-01:46:51.317571000 : 8=FIXT.1.1|9=325|35=X|49=Coinbase|56=24ab46f784d1b20db435b852086e3250|34=76|50=TEST|52=20250411-01:46:51.209411|369=2|262=87859126-8df1-460e-8f6d-b0b1f3c82bc3|268=1|279=0|269=2|278=c5b88ea9-605d-4595-ac52-f7c3f08523ba|83=1597565275|55=BTC-USD|270=3.55|271=0.62222409|60=20250411-01:46:51.208193|37=9f36bfc6-19a9-4c8a-bab2-6e33eda09d89|5797=1|10=113|
20250411-01:46:51.317728000 : 8=FIXT.1.1|9=264|35=X|49=Coinbase|56=24ab46f784d1b20db435b852086e3250|34=77|50=TEST|52=20250411-01:46:51.209416|369=2|262=87859126-8df1-460e-8f6d-b0b1f3c82bc3|268=1|279=2|269=0|278=9f36bfc6-19a9-4c8a-bab2-6e33eda09d89|83=1597565276|55=BTC-USD|60=20250411-01:46:51.208193|58=FILLED|10=243|
20250411-01:46:51.346954000 : 8=FIXT.1.1|9=273|35=X|49=Coinbase|56=24ab46f784d1b20db435b852086e3250|34=78|50=TEST|52=20250411-01:46:51.238854|369=2|262=87859126-8df1-460e-8f6d-b0b1f3c82bc3|268=1|279=0|269=1|83=1597565277|55=BTC-USD|271=0.62322946|60=20250411-01:46:51.236839|40=1|37=58e0c9cb-1973-4a6d-bfa0-79a1d5d4fb52|10=225|
20250411-01:46:51.347236000 : 8=FIXT.1.1|9=325|35=X|49=Coinbase|56=24ab46f784d1b20db435b852086e3250|34=79|50=TEST|52=20250411-01:46:51.238863|369=2|262=87859126-8df1-460e-8f6d-b0b1f3c82bc3|268=1|279=0|269=2|278=4d60a78e-b39b-420e-b830-bc0f3f4fdde2|83=1597565278|55=BTC-USD|270=3.53|271=0.62322946|60=20250411-01:46:51.236839|37=58e0c9cb-1973-4a6d-bfa0-79a1d5d4fb52|5797=2|10=214|
20250411-01:46:51.347410000 : 8=FIXT.1.1|9=279|35=X|49=Coinbase|56=24ab46f784d1b20db435b852086e3250|34=80|50=TEST|52=20250411-01:46:51.238867|369=2|262=87859126-8df1-460e-8f6d-b0b1f3c82bc3|268=1|279=2|269=1|278=58e0c9cb-1973-4a6d-bfa0-79a1d5d4fb52|83=1597565279|55=BTC-USD|271=0.00000000|60=20250411-01:46:51.236839|58=FILLED|10=133|
20250411-01:46:51.438042000 : 8=FIXT.1.1|9=281|35=X|49=Coinbase|56=24ab46f784d1b20db435b852086e3250|34=81|50=TEST|52=20250411-01:46:51.328985|369=2|262=87859126-8df1-460e-8f6d-b0b1f3c82bc3|268=1|279=0|269=1|83=1597565280|55=BTC-USD|270=3.2|271=0.61971831|60=20250411-01:46:51.327588|40=2|37=4802f120-62c5-403c-9fd8-327abf7e3dc1|10=175|
20250411-01:46:51.438582000 : 8=FIXT.1.1|9=325|35=X|49=Coinbase|56=24ab46f784d1b20db435b852086e3250|34=82|50=TEST|52=20250411-01:46:51.329000|369=2|262=87859126-8df1-460e-8f6d-b0b1f3c82bc3|268=1|279=0|269=2|278=4d60a78e-b39b-420e-b830-bc0f3f4fdde2|83=1597565281|55=BTC-USD|270=3.53|271=0.61971831|60=20250411-01:46:51.327588|37=4802f120-62c5-403c-9fd8-327abf7e3dc1|5797=2|10=037|
20250411-01:46:51.438864000 : 8=FIXT.1.1|9=287|35=X|49=Coinbase|56=24ab46f784d1b20db435b852086e3250|34=83|50=TEST|52=20250411-01:46:51.329004|369=2|262=87859126-8df1-460e-8f6d-b0b1f3c82bc3|268=1|279=2|269=1|278=4802f120-62c5-403c-9fd8-327abf7e3dc1|83=1597565282|55=BTC-USD|270=3.2|271=0.00000000|60=20250411-01:46:51.327588|58=FILLED|10=068|
20250411-01:46:51.489671000 : 8=FIXT.1.1|9=277|35=X|49=Coinbase|56=24ab46f784d1b20db435b852086e3250|34=84|50=TEST|52=20250411-01:46:51.381609|369=2|262=87859126-8df1-460e-8f6d-b0b1f3c82bc3|268=1|279=0|269=0|83=1597565283|55=BTC-USD|29004=2.2088955195|60=20250411-01:46:51.380118|40=1|37=35058588-4f8f-4de3-bde5-0de57270eb2e|10=087|
20250411-01:46:51.490072000 : 8=FIXT.1.1|9=325|35=X|49=Coinbase|56=24ab46f784d1b20db435b852086e3250|34=85|50=TEST|52=20250411-01:46:51.381619|369=2|262=87859126-8df1-460e-8f6d-b0b1f3c82bc3|268=1|279=0|269=2|278=c5b88ea9-605d-4595-ac52-f7c3f08523ba|83=1597565284|55=BTC-USD|270=3.55|271=0.62222409|60=20250411-01:46:51.380118|37=35058588-4f8f-4de3-bde5-0de57270eb2e|5797=1|10=235|
20250411-01:46:51.490217000 : 8=FIXT.1.1|9=264|35=X|49=Coinbase|56=24ab46f784d1b20db435b852086e3250|34=86|50=TEST|52=20250411-01:46:51.381623|369=2|262=87859126-8df1-460e-8f6d-b0b1f3c82bc3|268=1|279=2|269=0|278=35058588-4f8f-4de3-bde5-0de57270eb2e|83=1597565285|55=BTC-USD|60=20250411-01:46:51.380118|58=FILLED|10=099|
20250411-01:46:51.520141000 : 8=FIXT.1.1|9=273|35=X|49=Coinbase|56=24ab46f784d1b20db435b852086e3250|34=87|50=TEST|52=20250411-01:46:51.411118|369=2|262=87859126-8df1-460e-8f6d-b0b1f3c82bc3|268=1|279=0|269=1|83=1597565286|55=BTC-USD|271=0.62322946|60=20250411-01:46:51.409127|40=1|37=8e84cbe9-a5cc-4170-9ed9-f5c5b66426b3|10=171|
20250411-01:46:51.520690000 : 8=FIXT.1.1|9=325|35=X|49=Coinbase|56=24ab46f784d1b20db435b852086e3250|34=88|50=TEST|52=20250411-01:46:51.411127|369=2|262=87859126-8df1-460e-8f6d-b0b1f3c82bc3|268=1|279=0|269=2|278=4d60a78e-b39b-420e-b830-bc0f3f4fdde2|83=1597565287|55=BTC-USD|270=3.53|271=0.62322946|60=20250411-01:46:51.409127|37=8e84cbe9-a5cc-4170-9ed9-f5c5b66426b3|5797=2|10=160|
20250411-01:46:51.520864000 : 8=FIXT.1.1|9=279|35=X|49=Coinbase|56=24ab46f784d1b20db435b852086e3250|34=89|50=TEST|52=20250411-01:46:51.411134|369=2|262=87859126-8df1-460e-8f6d-b0b1f3c82bc3|268=1|279=2|269=1|278=8e84cbe9-a5cc-4170-9ed9-f5c5b66426b3|83=1597565288|55=BTC-USD|271=0.00000000|60=20250411-01:46:51.409127|58=FILLED|10=082|
20250411-01:46:51.574546000 : 8=FIXT.1.1|9=282|35=X|49=Coinbase|56=24ab46f784d1b20db435b852086e3250|34=90|50=TEST|52=20250411-01:46:51.465763|369=2|262=87859126-8df1-460e-8f6d-b0b1f3c82bc3|268=1|279=0|269=0|83=1597565289|55=BTC-USD|270=3.82|271=0.62322946|60=20250411-01:46:51.463803|40=2|37=5fb52edc-84d1-4ced-a531-9787e1a12626|10=027|
20250411-01:46:51.574953000 : 8=FIXT.1.1|9=325|35=X|49=Coinbase|56=24ab46f784d1b20db435b852086e3250|34=91|50=TEST|52=20250411-01:46:51.465783|369=2|262=87859126-8df1-460e-8f6d-b0b1f3c82bc3|268=1|279=0|269=2|278=c5b88ea9-605d-4595-ac52-f7c3f08523ba|83=1597565290|55=BTC-USD|270=3.55|271=0.62322946|60=20250411-01:46:51.463803|37=5fb52edc-84d1-4ced-a531-9787e1a12626|5797=1|10=232|
20250411-01:46:51.575103000 : 8=FIXT.1.1|9=288|35=X|49=Coinbase|56=24ab46f784d1b20db435b852086e3250|34=92|50=TEST|52=20250411-01:46:51.465800|369=2|262=87859126-8df1-460e-8f6d-b0b1f3c82bc3|268=1|279=2|269=0|278=5fb52edc-84d1-4ced-a531-9787e1a12626|83=1597565291|55=BTC-USD|270=3.82|271=0.00000000|60=20250411-01:46:51.463803|58=FILLED|10=178|
20250411-01:46:51.629355000 : 8=FIXT.1.1|9=282|35=X|49=Coinbase|56=24ab46f784d1b20db435b852086e3250|34=93|50=TEST|52=20250411-01:46:51.520872|369=2|262=87859126-8df1-460e-8f6d-b0b1f3c82bc3|268=1|279=0|269=1|83=1597565292|55=BTC-USD|270=3.31|271=0.62322946|60=20250411-01:46:51.519278|40=2|37=4368b71a-16a0-41c0-8ab5-3bdd57e52ab4|10=254|
20250411-01:46:51.629639000 : 8=FIXT.1.1|9=325|35=X|49=Coinbase|56=24ab46f784d1b20db435b852086e3250|34=94|50=TEST|52=20250411-01:46:51.520881|369=2|262=87859126-8df1-460e-8f6d-b0b1f3c82bc3|268=1|279=0|269=2|278=4d60a78e-b39b-420e-b830-bc0f3f4fdde2|83=1597565293|55=BTC-USD|270=3.53|271=0.62322946|60=20250411-01:46:51.519278|37=4368b71a-16a0-41c0-8ab5-3bdd57e52ab4|5797=2|10=086|
20250411-01:46:51.629798000 : 8=FIXT.1.1|9=288|35=X|49=Coinbase|56=24ab46f784d1b20db435b852086e3250|34=95|50=TEST|52=20250411-01:46:51.520886|369=2|262=87859126-8df1-460e-8f6d-b0b1f3c82bc3|268=1|279=2|269=1|278=4368b71a-16a0-41c0-8ab5-3bdd57e52ab4|83=1597565294|55=BTC-USD|270=3.31|271=0.00000000|60=20250411-01:46:51.519278|58=FILLED|10=171|
20250411-01:46:51.660721000 : 8=FIXT.1.1|9=277|35=X|49=Coinbase|56=24ab46f784d1b20db435b852086e3250|34=96|50=TEST|52=20250411-01:46:51.552487|369=2|262=87859126-8df1-460e-8f6d-b0b1f3c82bc3|268=1|279=0|269=0|83=1597565295|55=BTC-USD|29004=2.2088955195|60=20250411-01:46:51.551120|40=1|37=57b1391c-2cc1-44a8-9449-952ba1d99eac|10=034|
20250411-01:46:51.661026000 : 8=FIXT.1.1|9=325|35=X|49=Coinbase|56=24ab46f784d1b20db435b852086e3250|34=97|50=TEST|52=20250411-01:46:51.552495|369=2|262=87859126-8df1-460e-8f6d-b0b1f3c82bc3|268=1|279=0|269=2|278=c5b88ea9-605d-4595-ac52-f7c3f08523ba|83=1597565296|55=BTC-USD|270=3.55|271=0.62222409|60=20250411-01:46:51.551120|37=57b1391c-2cc1-44a8-9449-952ba1d99eac|5797=1|10=180|
20250411-01:46:51.661202000 : 8=FIXT.1.1|9=264|35=X|49=Coinbase|56=24ab46f784d1b20db435b852086e3250|34=98|50=TEST|52=20250411-01:46:51.552500|369=2|262=87859126-8df1-460e-8f6d-b0b1f3c82bc3|268=1|279=2|269=0|278=57b1391c-2cc1-44a8-9449-952ba1d99eac|83=1597565297|55=BTC-USD|60=20250411-01:46:51.551120|58=FILLED|10=036|
20250411-01:46:51.689534000 : 8=FIXT.1.1|9=273|35=X|49=Coinbase|56=24ab46f784d1b20db435b852086e3250|34=99|50=TEST|52=20250411-01:46:51.580866|369=2|262=87859126-8df1-460e-8f6d-b0b1f3c82bc3|268=1|279=0|269=1|83=1597565298|55=BTC-USD|271=0.61971831|60=20250411-01:46:51.579599|40=1|37=89f6e403-c63d-4b79-8bad-3bd005f701a5|10=152|
20250411-01:46:51.690185000 : 8=FIXT.1.1|9=326|35=X|49=Coinbase|56=24ab46f784d1b20db435b852086e3250|34=100|50=TEST|52=20250411-01:46:51.580874|369=2|262=87859126-8df1-460e-8f6d-b0b1f3c82bc3|268=1|279=0|269=2|278=4d60a78e-b39b-420e-b830-bc0f3f4fdde2|83=1597565299|55=BTC-USD|270=3.53|271=0.61971831|60=20250411-01:46:51.579599|37=89f6e403-c63d-4b79-8bad-3bd005f701a5|5797=2|10=171|
20250411-01:46:51.690396000 : 8=FIXT.1.1|9=280|35=X|49=Coinbase|56=24ab46f784d1b20db435b852086e3250|34=101|50=TEST|52=20250411-01:46:51.580879|369=2|262=87859126-8df1-460e-8f6d-b0b1f3c82bc3|268=1|279=2|269=1|278=89f6e403-c63d-4b79-8bad-3bd005f701a5|83=1597565300|55=BTC-USD|271=0.00000000|60=20250411-01:46:51.579599|58=FILLED|10=071|
20250411-01:46:51.717996000 : 8=FIXT.1.1|9=278|35=X|49=Coinbase|56=24ab46f784d1b20db435b852086e3250|34=102|50=TEST|52=20250411-01:46:51.609334|369=2|262=87859126-8df1-460e-8f6d-b0b1f3c82bc3|268=1|279=0|269=0|83=1597565301|55=BTC-USD|29004=2.2088955195|60=20250411-01:46:51.608117|40=1|37=e13b8a89-47fa-45ea-a463-1ee67600f4a0|10=101|
20250411-01:46:51.718416000 : 8=FIXT.1.1|9=326|35=X|49=Coinbase|56=24ab46f784d1b20db435b852086e3250|34=103|50=TEST|52=20250411-01:46:51.609342|369=2|262=87859126-8df1-460e-8f6d-b0b1f3c82bc3|268=1|279=0|269=2|278=c5b88ea9-605d-4595-ac52-f7c3f08523ba|83=1597565302|55=BTC-USD|270=3.55|271=0.62222409|60=20250411-01:46:51.608117|37=e13b8a89-47fa-45ea-a463-1ee67600f4a0|5797=1|10=247|
20250411-01:46:51.718587000 : 8=FIXT.1.1|9=265|35=X|49=Coinbase|56=24ab46f784d1b20db435b852086e3250|34=104|50=TEST|52=20250411-01:46:51.609347|369=2|262=87859126-8df1-460e-8f6d-b0b1f3c82bc3|268=1|279=2|269=0|278=e13b8a89-47fa-45ea-a463-1ee67600f4a0|83=1597565303|55=BTC-USD|60=20250411-01:46:51.608117|58=FILLED|10=121|
20250411-01:46:51.747976000 : 8=FIXT.1.1|9=274|35=X|49=Coinbase|56=24ab46f784d1b20db435b852086e3250|34=105|50=TEST|52=20250411-01:46:51.639904|369=2|262=87859126-8df1-460e-8f6d-b0b1f3c82bc3|268=1|279=0|269=1|83=1597565304|55=BTC-USD|271=0.61971831|60=20250411-01:46:51.638172|40=1|37=e451b5e0-5102-42d5-977d-adfa5691e466|10=065|
20250411-01:46:51.748286000 : 8=FIXT.1.1|9=326|35=X|49=Coinbase|56=24ab46f784d1b20db435b852086e3250|34=106|50=TEST|52=20250411-01:46:51.639912|369=2|262=87859126-8df1-460e-8f6d-b0b1f3c82bc3|268=1|279=0|269=2|278=4d60a78e-b39b-420e-b830-bc0f3f4fdde2|83=1597565305|55=BTC-USD|270=3.53|271=0.61971831|60=20250411-01:46:51.638172|37=e451b5e0-5102-42d5-977d-adfa5691e466|5797=2|10=053|
20250411-01:46:51.748448000 : 8=FIXT.1.1|9=280|35=X|49=Coinbase|56=24ab46f784d1b20db435b852086e3250|34=107|50=TEST|52=20250411-01:46:51.639917|369=2|262=87859126-8df1-460e-8f6d-b0b1f3c82bc3|268=1|279=2|269=1|278=e451b5e0-5102-42d5-977d-adfa5691e466|83=1597565306|55=BTC-USD|271=0.00000000|60=20250411-01:46:51.638172|58=FILLED|10=227|
20250411-01:46:51.803253000 : 8=FIXT.1.1|9=283|35=X|49=Coinbase|56=24ab46f784d1b20db435b852086e3250|34=108|50=TEST|52=20250411-01:46:51.695245|369=2|262=87859126-8df1-460e-8f6d-b0b1f3c82bc3|268=1|279=0|269=0|83=1597565307|55=BTC-USD|270=3.87|271=0.62322946|60=20250411-01:46:51.693620|40=2|37=62da0344-4d92-4590-8f5f-211960960437|10=254|
20250411-01:46:51.803734000 : 8=FIXT.1.1|9=326|35=X|49=Coinbase|56=24ab46f784d1b20db435b852086e3250|34=109|50=TEST|52=20250411-01:46:51.695253|369=2|262=87859126-8df1-460e-8f6d-b0b1f3c82bc3|268=1|279=0|269=2|278=c5b88ea9-605d-4595-ac52-f7c3f08523ba|83=1597565308|55=BTC-USD|270=3.55|271=0.62322946|60=20250411-01:46:51.693620|37=62da0344-4d92-4590-8f5f-211960960437|5797=1|10=204|
20250411-01:46:51.803915000 : 8=FIXT.1.1|9=289|35=X|49=Coinbase|56=24ab46f784d1b20db435b852086e3250|34=110|50=TEST|52=20250411-01:46:51.695258|369=2|262=87859126-8df1-460e-8f6d-b0b1f3c82bc3|268=1|279=2|269=0|278=62da0344-4d92-4590-8f5f-211960960437|83=1597565309|55=BTC-USD|270=3.87|271=0.00000000|60=20250411-01:46:51.693620|58=FILLED|10=161|
20250411-01:46:51.858866000 : 8=FIXT.1.1|9=283|35=X|49=Coinbase|56=24ab46f784d1b20db435b852086e3250|34=111|50=TEST|52=20250411-01:46:51.750478|369=2|262=87859126-8df1-460e-8f6d-b0b1f3c82bc3|268=1|279=0|269=1|83=1597565310|55=BTC-USD|270=3.33|271=0.62322946|60=20250411-01:46:51.748611|40=2|37=011967cf-90fc-4aad-bcb8-b96242387c0b|10=097|
20250411-01:46:51.859275000 : 8=FIXT.1.1|9=326|35=X|49=Coinbase|56=24ab46f784d1b20db435b852086e3250|34=112|50=TEST|52=20250411-01:46:51.750488|369=2|262=87859126-8df1-460e-8f6d-b0b1f3c82bc3|268=1|279=0|269=2|278=4d60a78e-b39b-420e-b830-bc0f3f4fdde2|83=1597565311|55=BTC-USD|270=3.53|271=0.62322946|60=20250411-01:46:51.748611|37=011967cf-90fc-4aad-bcb8-b96242387c0b|5797=2|10=184|
20250411-01:46:51.859432000 : 8=FIXT.1.1|9=289|35=X|49=Coinbase|56=24ab46f784d1b20db435b852086e3250|34=113|50=TEST|52=20250411-01:46:51.750492|369=2|262=87859126-8df1-460e-8f6d-b0b1f3c82bc3|268=1|279=2|269=1|278=011967cf-90fc-4aad-bcb8-b96242387c0b|83=1597565312|55=BTC-USD|270=3.33|271=0.00000000|60=20250411-01:46:51.748611|58=FILLED|10=005|
20250411-01:46:52.152635000 : 8=FIXT.1.1|9=83|35=5|34=3|49=24ab46f784d1b20db435b852086e3250|52=20250411-01:46:52.152|56=Coinbase|10=110|
20250411-01:46:52.159010000 : 8=FIXT.1.1|9=278|35=X|49=Coinbase|56=24ab46f784d1b20db435b852086e3250|34=114|50=TEST|52=20250411-01:46:52.010280|369=2|262=87859126-8df1-460e-8f6d-b0b1f3c82bc3|268=1|279=0|269=0|83=1597565313|55=BTC-USD|29004=2.2088955195|60=20250411-01:46:52.008409|40=1|37=ae02cf71-21f5-434b-ad7a-2ae031766a89|10=082|
20250411-01:46:52.159268000 : 8=FIXT.1.1|9=326|35=X|49=Coinbase|56=24ab46f784d1b20db435b852086e3250|34=115|50=TEST|52=20250411-01:46:52.010335|369=2|262=87859126-8df1-460e-8f6d-b0b1f3c82bc3|268=1|279=0|269=2|278=c5b88ea9-605d-4595-ac52-f7c3f08523ba|83=1597565314|55=BTC-USD|270=3.55|271=0.62222409|60=20250411-01:46:52.008409|37=ae02cf71-21f5-434b-ad7a-2ae031766a89|5797=1|10=230|
20250411-01:46:52.159437000 : 8=FIXT.1.1|9=265|35=X|49=Coinbase|56=24ab46f784d1b20db435b852086e3250|34=116|50=TEST|52=20250411-01:46:52.010344|369=2|262=87859126-8df1-460e-8f6d-b0b1f3c82bc3|268=1|279=2|269=0|278=ae02cf71-21f5-434b-ad7a-2ae031766a89|83=1597565315|55=BTC-USD|60=20250411-01:46:52.008409|58=FILLED|10=099|
20250411-01:46:52.159703000 : 8=FIXT.1.1|9=274|35=X|49=Coinbase|56=24ab46f784d1b20db435b852086e3250|34=117|50=TEST|52=20250411-01:46:52.038650|369=2|262=87859126-8df1-460e-8f6d-b0b1f3c82bc3|268=1|279=0|269=1|83=1597565316|55=BTC-USD|271=0.62322946|60=20250411-01:46:52.037715|40=1|37=f72710e4-1ea4-49ab-82aa-574217ad7daa|10=186|
20250411-01:46:52.159876000 : 8=FIXT.1.1|9=326|35=X|49=Coinbase|56=24ab46f784d1b20db435b852086e3250|34=118|50=TEST|52=20250411-01:46:52.038656|369=2|262=87859126-8df1-460e-8f6d-b0b1f3c82bc3|268=1|279=0|269=2|278=4d60a78e-b39b-420e-b830-bc0f3f4fdde2|83=1597565317|55=BTC-USD|270=3.53|271=0.62322946|60=20250411-01:46:52.037715|37=f72710e4-1ea4-49ab-82aa-574217ad7daa|5797=2|10=181|
20250411-01:46:52.160354000 : 8=FIXT.1.1|9=280|35=X|49=Coinbase|56=24ab46f784d1b20db435b852086e3250|34=119|50=TEST|52=20250411-01:46:52.038697|369=2|262=87859126-8df1-460e-8f6d-b0b1f3c82bc3|268=1|279=2|269=1|278=f72710e4-1ea4-49ab-82aa-574217ad7daa|83=1597565318|55=BTC-USD|271=0.00000000|60=20250411-01:46:52.037715|58=FILLED|10=101|
20250411-01:50:19.672755000 : 8=FIXT.1.1|9=215|35=A|34=1|49=24ab46f784d1b20db435b852086e3250|52=20250411-01:50:19.662|56=Coinbase|95=44|96=HFPObaJ/w7dNSFZJwLUO1AGt/9KsCVzNfQK9zmhLI6s=|98=0|108=30|141=Y|553=24ab46f784d1b20db435b852086e3250|554=akmwnltyfgb|1137=9|10=155|
20250411-01:50:19.928984000 : 8=FIXT.1.1|9=125|35=A|49=Coinbase|56=24ab46f784d1b20db435b852086e3250|34=1|50=TEST|52=20250411-01:50:19.812711|369=1|98=0|108=30|141=Y|1137=9|10=188|
20250411-01:50:21.417969000 : 8=FIXT.1.1|9=178|35=V|34=2|49=24ab46f784d1b20db435b852086e3250|52=20250411-01:50:21.416|56=Coinbase|1128=9|146=1|55=BTC-USD|262=83671f6c-e7d6-4990-a146-dc86a70aefdc|263=1|264=0|267=2|269=0|269=1|10=114|
20250411-01:50:21.674599000 : 8=FIXT.1.1|9=272|35=X|49=Coinbase|56=24ab46f784d1b20db435b852086e3250|34=2|50=TEST|52=20250411-01:50:21.558906|369=2|262=83671f6c-e7d6-4990-a146-dc86a70aefdc|268=1|279=0|269=1|83=1597569373|55=BTC-USD|271=0.61971831|60=20250411-01:50:21.557296|40=1|37=20a36dfe-2109-48b0-bcf2-c53caf9c4543|10=195|
20250411-01:50:21.675670000 : 8=FIXT.1.1|9=324|35=X|49=Coinbase|56=24ab46f784d1b20db435b852086e3250|34=3|50=TEST|52=20250411-01:50:21.558916|369=2|262=83671f6c-e7d6-4990-a146-dc86a70aefdc|268=1|279=0|269=2|278=4d60a78e-b39b-420e-b830-bc0f3f4fdde2|83=1597569374|55=BTC-USD|270=3.53|271=0.61971831|60=20250411-01:50:21.557296|37=20a36dfe-2109-48b0-bcf2-c53caf9c4543|5797=2|10=185|
20250411-01:50:21.675884000 : 8=FIXT.1.1|9=278|35=X|49=Coinbase|56=24ab46f784d1b20db435b852086e3250|34=4|50=TEST|52=20250411-01:50:21.558919|369=2|262=83671f6c-e7d6-4990-a146-dc86a70aefdc|268=1|279=2|269=1|278=20a36dfe-2109-48b0-bcf2-c53caf9c4543|83=1597569375|55=BTC-USD|271=0.00000000|60=20250411-01:50:21.557296|58=FILLED|10=110|
20250411-01:50:21.701783000 : 8=FIXT.1.1|9=276|35=X|49=Coinbase|56=24ab46f784d1b20db435b852086e3250|34=5|50=TEST|52=20250411-01:50:21.586825|369=2|262=83671f6c-e7d6-4990-a146-dc86a70aefdc|268=1|279=0|269=0|83=1597569376|55=BTC-USD|29004=2.2088955195|60=20250411-01:50:21.585840|40=1|37=89dcffdd-9558-47d0-90e4-9706e65b7fd0|10=158|
20250411-01:50:21.702025000 : 8=FIXT.1.1|9=324|35=X|49=Coinbase|56=24ab46f784d1b20db435b852086e3250|34=6|50=TEST|52=20250411-01:50:21.586829|369=2|262=83671f6c-e7d6-4990-a146-dc86a70aefdc|268=1|279=0|269=2|278=c5b88ea9-605d-4595-ac52-f7c3f08523ba|83=1597569377|55=BTC-USD|270=3.55|271=0.62222409|60=20250411-01:50:21.585840|37=89dcffdd-9558-47d0-90e4-9706e65b7fd0|5797=1|10=053|
20250411-01:50:21.702205000 : 8=FIXT.1.1|9=263|35=X|49=Coinbase|56=24ab46f784d1b20db435b852086e3250|34=7|50=TEST|52=20250411-01:50:21.586920|369=2|262=83671f6c-e7d6-4990-a146-dc86a70aefdc|268=1|279=2|269=0|278=89dcffdd-9558-47d0-90e4-9706e65b7fd0|83=1597569378|55=BTC-USD|60=20250411-01:50:21.585840|58=FILLED|10=170|
20250411-01:50:21.730224000 : 8=FIXT.1.1|9=272|35=X|49=Coinbase|56=24ab46f784d1b20db435b852086e3250|34=8|50=TEST|52=20250411-01:50:21.615410|369=2|262=83671f6c-e7d6-4990-a146-dc86a70aefdc|268=1|279=0|269=1|83=1597569379|55=BTC-USD|271=0.61971831|60=20250411-01:50:21.614140|40=1|37=fa8f2339-c025-4dd4-9a83-c38a7f40b740|10=092|
20250411-01:50:21.730495000 : 8=FIXT.1.1|9=324|35=X|49=Coinbase|56=24ab46f784d1b20db435b852086e3250|34=9|50=TEST|52=20250411-01:50:21.615423|369=2|262=83671f6c-e7d6-4990-a146-dc86a70aefdc|268=1|279=0|269=2|278=4d60a78e-b39b-420e-b830-bc0f3f4fdde2|83=1597569380|55=BTC-USD|270=3.53|271=0.61971831|60=20250411-01:50:21.614140|37=fa8f2339-c025-4dd4-9a83-c38a7f40b740|5797=2|10=076|
20250411-01:50:21.730646000 : 8=FIXT.1.1|9=279|35=X|49=Coinbase|56=24ab46f784d1b20db435b852086e3250|34=10|50=TEST|52=20250411-01:50:21.615427|369=2|262=83671f6c-e7d6-4990-a146-dc86a70aefdc|268=1|279=2|269=1|278=fa8f2339-c025-4dd4-9a83-c38a7f40b740|83=1597569381|55=BTC-USD|271=0.00000000|60=20250411-01:50:21.614140|58=FILLED|10=042|
20250411-01:50:22.216874000 : 8=FIXT.1.1|9=277|35=X|49=Coinbase|56=24ab46f784d1b20db435b852086e3250|34=11|50=TEST|52=20250411-01:50:22.101375|369=2|262=83671f6c-e7d6-4990-a146-dc86a70aefdc|268=1|279=0|269=0|83=1597569382|55=BTC-USD|29004=2.2088955195|60=20250411-01:50:22.100024|40=1|37=91c7e4f8-3185-4d23-ae8e-653275f3a096|10=003|
20250411-01:50:22.217499000 : 8=FIXT.1.1|9=325|35=X|49=Coinbase|56=24ab46f784d1b20db435b852086e3250|34=12|50=TEST|52=20250411-01:50:22.101384|369=2|262=83671f6c-e7d6-4990-a146-dc86a70aefdc|268=1|279=0|269=2|278=c5b88ea9-605d-4595-ac52-f7c3f08523ba|83=1597569383|55=BTC-USD|270=3.55|271=0.62222409|60=20250411-01:50:22.100024|37=91c7e4f8-3185-4d23-ae8e-653275f3a096|5797=1|10=150|
20250411-01:50:22.217672000 : 8=FIXT.1.1|9=264|35=X|49=Coinbase|56=24ab46f784d1b20db435b852086e3250|34=13|50=TEST|52=20250411-01:50:22.101387|369=2|262=83671f6c-e7d6-4990-a146-dc86a70aefdc|268=1|279=2|269=0|278=91c7e4f8-3185-4d23-ae8e-653275f3a096|83=1597569384|55=BTC-USD|60=20250411-01:50:22.100024|58=FILLED|10=022|
20250411-01:50:22.248994000 : 8=FIXT.1.1|9=273|35=X|49=Coinbase|56=24ab46f784d1b20db435b852086e3250|34=14|50=TEST|52=20250411-01:50:22.131574|369=2|262=83671f6c-e7d6-4990-a146-dc86a70aefdc|268=1|279=0|269=1|83=1597569385|55=BTC-USD|271=0.62322946|60=20250411-01:50:22.130066|40=1|37=8b7b42c8-9f5a-4dd1-b977-9305730bf732|10=103|
20250411-01:50:22.249162000 : 8=FIXT.1.1|9=325|35=X|49=Coinbase|56=24ab46f784d1b20db435b852086e3250|34=15|50=TEST|52=20250411-01:50:22.131584|369=2|262=83671f6c-e7d6-4990-a146-dc86a70aefdc|268=1|279=0|269=2|278=4d60a78e-b39b-420e-b830-bc0f3f4fdde2|83=1597569386|55=BTC-USD|270=3.53|271=0.62322946|60=20250411-01:50:22.130066|37=8b7b42c8-9f5a-4dd1-b977-9305730bf732|5797=2|10=093|
20250411-01:50:22.249306000 : 8=FIXT.1.1|9=279|35=X|49=Coinbase|56=24ab46f784d1b20db435b852086e3250|34=16|50=TEST|52=20250411-01:50:22.131587|369=2|262=83671f6c-e7d6-4990-a146-dc86a70aefdc|268=1|279=2|269=1|278=8b7b42c8-9f5a-4dd1-b977-9305730bf732|83=1597569387|55=BTC-USD|271=0.00000000|60=20250411-01:50:22.130066|58=FILLED|10=020|
20250411-01:50:22.446719000 : 8=FIXT.1.1|9=282|35=X|49=Coinbase|56=24ab46f784d1b20db435b852086e3250|34=17|50=TEST|52=20250411-01:50:22.331032|369=2|262=83671f6c-e7d6-4990-a146-dc86a70aefdc|268=1|279=0|269=0|83=1597569388|55=BTC-USD|270=3.73|271=0.62322946|60=20250411-01:50:22.330247|40=2|37=73097bb1-7f41-419e-ab0b-1c3defe7c557|10=138|
20250411-01:50:22.447698000 : 8=FIXT.1.1|9=325|35=X|49=Coinbase|56=24ab46f784d1b20db435b852086e3250|34=18|50=TEST|52=20250411-01:50:22.331217|369=2|262=83671f6c-e7d6-4990-a146-dc86a70aefdc|268=1|279=0|269=2|278=c5b88ea9-605d-4595-ac52-f7c3f08523ba|83=1597569389|55=BTC-USD|270=3.55|271=0.62322946|60=20250411-01:50:22.330247|37=73097bb1-7f41-419e-ab0b-1c3defe7c557|5797=1|10=099|
20250411-01:50:22.447902000 : 8=FIXT.1.1|9=288|35=X|49=Coinbase|56=24ab46f784d1b20db435b852086e3250|34=19|50=TEST|52=20250411-01:50:22.331223|369=2|262=83671f6c-e7d6-4990-a146-dc86a70aefdc|268=1|279=2|269=0|278=73097bb1-7f41-419e-ab0b-1c3defe7c557|83=1597569390|55=BTC-USD|270=3.73|271=0.00000000|60=20250411-01:50:22.330247|58=FILLED|10=043|
20250411-01:50:22.558511000 : 8=FIXT.1.1|9=282|35=X|49=Coinbase|56=24ab46f784d1b20db435b852086e3250|34=20|50=TEST|52=20250411-01:50:22.443423|369=2|262=83671f6c-e7d6-4990-a146-dc86a70aefdc|268=1|279=0|269=1|83=1597569391|55=BTC-USD|270=3.31|271=0.62322946|60=20250411-01:50:22.442055|40=2|37=4cff4e02-0565-43c8-8e96-865c225b4ca0|10=248|
20250411-01:50:22.562350000 : 8=FIXT.1.1|9=325|35=X|49=Coinbase|56=24ab46f784d1b20db435b852086e3250|34=21|50=TEST|52=20250411-01:50:22.443435|369=2|262=83671f6c-e7d6-4990-a146-dc86a70aefdc|268=1|279=0|269=2|278=4d60a78e-b39b-420e-b830-bc0f3f4fdde2|83=1597569392|55=BTC-USD|270=3.53|271=0.62322946|60=20250411-01:50:22.442055|37=4cff4e02-0565-43c8-8e96-865c225b4ca0|5797=2|10=083|
20250411-01:50:22.562468000 : 8=FIXT.1.1|9=288|35=X|49=Coinbase|56=24ab46f784d1b20db435b852086e3250|34=22|50=TEST|52=20250411-01:50:22.443526|369=2|262=83671f6c-e7d6-4990-a146-dc86a70aefdc|268=1|279=2|269=1|278=4cff4e02-0565-43c8-8e96-865c225b4ca0|83=1597569393|55=BTC-USD|270=3.31|271=0.00000000|60=20250411-01:50:22.442055|58=FILLED|10=164|
20250411-01:50:22.562566000 : 8=FIXT.1.1|9=281|35=X|49=Coinbase|56=24ab46f784d1b20db435b852086e3250|34=23|50=TEST|52=20250411-01:50:22.443532|369=2|262=83671f6c-e7d6-4990-a146-dc86a70aefdc|268=1|279=0|269=1|83=1597569394|55=BTC-USD|270=3.2|271=0.62322946|60=20250411-01:50:22.442055|40=2|37=476653f6-89e6-4760-b799-61bfb7b43b35|10=133|
20250411-01:50:22.562660000 : 8=FIXT.1.1|9=325|35=X|49=Coinbase|56=24ab46f784d1b20db435b852086e3250|34=24|50=TEST|52=20250411-01:50:22.443535|369=2|262=83671f6c-e7d6-4990-a146-dc86a70aefdc|268=1|279=0|269=2|278=4d60a78e-b39b-420e-b830-bc0f3f4fdde2|83=1597569395|55=BTC-USD|270=3.53|271=0.62322946|60=20250411-01:50:22.442055|37=476653f6-89e6-4760-b799-61bfb7b43b35|5797=2|10=019|
20250411-01:50:22.562782000 : 8=FIXT.1.1|9=287|35=X|49=Coinbase|56=24ab46f784d1b20db435b852086e3250|34=25|50=TEST|52=20250411-01:50:22.443538|369=2|262=83671f6c-e7d6-4990-a146-dc86a70aefdc|268=1|279=2|269=1|278=476653f6-89e6-4760-b799-61bfb7b43b35|83=1597569396|55=BTC-USD|270=3.2|271=0.00000000|60=20250411-01:50:22.442055|58=FILLED|10=051|
20250411-01:50:22.620290000 : 8=FIXT.1.1|9=277|35=X|49=Coinbase|56=24ab46f784d1b20db435b852086e3250|34=26|50=TEST|52=20250411-01:50:22.504210|369=2|262=83671f6c-e7d6-4990-a146-dc86a70aefdc|268=1|279=0|269=0|83=1597569397|55=BTC-USD|29004=2.2088955195|60=20250411-01:50:22.500736|40=1|37=3ae84ff2-5774-48b8-be96-02a7bf879efc|10=229|
20250411-01:50:22.620801000 : 8=FIXT.1.1|9=325|35=X|49=Coinbase|56=24ab46f784d1b20db435b852086e3250|34=27|50=TEST|52=20250411-01:50:22.504219|369=2|262=83671f6c-e7d6-4990-a146-dc86a70aefdc|268=1|279=0|269=2|278=c5b88ea9-605d-4595-ac52-f7c3f08523ba|83=1597569398|55=BTC-USD|270=3.55|271=0.62222409|60=20250411-01:50:22.500736|37=3ae84ff2-5774-48b8-be96-02a7bf879efc|5797=1|10=129|
20250411-01:50:22.620992000 : 8=FIXT.1.1|9=264|35=X|49=Coinbase|56=24ab46f784d1b20db435b852086e3250|34=28|50=TEST|52=20250411-01:50:22.504222|369=2|262=83671f6c-e7d6-4990-a146-dc86a70aefdc|268=1|279=2|269=0|278=3ae84ff2-5774-48b8-be96-02a7bf879efc|83=1597569399|55=BTC-USD|60=20250411-01:50:22.500736|58=FILLED|10=248|
20250411-01:50:22.645424000 : 8=FIXT.1.1|9=273|35=X|49=Coinbase|56=24ab46f784d1b20db435b852086e3250|34=29|50=TEST|52=20250411-01:50:22.530692|369=2|262=83671f6c-e7d6-4990-a146-dc86a70aefdc|268=1|279=0|269=1|83=1597569400|55=BTC-USD|271=0.62322946|60=20250411-01:50:22.529081|40=1|37=6acd3eed-bbdd-48a4-ae88-b9b33d2257e0|10=174|
20250411-01:50:22.645920000 : 8=FIXT.1.1|9=325|35=X|49=Coinbase|56=24ab46f784d1b20db435b852086e3250|34=30|50=TEST|52=20250411-01:50:22.530700|369=2|262=83671f6c-e7d6-4990-a146-dc86a70aefdc|268=1|279=0|269=2|278=4d60a78e-b39b-420e-b830-bc0f3f4fdde2|83=1597569401|55=BTC-USD|270=3.53|271=0.62322946|60=20250411-01:50:22.529081|37=6acd3eed-bbdd-48a4-ae88-b9b33d2257e0|5797=2|10=144|
20250411-01:50:22.646048000 : 8=FIXT.1.1|9=279|35=X|49=Coinbase|56=24ab46f784d1b20db435b852086e3250|34=31|50=TEST|52=20250411-01:50:22.530722|369=2|262=83671f6c-e7d6-4990-a146-dc86a70aefdc|268=1|279=2|269=1|278=6acd3eed-bbdd-48a4-ae88-b9b33d2257e0|83=1597569402|55=BTC-USD|271=0.00000000|60=20250411-01:50:22.529081|58=FILLED|10=072|
20250411-01:50:22.904431000 : 8=FIXT.1.1|9=282|35=X|49=Coinbase|56=24ab46f784d1b20db435b852086e3250|34=32|50=TEST|52=20250411-01:50:22.787256|369=2|262=83671f6c-e7d6-4990-a146-dc86a70aefdc|268=1|279=0|269=1|83=1597569403|55=BTC-USD|270=3.21|271=0.62322946|60=20250411-01:50:22.785758|40=2|37=00c80d40-48b2-42b5-a290-a40115c4733b|10=144|
20250411-01:50:22.908988000 : 8=FIXT.1.1|9=325|35=X|49=Coinbase|56=24ab46f784d1b20db435b852086e3250|34=33|50=TEST|52=20250411-01:50:22.787262|369=2|262=83671f6c-e7d6-4990-a146-dc86a70aefdc|268=1|279=0|269=2|278=4d60a78e-b39b-420e-b830-bc0f3f4fdde2|83=1597569404|55=BTC-USD|270=3.53|271=0.62322946|60=20250411-01:50:22.785758|37=00c80d40-48b2-42b5-a290-a40115c4733b|5797=2|10=230|
20250411-01:50:22.913441000 : 8=FIXT.1.1|9=288|35=X|49=Coinbase|56=24ab46f784d1b20db435b852086e3250|34=34|50=TEST|52=20250411-01:50:22.787264|369=2|262=83671f6c-e7d6-4990-a146-dc86a70aefdc|268=1|279=2|269=1|278=00c80d40-48b2-42b5-a290-a40115c4733b|83=1597569405|55=BTC-USD|270=3.21|271=0.00000000|60=20250411-01:50:22.785758|58=FILLED|10=055|
20250411-01:50:22.958405000 : 8=FIXT.1.1|9=282|35=X|49=Coinbase|56=24ab46f784d1b20db435b852086e3250|34=35|50=TEST|52=20250411-01:50:22.842345|369=2|262=83671f6c-e7d6-4990-a146-dc86a70aefdc|268=1|279=0|269=0|83=1597569406|55=BTC-USD|270=3.79|271=0.62322946|60=20250411-01:50:22.840445|40=2|37=6ff40680-13f7-4507-bd47-c39968b43fd2|10=237|
20250411-01:50:22.958554000 : 8=FIXT.1.1|9=325|35=X|49=Coinbase|56=24ab46f784d1b20db435b852086e3250|34=36|50=TEST|52=20250411-01:50:22.842351|369=2|262=83671f6c-e7d6-4990-a146-dc86a70aefdc|268=1|279=0|269=2|278=c5b88ea9-605d-4595-ac52-f7c3f08523ba|83=1597569407|55=BTC-USD|270=3.55|271=0.62322946|60=20250411-01:50:22.840445|37=6ff40680-13f7-4507-bd47-c39968b43fd2|5797=1|10=184|
20250411-01:50:22.958734000 : 8=FIXT.1.1|9=288|35=X|49=Coinbase|56=24ab46f784d1b20db435b852086e3250|34=37|50=TEST|52=20250411-01:50:22.842354|369=2|262=83671f6c-e7d6-4990-a146-dc86a70aefdc|268=1|279=2|269=0|278=6ff40680-13f7-4507-bd47-c39968b43fd2|83=1597569408|55=BTC-USD|270=3.79|271=0.00000000|60=20250411-01:50:22.840445|58=FILLED|10=149|
20250411-01:50:23.589984000 : 8=FIXT.1.1|9=282|35=X|49=Coinbase|56=24ab46f784d1b20db435b852086e3250|34=38|50=TEST|52=20250411-01:50:23.473634|369=2|262=83671f6c-e7d6-4990-a146-dc86a70aefdc|268=1|279=0|269=1|83=1597569409|55=BTC-USD|270=3.36|271=0.61971831|60=20250411-01:50:23.472459|40=2|37=b9216257-1138-4415-8663-fab3a4c3ee98|10=189|
20250411-01:50:23.590615000 : 8=FIXT.1.1|9=325|35=X|49=Coinbase|56=24ab46f784d1b20db435b852086e3250|34=39|50=TEST|52=20250411-01:50:23.473692|369=2|262=83671f6c-e7d6-4990-a146-dc86a70aefdc|268=1|279=0|269=2|278=4d60a78e-b39b-420e-b830-bc0f3f4fdde2|83=1597569410|55=BTC-USD|270=3.53|271=0.61971831|60=20250411-01:50:23.472459|37=b9216257-1138-4415-8663-fab3a4c3ee98|5797=2|10=011|
20250411-01:50:23.590795000 : 8=FIXT.1.1|9=288|35=X|49=Coinbase|56=24ab46f784d1b20db435b852086e3250|34=40|50=TEST|52=20250411-01:50:23.473894|369=2|262=83671f6c-e7d6-4990-a146-dc86a70aefdc|268=1|279=2|269=1|278=b9216257-1138-4415-8663-fab3a4c3ee98|83=1597569411|55=BTC-USD|270=3.36|271=0.00000000|60=20250411-01:50:23.472459|58=FILLED|10=089|
20250411-01:50:23.590983000 : 8=FIXT.1.1|9=282|35=X|49=Coinbase|56=24ab46f784d1b20db435b852086e3250|34=41|50=TEST|52=20250411-01:50:23.473896|369=2|262=83671f6c-e7d6-4990-a146-dc86a70aefdc|268=1|279=0|269=1|83=1597569412|55=BTC-USD|270=3.26|271=0.61971831|60=20250411-01:50:23.472459|40=2|37=cb8a720e-c0c0-4b18-83e2-2acbc924fadb|10=030|
20250411-01:50:23.591141000 : 8=FIXT.1.1|9=325|35=X|49=Coinbase|56=24ab46f784d1b20db435b852086e3250|34=42|50=TEST|52=20250411-01:50:23.473905|369=2|262=83671f6c-e7d6-4990-a146-dc86a70aefdc|268=1|279=0|269=2|278=4d60a78e-b39b-420e-b830-bc0f3f4fdde2|83=1597569413|55=BTC-USD|270=3.53|271=0.61971831|60=20250411-01:50:23.472459|37=cb8a720e-c0c0-4b18-83e2-2acbc924fadb|5797=2|10=105|
20250411-01:50:23.592756000 : 8=FIXT.1.1|9=288|35=X|49=Coinbase|56=24ab46f784d1b20db435b852086e3250|34=43|50=TEST|52=20250411-01:50:23.473907|369=2|262=83671f6c-e7d6-4990-a146-dc86a70aefdc|268=1|279=2|269=1|278=cb8a720e-c0c0-4b18-83e2-2acbc924fadb|83=1597569414|55=BTC-USD|270=3.26|271=0.00000000|60=20250411-01:50:23.472459|58=FILLED|10=189|
20250411-01:50:23.701194000 : 8=FIXT.1.1|9=282|35=X|49=Coinbase|56=24ab46f784d1b20db435b852086e3250|34=44|50=TEST|52=20250411-01:50:23.586418|369=2|262=83671f6c-e7d6-4990-a146-dc86a70aefdc|268=1|279=0|269=0|83=1597569415|55=BTC-USD|270=3.75|271=0.61971831|60=20250411-01:50:23.584634|40=2|37=66a788db-9e2a-4aef-b9c1-75114e24aecd|10=011|
20250411-01:50:23.701609000 : 8=FIXT.1.1|9=325|35=X|49=Coinbase|56=24ab46f784d1b20db435b852086e3250|34=45|50=TEST|52=20250411-01:50:23.586434|369=2|262=83671f6c-e7d6-4990-a146-dc86a70aefdc|268=1|279=0|269=2|278=c5b88ea9-605d-4595-ac52-f7c3f08523ba|83=1597569416|55=BTC-USD|270=3.55|271=0.61971831|60=20250411-01:50:23.584634|37=66a788db-9e2a-4aef-b9c1-75114e24aecd|5797=1|10=219|
20250411-01:50:23.701781000 : 8=FIXT.1.1|9=288|35=X|49=Coinbase|56=24ab46f784d1b20db435b852086e3250|34=46|50=TEST|52=20250411-01:50:23.586522|369=2|262=83671f6c-e7d6-4990-a146-dc86a70aefdc|268=1|279=2|269=0|278=66a788db-9e2a-4aef-b9c1-75114e24aecd|83=1597569417|55=BTC-USD|270=3.75|271=0.00000000|60=20250411-01:50:23.584634|58=FILLED|10=173|
20250411-01:50:23.701951000 : 8=FIXT.1.1|9=282|35=X|49=Coinbase|56=24ab46f784d1b20db435b852086e3250|34=47|50=TEST|52=20250411-01:50:23.586524|369=2|262=83671f6c-e7d6-4990-a146-dc86a70aefdc|268=1|279=0|269=0|83=1597569418|55=BTC-USD|270=3.74|271=0.61971831|60=20250411-01:50:23.584634|40=2|37=53a1c820-965a-412b-9968-bdf6c6294dbb|10=081|
20250411-01:50:23.702109000 : 8=FIXT.1.1|9=325|35=X|49=Coinbase|56=24ab46f784d1b20db435b852086e3250|34=48|50=TEST|52=20250411-01:50:23.586529|369=2|262=83671f6c-e7d6-4990-a146-dc86a70aefdc|268=1|279=0|269=2|278=c5b88ea9-605d-4595-ac52-f7c3f08523ba|83=1597569419|55=BTC-USD|270=3.55|271=0.61971831|60=20250411-01:50:23.584634|37=53a1c820-965a-412b-9968-bdf6c6294dbb|5797=1|10=041|
20250411-01:50:23.702705000 : 8=FIXT.1.1|9=288|35=X|49=Coinbase|56=24ab46f784d1b20db435b852086e3250|34=49|50=TEST|52=20250411-01:50:23.586569|369=2|262=83671f6c-e7d6-4990-a146-dc86a70aefdc|268=1|279=2|269=0|278=53a1c820-965a-412b-9968-bdf6c6294dbb|83=1597569420|55=BTC-USD|270=3.74|271=0.00000000|60=20250411-01:50:23.584634|58=FILLED|10=247|
20250411-01:50:24.046042000 : 8=FIXT.1.1|9=281|35=X|49=Coinbase|56=24ab46f784d1b20db435b852086e3250|34=50|50=TEST|52=20250411-01:50:23.930038|369=2|262=83671f6c-e7d6-4990-a146-dc86a70aefdc|268=1|279=0|269=1|83=1597569421|55=BTC-USD|270=3.3|271=0.61971831|60=20250411-01:50:23.928706|40=2|37=d89721db-fc53-4687-8ddd-ec267fdfa740|10=167|
20250411-01:50:24.046987000 : 8=FIXT.1.1|9=325|35=X|49=Coinbase|56=24ab46f784d1b20db435b852086e3250|34=51|50=TEST|52=20250411-01:50:23.930048|369=2|262=83671f6c-e7d6-4990-a146-dc86a70aefdc|268=1|279=0|269=2|278=4d60a78e-b39b-420e-b830-bc0f3f4fdde2|83=1597569422|55=BTC-USD|270=3.53|271=0.61971831|60=20250411-01:50:23.928706|37=d89721db-fc53-4687-8ddd-ec267fdfa740|5797=2|10=050|
20250411-01:50:24.048261000 : 8=FIXT.1.1|9=287|35=X|49=Coinbase|56=24ab46f784d1b20db435b852086e3250|34=52|50=TEST|52=20250411-01:50:23.930105|369=2|262=83671f6c-e7d6-4990-a146-dc86a70aefdc|268=1|279=2|269=1|278=d89721db-fc53-4687-8ddd-ec267fdfa740|83=1597569423|55=BTC-USD|270=3.3|271=0.00000000|60=20250411-01:50:23.928706|58=FILLED|10=072|
20250411-01:50:24.098613000 : 8=FIXT.1.1|9=282|35=X|49=Coinbase|56=24ab46f784d1b20db435b852086e3250|34=53|50=TEST|52=20250411-01:50:23.984072|369=2|262=83671f6c-e7d6-4990-a146-dc86a70aefdc|268=1|279=0|269=0|83=1597569424|55=BTC-USD|270=3.89|271=0.61971831|60=20250411-01:50:23.982883|40=2|37=22c5ba1f-7348-43d1-9ff7-3b79fbca61aa|10=224|
20250411-01:50:24.098929000 : 8=FIXT.1.1|9=325|35=X|49=Coinbase|56=24ab46f784d1b20db435b852086e3250|34=54|50=TEST|52=20250411-01:50:23.984157|369=2|262=83671f6c-e7d6-4990-a146-dc86a70aefdc|268=1|279=0|269=2|278=c5b88ea9-605d-4595-ac52-f7c3f08523ba|83=1597569425|55=BTC-USD|270=3.55|271=0.61971831|60=20250411-01:50:23.982883|37=22c5ba1f-7348-43d1-9ff7-3b79fbca61aa|5797=1|10=177|
20250411-01:50:24.099145000 : 8=FIXT.1.1|9=288|35=X|49=Coinbase|56=24ab46f784d1b20db435b852086e3250|34=55|50=TEST|52=20250411-01:50:23.984167|369=2|262=83671f6c-e7d6-4990-a146-dc86a70aefdc|268=1|279=2|269=0|278=22c5ba1f-7348-43d1-9ff7-3b79fbca61aa|83=1597569426|55=BTC-USD|270=3.89|271=0.00000000|60=20250411-01:50:23.982883|58=FILLED|10=139|
20250411-01:50:24.276279000 : 8=FIXT.1.1|9=277|35=X|49=Coinbase|56=24ab46f784d1b20db435b852086e3250|34=56|50=TEST|52=20250411-01:50:24.158264|369=2|262=83671f6c-e7d6-4990-a146-dc86a70aefdc|268=1|279=0|269=0|83=1597569427|55=BTC-USD|29004=2.2088955195|60=20250411-01:50:24.156862|40=1|37=ae988b73-f7cd-41f7-80d7-9757c58219ea|10=159|
20250411-01:50:24.276671000 : 8=FIXT.1.1|9=325|35=X|49=Coinbase|56=24ab46f784d1b20db435b852086e3250|34=57|50=TEST|52=20250411-01:50:24.158274|369=2|262=83671f6c-e7d6-4990-a146-dc86a70aefdc|268=1|279=0|269=2|278=c5b88ea9-605d-4595-ac52-f7c3f08523ba|83=1597569428|55=BTC-USD|270=3.55|271=0.62222409|60=20250411-01:50:24.156862|37=ae988b73-f7cd-41f7-80d7-9757c58219ea|5797=1|10=051|
20250411-01:50:24.276874000 : 8=FIXT.1.1|9=264|35=X|49=Coinbase|56=24ab46f784d1b20db435b852086e3250|34=58|50=TEST|52=20250411-01:50:24.158288|369=2|262=83671f6c-e7d6-4990-a146-dc86a70aefdc|268=1|279=2|269=0|278=ae988b73-f7cd-41f7-80d7-9757c58219ea|83=1597569429|55=BTC-USD|60=20250411-01:50:24.156862|58=FILLED|10=181|
20250411-01:50:24.303809000 : 8=FIXT.1.1|9=273|35=X|49=Coinbase|56=24ab46f784d1b20db435b852086e3250|34=59|50=TEST|52=20250411-01:50:24.187784|369=2|262=83671f6c-e7d6-4990-a146-dc86a70aefdc|268=1|279=0|269=1|83=1597569430|55=BTC-USD|271=0.61971831|60=20250411-01:50:24.186054|40=1|37=4531eb39-0b2d-499b-b9d1-911bc714402a|10=104|
20250411-01:50:24.303975000 : 8=FIXT.1.1|9=325|35=X|49=Coinbase|56=24ab46f784d1b20db435b852086e3250|34=60|50=TEST|52=20250411-01:50:24.187794|369=2|262=83671f6c-e7d6-4990-a146-dc86a70aefdc|268=1|279=0|269=2|278=4d60a78e-b39b-420e-b830-bc0f3f4fdde2|83=1597569431|55=BTC-USD|270=3.53|271=0.61971831|60=20250411-01:50:24.186054|37=4531eb39-0b2d-499b-b9d1-911bc714402a|5797=2|10=085|
20250411-01:50:24.304109000 : 8=FIXT.1.1|9=279|35=X|49=Coinbase|56=24ab46f784d1b20db435b852086e3250|34=61|50=TEST|52=20250411-01:50:24.187798|369=2|262=83671f6c-e7d6-4990-a146-dc86a70aefdc|268=1|279=2|269=1|278=4531eb39-0b2d-499b-b9d1-911bc714402a|83=1597569432|55=BTC-USD|271=0.00000000|60=20250411-01:50:24.186054|58=FILLED|10=011|
20250411-01:50:24.559089000 : 8=FIXT.1.1|9=277|35=X|49=Coinbase|56=24ab46f784d1b20db435b852086e3250|34=62|50=TEST|52=20250411-01:50:24.444217|369=2|262=83671f6c-e7d6-4990-a146-dc86a70aefdc|268=1|279=0|269=0|83=1597569433|55=BTC-USD|29004=2.2088955195|60=20250411-01:50:24.443011|40=1|37=57ec9d3d-e05f-4a4b-9eb9-bdd3b5b2c768|10=096|
20250411-01:50:24.559726000 : 8=FIXT.1.1|9=325|35=X|49=Coinbase|56=24ab46f784d1b20db435b852086e3250|34=63|50=TEST|52=20250411-01:50:24.444284|369=2|262=83671f6c-e7d6-4990-a146-dc86a70aefdc|268=1|279=0|269=2|278=c5b88ea9-605d-4595-ac52-f7c3f08523ba|83=1597569434|55=BTC-USD|270=3.55|271=0.62222409|60=20250411-01:50:24.443011|37=57ec9d3d-e05f-4a4b-9eb9-bdd3b5b2c768|5797=1|10=247|
20250411-01:50:24.559999000 : 8=FIXT.1.1|9=264|35=X|49=Coinbase|56=24ab46f784d1b20db435b852086e3250|34=64|50=TEST|52=20250411-01:50:24.444296|369=2|262=83671f6c-e7d6-4990-a146-dc86a70aefdc|268=1|279=2|269=0|278=57ec9d3d-e05f-4a4b-9eb9-bdd3b5b2c768|83=1597569435|55=BTC-USD|60=20250411-01:50:24.443011|58=FILLED|10=119|
20250411-01:50:24.588599000 : 8=FIXT.1.1|9=273|35=X|49=Coinbase|56=24ab46f784d1b20db435b852086e3250|34=65|50=TEST|52=20250411-01:50:24.472880|369=2|262=83671f6c-e7d6-4990-a146-dc86a70aefdc|268=1|279=0|269=1|83=1597569436|55=BTC-USD|271=0.62322946|60=20250411-01:50:24.471240|40=1|37=257d5c2b-58fc-4577-84d1-59fe0a636f96|10=132|
20250411-01:50:24.589151000 : 8=FIXT.1.1|9=325|35=X|49=Coinbase|56=24ab46f784d1b20db435b852086e3250|34=66|50=TEST|52=20250411-01:50:24.472889|369=2|262=83671f6c-e7d6-4990-a146-dc86a70aefdc|268=1|279=0|269=2|278=4d60a78e-b39b-420e-b830-bc0f3f4fdde2|83=1597569437|55=BTC-USD|270=3.53|271=0.62322946|60=20250411-01:50:24.471240|37=257d5c2b-58fc-4577-84d1-59fe0a636f96|5797=2|10=130|
20250411-01:50:24.589340000 : 8=FIXT.1.1|9=279|35=X|49=Coinbase|56=24ab46f784d1b20db435b852086e3250|34=67|50=TEST|52=20250411-01:50:24.472922|369=2|262=83671f6c-e7d6-4990-a146-dc86a70aefdc|268=1|279=2|269=1|278=257d5c2b-58fc-4577-84d1-59fe0a636f96|83=1597569438|55=BTC-USD|271=0.00000000|60=20250411-01:50:24.471240|58=FILLED|10=042|
20250411-01:50:24.616147000 : 8=FIXT.1.1|9=277|35=X|49=Coinbase|56=24ab46f784d1b20db435b852086e3250|34=68|50=TEST|52=20250411-01:50:24.501262|369=2|262=83671f6c-e7d6-4990-a146-dc86a70aefdc|268=1|279=0|269=0|83=1597569439|55=BTC-USD|29004=2.2088955195|60=20250411-01:50:24.499438|40=1|37=1bddb020-79ca-43c5-98aa-e43483ab9dc0|10=005|
20250411-01:50:24.616541000 : 8=FIXT.1.1|9=325|35=X|49=Coinbase|56=24ab46f784d1b20db435b852086e3250|34=69|50=TEST|52=20250411-01:50:24.501268|369=2|262=83671f6c-e7d6-4990-a146-dc86a70aefdc|268=1|279=0|269=2|278=c5b88ea9-605d-4595-ac52-f7c3f08523ba|83=1597569440|55=BTC-USD|270=3.55|271=0.62222409|60=20250411-01:50:24.499438|37=1bddb020-79ca-43c5-98aa-e43483ab9dc0|5797=1|10=149|
20250411-01:50:24.616728000 : 8=FIXT.1.1|9=264|35=X|49=Coinbase|56=24ab46f784d1b20db435b852086e3250|34=70|50=TEST|52=20250411-01:50:24.501272|369=2|262=83671f6c-e7d6-4990-a146-dc86a70aefdc|268=1|279=2|269=0|278=1bddb020-79ca-43c5-98aa-e43483ab9dc0|83=1597569441|55=BTC-USD|60=20250411-01:50:24.499438|58=FILLED|10=004|
20250411-01:50:24.645387000 : 8=FIXT.1.1|9=273|35=X|49=Coinbase|56=24ab46f784d1b20db435b852086e3250|34=71|50=TEST|52=20250411-01:50:24.529947|369=2|262=83671f6c-e7d6-4990-a146-dc86a70aefdc|268=1|279=0|269=1|83=1597569442|55=BTC-USD|271=0.61971831|60=20250411-01:50:24.528140|40=1|37=ad9718ce-04b7-4973-bdc7-b963d8469c05|10=180|
20250411-01:50:24.645663000 : 8=FIXT.1.1|9=325|35=X|49=Coinbase|56=24ab46f784d1b20db435b852086e3250|34=72|50=TEST|52=20250411-01:50:24.530042|369=2|262=83671f6c-e7d6-4990-a146-dc86a70aefdc|268=1|279=0|269=2|278=4d60a78e-b39b-420e-b830-bc0f3f4fdde2|83=1597569443|55=BTC-USD|270=3.53|271=0.61971831|60=20250411-01:50:24.528140|37=ad9718ce-04b7-4973-bdc7-b963d8469c05|5797=2|10=147|
20250411-01:50:24.645857000 : 8=FIXT.1.1|9=279|35=X|49=Coinbase|56=24ab46f784d1b20db435b852086e3250|34=73|50=TEST|52=20250411-01:50:24.530046|369=2|262=83671f6c-e7d6-4990-a146-dc86a70aefdc|268=1|279=2|269=1|278=ad9718ce-04b7-4973-bdc7-b963d8469c05|83=1597569444|55=BTC-USD|271=0.00000000|60=20250411-01:50:24.528140|58=FILLED|10=073|
20250411-01:50:24.845266000 : 8=FIXT.1.1|9=281|35=X|49=Coinbase|56=24ab46f784d1b20db435b852086e3250|34=74|50=TEST|52=20250411-01:50:24.730342|369=2|262=83671f6c-e7d6-4990-a146-dc86a70aefdc|268=1|279=0|269=1|83=1597569445|55=BTC-USD|270=3.3|271=0.62322946|60=20250411-01:50:24.728301|40=2|37=fdea5ffc-93c6-43d4-919d-7661a883cfbe|10=213|
20250411-01:50:24.845764000 : 8=FIXT.1.1|9=325|35=X|49=Coinbase|56=24ab46f784d1b20db435b852086e3250|34=75|50=TEST|52=20250411-01:50:24.730474|369=2|262=83671f6c-e7d6-4990-a146-dc86a70aefdc|268=1|279=0|269=2|278=4d60a78e-b39b-420e-b830-bc0f3f4fdde2|83=1597569446|55=BTC-USD|270=3.53|271=0.62322946|60=20250411-01:50:24.728301|37=fdea5ffc-93c6-43d4-919d-7661a883cfbe|5797=2|10=101|
20250411-01:50:24.845925000 : 8=FIXT.1.1|9=287|35=X|49=Coinbase|56=24ab46f784d1b20db435b852086e3250|34=76|50=TEST|52=20250411-01:50:24.730477|369=2|262=83671f6c-e7d6-4990-a146-dc86a70aefdc|268=1|279=2|269=1|278=fdea5ffc-93c6-43d4-919d-7661a883cfbe|83=1597569447|55=BTC-USD|270=3.3|271=0.00000000|60=20250411-01:50:24.728301|58=FILLED|10=134|
20250411-01:50:24.899514000 : 8=FIXT.1.1|9=281|35=X|49=Coinbase|56=24ab46f784d1b20db435b852086e3250|34=77|50=TEST|52=20250411-01:50:24.784186|369=2|262=83671f6c-e7d6-4990-a146-dc86a70aefdc|268=1|279=0|269=0|83=1597569448|55=BTC-USD|270=3.8|271=0.62322946|60=20250411-01:50:24.783094|40=2|37=a31d13b0-c98b-42c2-b0b0-e7175ff2bdd0|10=150|
20250411-01:50:24.899878000 : 8=FIXT.1.1|9=325|35=X|49=Coinbase|56=24ab46f784d1b20db435b852086e3250|34=78|50=TEST|52=20250411-01:50:24.784201|369=2|262=83671f6c-e7d6-4990-a146-dc86a70aefdc|268=1|279=0|269=2|278=c5b88ea9-605d-4595-ac52-f7c3f08523ba|83=1597569449|55=BTC-USD|270=3.55|271=0.62322946|60=20250411-01:50:24.783094|37=a31d13b0-c98b-42c2-b0b0-e7175ff2bdd0|5797=1|10=145|
20250411-01:50:24.900049000 : 8=FIXT.1.1|9=287|35=X|49=Coinbase|56=24ab46f784d1b20db435b852086e3250|34=79|50=TEST|52=20250411-01:50:24.784240|369=2|262=83671f6c-e7d6-4990-a146-dc86a70aefdc|268=1|279=2|269=0|278=a31d13b0-c98b-42c2-b0b0-e7175ff2bdd0|83=1597569450|55=BTC-USD|270=3.8|271=0.00000000|60=20250411-01:50:24.783094|58=FILLED|10=044|
20250411-01:50:24.986252000 : 8=FIXT.1.1|9=282|35=X|49=Coinbase|56=24ab46f784d1b20db435b852086e3250|34=80|50=TEST|52=20250411-01:50:24.871487|369=2|262=83671f6c-e7d6-4990-a146-dc86a70aefdc|268=1|279=0|269=1|83=1597569451|55=BTC-USD|270=3.56|271=0.61971831|60=20250411-01:50:24.869539|40=2|37=f2ed167a-0d68-4cd6-aa9a-f60d28c06d9c|10=024|
20250411-01:50:24.986823000 : 8=FIXT.1.1|9=278|35=X|49=Coinbase|56=24ab46f784d1b20db435b852086e3250|34=81|50=TEST|52=20250411-01:50:24.871494|369=2|262=83671f6c-e7d6-4990-a146-dc86a70aefdc|268=1|279=0|269=1|278=f2ed167a-0d68-4cd6-aa9a-f60d28c06d9c|83=1597569452|55=BTC-USD|270=3.56|271=0.61971831|60=20250411-01:50:24.869539|10=128|
20250411-01:50:24.986994000 : 8=FIXT.1.1|9=282|35=X|49=Coinbase|56=24ab46f784d1b20db435b852086e3250|34=82|50=TEST|52=20250411-01:50:24.871561|369=2|262=83671f6c-e7d6-4990-a146-dc86a70aefdc|268=1|279=0|269=1|83=1597569453|55=BTC-USD|270=3.61|271=0.61971831|60=20250411-01:50:24.869539|40=2|37=cf1b3334-372f-4087-86ba-5c48297917a7|10=205|
20250411-01:50:24.987144000 : 8=FIXT.1.1|9=278|35=X|49=Coinbase|56=24ab46f784d1b20db435b852086e3250|34=83|50=TEST|52=20250411-01:50:24.871563|369=2|262=83671f6c-e7d6-4990-a146-dc86a70aefdc|268=1|279=0|269=1|278=cf1b3334-372f-4087-86ba-5c48297917a7|83=1597569454|55=BTC-USD|270=3.61|271=0.61971831|60=20250411-01:50:24.869539|10=057|
20250411-01:50:25.361091000 : 8=FIXT.1.1|9=277|35=X|49=Coinbase|56=24ab46f784d1b20db435b852086e3250|34=84|50=TEST|52=20250411-01:50:25.244192|369=2|262=83671f6c-e7d6-4990-a146-dc86a70aefdc|268=1|279=0|269=0|83=1597569455|55=BTC-USD|29004=2.2088955195|60=20250411-01:50:25.243032|40=1|37=21ddb54d-7b66-4d81-9537-094cd6a97bdf|10=174|
20250411-01:50:25.361835000 : 8=FIXT.1.1|9=325|35=X|49=Coinbase|56=24ab46f784d1b20db435b852086e3250|34=85|50=TEST|52=20250411-01:50:25.244199|369=2|262=83671f6c-e7d6-4990-a146-dc86a70aefdc|268=1|279=0|269=2|278=c5b88ea9-605d-4595-ac52-f7c3f08523ba|83=1597569456|55=BTC-USD|270=3.55|271=0.62222409|60=20250411-01:50:25.243032|37=21ddb54d-7b66-4d81-9537-094cd6a97bdf|5797=1|10=072|
20250411-01:50:25.362055000 : 8=FIXT.1.1|9=264|35=X|49=Coinbase|56=24ab46f784d1b20db435b852086e3250|34=86|50=TEST|52=20250411-01:50:25.244202|369=2|262=83671f6c-e7d6-4990-a146-dc86a70aefdc|268=1|279=2|269=0|278=21ddb54d-7b66-4d81-9537-094cd6a97bdf|83=1597569457|55=BTC-USD|60=20250411-01:50:25.243032|58=FILLED|10=182|
20250411-01:50:25.388488000 : 8=FIXT.1.1|9=273|35=X|49=Coinbase|56=24ab46f784d1b20db435b852086e3250|34=87|50=TEST|52=20250411-01:50:25.273412|369=2|262=83671f6c-e7d6-4990-a146-dc86a70aefdc|268=1|279=0|269=1|83=1597569458|55=BTC-USD|271=0.61971831|60=20250411-01:50:25.271336|40=1|37=47592f89-bedb-4d15-8717-f0810586e341|10=035|
20250411-01:50:25.388863000 : 8=FIXT.1.1|9=325|35=X|49=Coinbase|56=24ab46f784d1b20db435b852086e3250|34=88|50=TEST|52=20250411-01:50:25.273419|369=2|262=83671f6c-e7d6-4990-a146-dc86a70aefdc|268=1|279=0|269=2|278=4d60a78e-b39b-420e-b830-bc0f3f4fdde2|83=1597569459|55=BTC-USD|270=3.53|271=0.61971831|60=20250411-01:50:25.271336|37=47592f89-bedb-4d15-8717-f0810586e341|5797=2|10=031|
20250411-01:50:25.389054000 : 8=FIXT.1.1|9=279|35=X|49=Coinbase|56=24ab46f784d1b20db435b852086e3250|34=89|50=TEST|52=20250411-01:50:25.273423|369=2|262=83671f6c-e7d6-4990-a146-dc86a70aefdc|268=1|279=2|269=1|278=47592f89-bedb-4d15-8717-f0810586e341|83=1597569460|55=BTC-USD|271=0.00000000|60=20250411-01:50:25.271336|58=FILLED|10=195|
20250411-01:50:25.476540000 : 8=FIXT.1.1|9=277|35=X|49=Coinbase|56=24ab46f784d1b20db435b852086e3250|34=90|50=TEST|52=20250411-01:50:25.360930|369=2|262=83671f6c-e7d6-4990-a146-dc86a70aefdc|268=1|279=0|269=0|83=1597569461|55=BTC-USD|29004=2.2088955195|60=20250411-01:50:25.359433|40=1|37=d9ba8062-c393-403a-9201-40c4babddcdb|10=236|
20250411-01:50:25.477059000 : 8=FIXT.1.1|9=325|35=X|49=Coinbase|56=24ab46f784d1b20db435b852086e3250|34=91|50=TEST|52=20250411-01:50:25.360941|369=2|262=83671f6c-e7d6-4990-a146-dc86a70aefdc|268=1|279=0|269=2|278=c5b88ea9-605d-4595-ac52-f7c3f08523ba|83=1597569462|55=BTC-USD|270=3.55|271=0.62222409|60=20250411-01:50:25.359433|37=d9ba8062-c393-403a-9201-40c4babddcdb|5797=1|10=129|
20250411-01:50:25.477343000 : 8=FIXT.1.1|9=264|35=X|49=Coinbase|56=24ab46f784d1b20db435b852086e3250|34=92|50=TEST|52=20250411-01:50:25.360944|369=2|262=83671f6c-e7d6-4990-a146-dc86a70aefdc|268=1|279=2|269=0|278=d9ba8062-c393-403a-9201-40c4babddcdb|83=1597569463|55=BTC-USD|60=20250411-01:50:25.359433|58=FILLED|10=001|
20250411-01:50:25.502451000 : 8=FIXT.1.1|9=273|35=X|49=Coinbase|56=24ab46f784d1b20db435b852086e3250|34=93|50=TEST|52=20250411-01:50:25.387440|369=2|262=83671f6c-e7d6-4990-a146-dc86a70aefdc|268=1|279=0|269=1|83=1597569464|55=BTC-USD|271=0.62322946|60=20250411-01:50:25.385553|40=1|37=8da114a5-fc6d-4e04-adf5-3dce63ce2a37|10=140|
20250411-01:50:25.502823000 : 8=FIXT.1.1|9=325|35=X|49=Coinbase|56=24ab46f784d1b20db435b852086e3250|34=94|50=TEST|52=20250411-01:50:25.387452|369=2|262=83671f6c-e7d6-4990-a146-dc86a70aefdc|268=1|279=0|269=2|278=4d60a78e-b39b-420e-b830-bc0f3f4fdde2|83=1597569465|55=BTC-USD|270=3.53|271=0.62322946|60=20250411-01:50:25.385553|37=8da114a5-fc6d-4e04-adf5-3dce63ce2a37|5797=2|10=132|
20250411-01:50:25.502998000 : 8=FIXT.1.1|9=279|35=X|49=Coinbase|56=24ab46f784d1b20db435b852086e3250|34=95|50=TEST|52=20250411-01:50:25.387457|369=2|262=83671f6c-e7d6-4990-a146-dc86a70aefdc|268=1|279=2|269=1|278=8da114a5-fc6d-4e04-adf5-3dce63ce2a37|83=1597569466|55=BTC-USD|271=0.00000000|60=20250411-01:50:25.385553|58=FILLED|10=061|
20250411-01:50:25.530225000 : 8=FIXT.1.1|9=282|35=X|49=Coinbase|56=24ab46f784d1b20db435b852086e3250|34=96|50=TEST|52=20250411-01:50:25.415160|369=2|262=83671f6c-e7d6-4990-a146-dc86a70aefdc|268=1|279=0|269=0|83=1597569467|55=BTC-USD|270=3.81|271=0.62322946|60=20250411-01:50:25.414386|40=2|37=e88245af-b05d-4b24-a149-7448d9971c62|10=238|
20250411-01:50:25.530730000 : 8=FIXT.1.1|9=325|35=X|49=Coinbase|56=24ab46f784d1b20db435b852086e3250|34=97|50=TEST|52=20250411-01:50:25.415167|369=2|262=83671f6c-e7d6-4990-a146-dc86a70aefdc|268=1|279=0|269=2|278=c5b88ea9-605d-4595-ac52-f7c3f08523ba|83=1597569468|55=BTC-USD|270=3.55|271=0.62322946|60=20250411-01:50:25.414386|37=e88245af-b05d-4b24-a149-7448d9971c62|5797=1|10=202|
20250411-01:50:25.530900000 : 8=FIXT.1.1|9=288|35=X|49=Coinbase|56=24ab46f784d1b20db435b852086e3250|34=98|50=TEST|52=20250411-01:50:25.415170|369=2|262=83671f6c-e7d6-4990-a146-dc86a70aefdc|268=1|279=2|269=0|278=e88245af-b05d-4b24-a149-7448d9971c62|83=1597569469|55=BTC-USD|270=3.81|271=0.00000000|60=20250411-01:50:25.414386|58=FILLED|10=151|
20250411-01:50:25.557710000 : 8=FIXT.1.1|9=282|35=X|49=Coinbase|56=24ab46f784d1b20db435b852086e3250|34=99|50=TEST|52=20250411-01:50:25.441648|369=2|262=83671f6c-e7d6-4990-a146-dc86a70aefdc|268=1|279=0|269=0|83=1597569470|55=BTC-USD|270=3.52|271=0.61971831|60=20250411-01:50:25.440144|40=2|37=424290d5-d568-46c5-8597-a26ebd20f14f|10=234|
20250411-01:50:25.557982000 : 8=FIXT.1.1|9=279|35=X|49=Coinbase|56=24ab46f784d1b20db435b852086e3250|34=100|50=TEST|52=20250411-01:50:25.441656|369=2|262=83671f6c-e7d6-4990-a146-dc86a70aefdc|268=1|279=0|269=0|278=424290d5-d568-46c5-8597-a26ebd20f14f|83=1597569471|55=BTC-USD|270=3.52|271=0.61971831|60=20250411-01:50:25.440144|10=114|
20250411-01:50:25.558422000 : 8=FIXT.1.1|9=283|35=X|49=Coinbase|56=24ab46f784d1b20db435b852086e3250|34=101|50=TEST|52=20250411-01:50:25.441658|369=2|262=83671f6c-e7d6-4990-a146-dc86a70aefdc|268=1|279=0|269=0|83=1597569472|55=BTC-USD|270=3.39|271=0.61971831|60=20250411-01:50:25.440144|40=2|37=3f3f0f61-8f53-441f-88fa-9f381b38278f|10=082|
20250411-01:50:25.558697000 : 8=FIXT.1.1|9=279|35=X|49=Coinbase|56=24ab46f784d1b20db435b852086e3250|34=102|50=TEST|52=20250411-01:50:25.441668|369=2|262=83671f6c-e7d6-4990-a146-dc86a70aefdc|268=1|279=0|269=0|278=3f3f0f61-8f53-441f-88fa-9f381b38278f|83=1597569473|55=BTC-USD|270=3.39|271=0.61971831|60=20250411-01:50:25.440144|10=189|
20250411-01:50:25.585435000 : 8=FIXT.1.1|9=283|35=X|49=Coinbase|56=24ab46f784d1b20db435b852086e3250|34=103|50=TEST|52=20250411-01:50:25.470700|369=2|262=83671f6c-e7d6-4990-a146-dc86a70aefdc|268=1|279=0|269=1|83=1597569474|55=BTC-USD|270=3.25|271=0.62322946|60=20250411-01:50:25.469067|40=2|37=b889fc1a-e247-4201-8e09-8e556c44ad14|10=066|
20250411-01:50:25.585730000 : 8=FIXT.1.1|9=326|35=X|49=Coinbase|56=24ab46f784d1b20db435b852086e3250|34=104|50=TEST|52=20250411-01:50:25.470769|369=2|262=83671f6c-e7d6-4990-a146-dc86a70aefdc|268=1|279=0|269=2|278=4d60a78e-b39b-420e-b830-bc0f3f4fdde2|83=1597569475|55=BTC-USD|270=3.53|271=0.62322946|60=20250411-01:50:25.469067|37=b889fc1a-e247-4201-8e09-8e556c44ad14|5797=2|10=166|
20250411-01:50:25.586489000 : 8=FIXT.1.1|9=289|35=X|49=Coinbase|56=24ab46f784d1b20db435b852086e3250|34=105|50=TEST|52=20250411-01:50:25.470778|369=2|262=83671f6c-e7d6-4990-a146-dc86a70aefdc|268=1|279=2|269=1|278=b889fc1a-e247-4201-8e09-8e556c44ad14|83=1597569476|55=BTC-USD|270=3.25|271=0.00000000|60=20250411-01:50:25.469067|58=FILLED|10=249|
20250411-01:50:25.645198000 : 8=FIXT.1.1|9=278|35=X|49=Coinbase|56=24ab46f784d1b20db435b852086e3250|34=106|50=TEST|52=20250411-01:50:25.530262|369=2|262=83671f6c-e7d6-4990-a146-dc86a70aefdc|268=1|279=0|269=0|83=1597569477|55=BTC-USD|29004=2.2088955195|60=20250411-01:50:25.528296|40=1|37=eb45509b-ceca-4f7c-9613-104aab70a4c5|10=045|
20250411-01:50:25.645730000 : 8=FIXT.1.1|9=326|35=X|49=Coinbase|56=24ab46f784d1b20db435b852086e3250|34=107|50=TEST|52=20250411-01:50:25.530354|369=2|262=83671f6c-e7d6-4990-a146-dc86a70aefdc|268=1|279=0|269=2|278=c5b88ea9-605d-4595-ac52-f7c3f08523ba|83=1597569478|55=BTC-USD|270=3.55|271=0.62222409|60=20250411-01:50:25.528296|37=eb45509b-ceca-4f7c-9613-104aab70a4c5|5797=1|10=194|
20250411-01:50:25.645914000 : 8=FIXT.1.1|9=265|35=X|49=Coinbase|56=24ab46f784d1b20db435b852086e3250|34=108|50=TEST|52=20250411-01:50:25.530359|369=2|262=83671f6c-e7d6-4990-a146-dc86a70aefdc|268=1|279=2|269=0|278=eb45509b-ceca-4f7c-9613-104aab70a4c5|83=1597569479|55=BTC-USD|60=20250411-01:50:25.528296|58=FILLED|10=068|
20250411-01:50:25.672973000 : 8=FIXT.1.1|9=274|35=X|49=Coinbase|56=24ab46f784d1b20db435b852086e3250|34=109|50=TEST|52=20250411-01:50:25.557716|369=2|262=83671f6c-e7d6-4990-a146-dc86a70aefdc|268=1|279=0|269=1|83=1597569480|55=BTC-USD|271=0.62322946|60=20250411-01:50:25.556489|40=1|37=f6407d4f-4b0a-4153-bd2f-5c516f21f2e1|10=002|
20250411-01:50:25.673133000 : 8=FIXT.1.1|9=326|35=X|49=Coinbase|56=24ab46f784d1b20db435b852086e3250|34=110|50=TEST|52=20250411-01:50:25.557724|369=2|262=83671f6c-e7d6-4990-a146-dc86a70aefdc|268=1|279=0|269=2|278=4d60a78e-b39b-420e-b830-bc0f3f4fdde2|83=1597569481|55=BTC-USD|270=3.53|271=0.62322946|60=20250411-01:50:25.556489|37=f6407d4f-4b0a-4153-bd2f-5c516f21f2e1|5797=2|10=237|
20250411-01:50:25.673283000 : 8=FIXT.1.1|9=280|35=X|49=Coinbase|56=24ab46f784d1b20db435b852086e3250|34=111|50=TEST|52=20250411-01:50:25.557727|369=2|262=83671f6c-e7d6-4990-a146-dc86a70aefdc|268=1|279=2|269=1|278=f6407d4f-4b0a-4153-bd2f-5c516f21f2e1|83=1597569482|55=BTC-USD|271=0.00000000|60=20250411-01:50:25.556489|58=FILLED|10=155|
20250411-01:51:28.635918000 : 8=FIXT.1.1|9=215|35=A|34=1|49=24ab46f784d1b20db435b852086e3250|52=20250411-01:51:28.627|56=Coinbase|95=44|96=RoB4oyiQY8vqBBRrZBztaeCmNHiEaNZr+jYKdtQYs1g=|98=0|108=30|141=Y|553=24ab46f784d1b20db435b852086e3250|554=akmwnltyfgb|1137=9|10=210|
20250411-01:51:28.892672000 : 8=FIXT.1.1|9=125|35=A|49=Coinbase|56=24ab46f784d1b20db435b852086e3250|34=1|50=TEST|52=20250411-01:51:28.775963|369=1|98=0|108=30|141=Y|1137=9|10=206|
20250411-01:51:30.327332000 : 8=FIXT.1.1|9=178|35=V|34=2|49=24ab46f784d1b20db435b852086e3250|52=20250411-01:51:30.326|56=Coinbase|1128=9|146=1|55=BTC-USD|262=b7f6c79a-636c-490b-8bc5-37cb784406ba|263=1|264=0|267=2|269=0|269=1|10=062|
20250411-01:51:30.753987000 : 8=FIXT.1.1|9=281|35=X|49=Coinbase|56=24ab46f784d1b20db435b852086e3250|34=2|50=TEST|52=20250411-01:51:30.587155|369=2|262=b7f6c79a-636c-490b-8bc5-37cb784406ba|268=1|279=0|269=0|83=1597570783|55=BTC-USD|270=3.48|271=0.61971831|60=20250411-01:51:30.585283|40=2|37=d22f1cd1-1c45-4091-a4e5-9785e88e7c8c|10=230|
20250411-01:51:30.754710000 : 8=FIXT.1.1|9=277|35=X|49=Coinbase|56=24ab46f784d1b20db435b852086e3250|34=3|50=TEST|52=20250411-01:51:30.587167|369=2|262=b7f6c79a-636c-490b-8bc5-37cb784406ba|268=1|279=0|269=0|278=d22f1cd1-1c45-4091-a4e5-9785e88e7c8c|83=1597570784|55=BTC-USD|270=3.48|271=0.61971831|60=20250411-01:51:30.585283|10=083|
20250411-01:51:31.061399000 : 8=FIXT.1.1|9=281|35=X|49=Coinbase|56=24ab46f784d1b20db435b852086e3250|34=4|50=TEST|52=20250411-01:51:30.874714|369=2|262=b7f6c79a-636c-490b-8bc5-37cb784406ba|268=1|279=0|269=0|83=1597570785|55=BTC-USD|270=3.39|271=0.61971831|60=20250411-01:51:30.872417|40=2|37=6199b7ad-4bd0-49de-b1e1-842b7b713130|10=211|
20250411-01:51:31.062083000 : 8=FIXT.1.1|9=277|35=X|49=Coinbase|56=24ab46f784d1b20db435b852086e3250|34=5|50=TEST|52=20250411-01:51:30.874722|369=2|262=b7f6c79a-636c-490b-8bc5-37cb784406ba|268=1|279=0|269=0|278=6199b7ad-4bd0-49de-b1e1-842b7b713130|83=1597570786|55=BTC-USD|270=3.39|271=0.61971831|60=20250411-01:51:30.872417|10=060|
20250411-01:51:31.420857000 : 8=FIXT.1.1|9=281|35=X|49=Coinbase|56=24ab46f784d1b20db435b852086e3250|34=6|50=TEST|52=20250411-01:51:31.302932|369=2|262=b7f6c79a-636c-490b-8bc5-37cb784406ba|268=1|279=0|269=0|83=1597570787|55=BTC-USD|270=3.76|271=0.61971831|60=20250411-01:51:31.301786|40=2|37=ed408743-2c8f-4ab5-af10-1f385b5f824d|10=002|
20250411-01:51:31.422201000 : 8=FIXT.1.1|9=324|35=X|49=Coinbase|56=24ab46f784d1b20db435b852086e3250|34=7|50=TEST|52=20250411-01:51:31.302942|369=2|262=b7f6c79a-636c-490b-8bc5-37cb784406ba|268=1|279=0|269=2|278=c5b88ea9-605d-4595-ac52-f7c3f08523ba|83=1597570788|55=BTC-USD|270=3.55|271=0.61971831|60=20250411-01:51:31.301786|37=ed408743-2c8f-4ab5-af10-1f385b5f824d|5797=1|10=212|
20250411-01:51:31.422595000 : 8=FIXT.1.1|9=287|35=X|49=Coinbase|56=24ab46f784d1b20db435b852086e3250|34=8|50=TEST|52=20250411-01:51:31.302946|369=2|262=b7f6c79a-636c-490b-8bc5-37cb784406ba|268=1|279=2|269=0|278=ed408743-2c8f-4ab5-af10-1f385b5f824d|83=1597570789|55=BTC-USD|270=3.76|271=0.00000000|60=20250411-01:51:31.301786|58=FILLED|10=173|
20250411-01:51:31.477193000 : 8=FIXT.1.1|9=281|35=X|49=Coinbase|56=24ab46f784d1b20db435b852086e3250|34=9|50=TEST|52=20250411-01:51:31.360141|369=2|262=b7f6c79a-636c-490b-8bc5-37cb784406ba|268=1|279=0|269=1|83=1597570790|55=BTC-USD|270=3.25|271=0.61971831|60=20250411-01:51:31.358388|40=2|37=f25ff68b-c495-4819-9ffd-637e0e2bdcbd|10=168|
20250411-01:51:31.477679000 : 8=FIXT.1.1|9=325|35=X|49=Coinbase|56=24ab46f784d1b20db435b852086e3250|34=10|50=TEST|52=20250411-01:51:31.360153|369=2|262=b7f6c79a-636c-490b-8bc5-37cb784406ba|268=1|279=0|269=2|278=4d60a78e-b39b-420e-b830-bc0f3f4fdde2|83=1597570791|55=BTC-USD|270=3.53|271=0.61971831|60=20250411-01:51:31.358388|37=f25ff68b-c495-4819-9ffd-637e0e2bdcbd|5797=2|10=040|
20250411-01:51:31.479139000 : 8=FIXT.1.1|9=288|35=X|49=Coinbase|56=24ab46f784d1b20db435b852086e3250|34=11|50=TEST|52=20250411-01:51:31.360158|369=2|262=b7f6c79a-636c-490b-8bc5-37cb784406ba|268=1|279=2|269=1|278=f25ff68b-c495-4819-9ffd-637e0e2bdcbd|83=1597570792|55=BTC-USD|270=3.25|271=0.00000000|60=20250411-01:51:31.358388|58=FILLED|10=126|
20250411-01:51:31.993515000 : 8=FIXT.1.1|9=282|35=X|49=Coinbase|56=24ab46f784d1b20db435b852086e3250|34=12|50=TEST|52=20250411-01:51:31.876284|369=2|262=b7f6c79a-636c-490b-8bc5-37cb784406ba|268=1|279=0|269=0|83=1597570793|55=BTC-USD|270=3.72|271=0.62322946|60=20250411-01:51:31.874363|40=2|37=b2158320-15ce-4845-9bfd-78595b804235|10=086|
20250411-01:51:31.993975000 : 8=FIXT.1.1|9=325|35=X|49=Coinbase|56=24ab46f784d1b20db435b852086e3250|34=13|50=TEST|52=20250411-01:51:31.876300|369=2|262=b7f6c79a-636c-490b-8bc5-37cb784406ba|268=1|279=0|269=2|278=c5b88ea9-605d-4595-ac52-f7c3f08523ba|83=1597570794|55=BTC-USD|270=3.55|271=0.62322946|60=20250411-01:51:31.874363|37=b2158320-15ce-4845-9bfd-78595b804235|5797=1|10=032|
20250411-01:51:31.994167000 : 8=FIXT.1.1|9=288|35=X|49=Coinbase|56=24ab46f784d1b20db435b852086e3250|34=14|50=TEST|52=20250411-01:51:31.876311|369=2|262=b7f6c79a-636c-490b-8bc5-37cb784406ba|268=1|279=2|269=0|278=b2158320-15ce-4845-9bfd-78595b804235|83=1597570795|55=BTC-USD|270=3.72|271=0.00000000|60=20250411-01:51:31.874363|58=FILLED|10=245|
20250411-01:51:31.995410000 : 8=FIXT.1.1|9=282|35=X|49=Coinbase|56=24ab46f784d1b20db435b852086e3250|34=15|50=TEST|52=20250411-01:51:31.876326|369=2|262=b7f6c79a-636c-490b-8bc5-37cb784406ba|268=1|279=0|269=0|83=1597570796|55=BTC-USD|270=3.71|271=0.62322946|60=20250411-01:51:31.874363|40=2|37=586ab649-8c43-441e-9f02-05b0022e616b|10=120|
20250411-01:51:31.995620000 : 8=FIXT.1.1|9=325|35=X|49=Coinbase|56=24ab46f784d1b20db435b852086e3250|34=16|50=TEST|52=20250411-01:51:31.876333|369=2|262=b7f6c79a-636c-490b-8bc5-37cb784406ba|268=1|279=0|269=2|278=c5b88ea9-605d-4595-ac52-f7c3f08523ba|83=1597570797|55=BTC-USD|270=3.55|271=0.62322946|60=20250411-01:51:31.874363|37=586ab649-8c43-441e-9f02-05b0022e616b|5797=1|10=076|
20250411-01:51:31.996101000 : 8=FIXT.1.1|9=288|35=X|49=Coinbase|56=24ab46f784d1b20db435b852086e3250|34=17|50=TEST|52=20250411-01:51:31.876337|369=2|262=b7f6c79a-636c-490b-8bc5-37cb784406ba|268=1|279=2|269=0|278=586ab649-8c43-441e-9f02-05b0022e616b|83=1597570798|55=BTC-USD|270=3.71|271=0.00000000|60=20250411-01:51:31.874363|58=FILLED|10=034|
20250411-01:51:32.113673000 : 8=FIXT.1.1|9=282|35=X|49=Coinbase|56=24ab46f784d1b20db435b852086e3250|34=18|50=TEST|52=20250411-01:51:31.988759|369=2|262=b7f6c79a-636c-490b-8bc5-37cb784406ba|268=1|279=0|269=1|83=1597570799|55=BTC-USD|270=3.32|271=0.62322946|60=20250411-01:51:31.987148|40=2|37=e72e5333-b8e7-4502-a5bb-ac25d84315f1|10=030|
20250411-01:51:32.120081000 : 8=FIXT.1.1|9=325|35=X|49=Coinbase|56=24ab46f784d1b20db435b852086e3250|34=19|50=TEST|52=20250411-01:51:31.988765|369=2|262=b7f6c79a-636c-490b-8bc5-37cb784406ba|268=1|279=0|269=2|278=4d60a78e-b39b-420e-b830-bc0f3f4fdde2|83=1597570800|55=BTC-USD|270=3.53|271=0.62322946|60=20250411-01:51:31.987148|37=e72e5333-b8e7-4502-a5bb-ac25d84315f1|5797=2|10=096|
20250411-01:51:32.152923000 : 8=FIXT.1.1|9=288|35=X|49=Coinbase|56=24ab46f784d1b20db435b852086e3250|34=20|50=TEST|52=20250411-01:51:31.988891|369=2|262=b7f6c79a-636c-490b-8bc5-37cb784406ba|268=1|279=2|269=1|278=e72e5333-b8e7-4502-a5bb-ac25d84315f1|83=1597570801|55=BTC-USD|270=3.32|271=0.00000000|60=20250411-01:51:31.987148|58=FILLED|10=168|
20250411-01:51:32.154283000 : 8=FIXT.1.1|9=282|35=X|49=Coinbase|56=24ab46f784d1b20db435b852086e3250|34=21|50=TEST|52=20250411-01:51:31.988895|369=2|262=b7f6c79a-636c-490b-8bc5-37cb784406ba|268=1|279=0|269=1|83=1597570802|55=BTC-USD|270=3.18|271=0.62322946|60=20250411-01:51:31.987148|40=2|37=8aa9c514-2b9a-4af6-9fbb-4322dbf403bd|10=205|
20250411-01:51:32.154587000 : 8=FIXT.1.1|9=325|35=X|49=Coinbase|56=24ab46f784d1b20db435b852086e3250|34=22|50=TEST|52=20250411-01:51:31.988901|369=2|262=b7f6c79a-636c-490b-8bc5-37cb784406ba|268=1|279=0|269=2|278=4d60a78e-b39b-420e-b830-bc0f3f4fdde2|83=1597570803|55=BTC-USD|270=3.53|271=0.62322946|60=20250411-01:51:31.987148|37=8aa9c514-2b9a-4af6-9fbb-4322dbf403bd|5797=2|10=020|
20250411-01:51:32.155817000 : 8=FIXT.1.1|9=288|35=X|49=Coinbase|56=24ab46f784d1b20db435b852086e3250|34=23|50=TEST|52=20250411-01:51:31.988905|369=2|262=b7f6c79a-636c-490b-8bc5-37cb784406ba|268=1|279=2|269=1|278=8aa9c514-2b9a-4af6-9fbb-4322dbf403bd|83=1597570804|55=BTC-USD|270=3.18|271=0.00000000|60=20250411-01:51:31.987148|58=FILLED|10=109|
20250411-01:51:32.156813000 : 8=FIXT.1.1|9=282|35=X|49=Coinbase|56=24ab46f784d1b20db435b852086e3250|34=24|50=TEST|52=20250411-01:51:32.016710|369=2|262=b7f6c79a-636c-490b-8bc5-37cb784406ba|268=1|279=0|269=1|83=1597570805|55=BTC-USD|270=3.57|271=0.62322946|60=20250411-01:51:32.015525|40=2|37=3008d95d-6e0e-48d7-975d-a1044512985d|10=108|
20250411-01:51:32.157094000 : 8=FIXT.1.1|9=278|35=X|49=Coinbase|56=24ab46f784d1b20db435b852086e3250|34=25|50=TEST|52=20250411-01:51:32.016717|369=2|262=b7f6c79a-636c-490b-8bc5-37cb784406ba|268=1|279=0|269=1|278=3008d95d-6e0e-48d7-975d-a1044512985d|83=1597570806|55=BTC-USD|270=3.57|271=0.62322946|60=20250411-01:51:32.015525|10=221|
20250411-01:51:32.415245000 : 8=FIXT.1.1|9=282|35=X|49=Coinbase|56=24ab46f784d1b20db435b852086e3250|34=26|50=TEST|52=20250411-01:51:32.298623|369=2|262=b7f6c79a-636c-490b-8bc5-37cb784406ba|268=1|279=0|269=0|83=1597570807|55=BTC-USD|270=3.49|271=0.62322946|60=20250411-01:51:32.297236|40=2|37=e4e84565-c0c6-4c05-b4bc-dbfc32459be3|10=154|
20250411-01:51:32.416116000 : 8=FIXT.1.1|9=278|35=X|49=Coinbase|56=24ab46f784d1b20db435b852086e3250|34=27|50=TEST|52=20250411-01:51:32.298636|369=2|262=b7f6c79a-636c-490b-8bc5-37cb784406ba|268=1|279=0|269=0|278=e4e84565-c0c6-4c05-b4bc-dbfc32459be3|83=1597570808|55=BTC-USD|270=3.49|271=0.62322946|60=20250411-01:51:32.297236|10=008|
20250411-01:51:33.212700000 : 8=FIXT.1.1|9=282|35=X|49=Coinbase|56=24ab46f784d1b20db435b852086e3250|34=28|50=TEST|52=20250411-01:51:33.018061|369=2|262=b7f6c79a-636c-490b-8bc5-37cb784406ba|268=1|279=0|269=1|83=1597570809|55=BTC-USD|270=3.32|271=0.62322946|60=20250411-01:51:33.016614|40=2|37=2733d29a-2a07-4574-8ec5-6e106b8ef2be|10=245|
20250411-01:51:33.213187000 : 8=FIXT.1.1|9=325|35=X|49=Coinbase|56=24ab46f784d1b20db435b852086e3250|34=29|50=TEST|52=20250411-01:51:33.018137|369=2|262=b7f6c79a-636c-490b-8bc5-37cb784406ba|268=1|279=0|269=2|278=4d60a78e-b39b-420e-b830-bc0f3f4fdde2|83=1597570810|55=BTC-USD|270=3.53|271=0.62322946|60=20250411-01:51:33.016614|37=2733d29a-2a07-4574-8ec5-6e106b8ef2be|5797=2|10=071|
20250411-01:51:33.213772000 : 8=FIXT.1.1|9=288|35=X|49=Coinbase|56=24ab46f784d1b20db435b852086e3250|34=30|50=TEST|52=20250411-01:51:33.018145|369=2|262=b7f6c79a-636c-490b-8bc5-37cb784406ba|268=1|279=2|269=1|278=2733d29a-2a07-4574-8ec5-6e106b8ef2be|83=1597570811|55=BTC-USD|270=3.32|271=0.00000000|60=20250411-01:51:33.016614|58=FILLED|10=142|
20250411-01:51:33.215114000 : 8=FIXT.1.1|9=282|35=X|49=Coinbase|56=24ab46f784d1b20db435b852086e3250|34=31|50=TEST|52=20250411-01:51:33.018185|369=2|262=b7f6c79a-636c-490b-8bc5-37cb784406ba|268=1|279=0|269=1|83=1597570812|55=BTC-USD|270=3.19|271=0.62322946|60=20250411-01:51:33.016614|40=2|37=1bf2850e-307b-4e32-8fa8-2f2ee005ed87|10=034|
20250411-01:51:33.215346000 : 8=FIXT.1.1|9=325|35=X|49=Coinbase|56=24ab46f784d1b20db435b852086e3250|34=32|50=TEST|52=20250411-01:51:33.018190|369=2|262=b7f6c79a-636c-490b-8bc5-37cb784406ba|268=1|279=0|269=2|278=4d60a78e-b39b-420e-b830-bc0f3f4fdde2|83=1597570813|55=BTC-USD|270=3.53|271=0.62322946|60=20250411-01:51:33.016614|37=1bf2850e-307b-4e32-8fa8-2f2ee005ed87|5797=2|10=112|
20250411-01:51:33.217560000 : 8=FIXT.1.1|9=288|35=X|49=Coinbase|56=24ab46f784d1b20db435b852086e3250|34=33|50=TEST|52=20250411-01:51:33.018192|369=2|262=b7f6c79a-636c-490b-8bc5-37cb784406ba|268=1|279=2|269=1|278=1bf2850e-307b-4e32-8fa8-2f2ee005ed87|83=1597570814|55=BTC-USD|270=3.19|271=0.00000000|60=20250411-01:51:33.016614|58=FILLED|10=200|
20250411-01:51:33.333976000 : 8=FIXT.1.1|9=282|35=X|49=Coinbase|56=24ab46f784d1b20db435b852086e3250|34=34|50=TEST|52=20250411-01:51:33.130858|369=2|262=b7f6c79a-636c-490b-8bc5-37cb784406ba|268=1|279=0|269=0|83=1597570815|55=BTC-USD|270=3.72|271=0.62322946|60=20250411-01:51:33.128973|40=2|37=1255a79e-3ea1-4ecb-913a-238263ec042c|10=247|
20250411-01:51:33.334487000 : 8=FIXT.1.1|9=325|35=X|49=Coinbase|56=24ab46f784d1b20db435b852086e3250|34=35|50=TEST|52=20250411-01:51:33.130869|369=2|262=b7f6c79a-636c-490b-8bc5-37cb784406ba|268=1|279=0|269=2|278=c5b88ea9-605d-4595-ac52-f7c3f08523ba|83=1597570816|55=BTC-USD|270=3.55|271=0.62322946|60=20250411-01:51:33.128973|37=1255a79e-3ea1-4ecb-913a-238263ec042c|5797=1|10=206|
20250411-01:51:33.334666000 : 8=FIXT.1.1|9=288|35=X|49=Coinbase|56=24ab46f784d1b20db435b852086e3250|34=36|50=TEST|52=20250411-01:51:33.130874|369=2|262=b7f6c79a-636c-490b-8bc5-37cb784406ba|268=1|279=2|269=0|278=1255a79e-3ea1-4ecb-913a-238263ec042c|83=1597570817|55=BTC-USD|270=3.72|271=0.00000000|60=20250411-01:51:33.128973|58=FILLED|10=157|
20250411-01:51:33.336286000 : 8=FIXT.1.1|9=282|35=X|49=Coinbase|56=24ab46f784d1b20db435b852086e3250|34=37|50=TEST|52=20250411-01:51:33.130878|369=2|262=b7f6c79a-636c-490b-8bc5-37cb784406ba|268=1|279=0|269=0|83=1597570818|55=BTC-USD|270=3.84|271=0.62322946|60=20250411-01:51:33.128973|40=2|37=c11b677b-ccc0-4a63-9b81-08d32aa11cf4|10=090|
20250411-01:51:33.336648000 : 8=FIXT.1.1|9=325|35=X|49=Coinbase|56=24ab46f784d1b20db435b852086e3250|34=38|50=TEST|52=20250411-01:51:33.130880|369=2|262=b7f6c79a-636c-490b-8bc5-37cb784406ba|268=1|279=0|269=2|278=c5b88ea9-605d-4595-ac52-f7c3f08523ba|83=1597570819|55=BTC-USD|270=3.55|271=0.62322946|60=20250411-01:51:33.128973|37=c11b677b-ccc0-4a63-9b81-08d32aa11cf4|5797=1|10=037|
20250411-01:51:33.337128000 : 8=FIXT.1.1|9=288|35=X|49=Coinbase|56=24ab46f784d1b20db435b852086e3250|34=39|50=TEST|52=20250411-01:51:33.130882|369=2|262=b7f6c79a-636c-490b-8bc5-37cb784406ba|268=1|279=2|269=0|278=c11b677b-ccc0-4a63-9b81-08d32aa11cf4|83=1597570820|55=BTC-USD|270=3.84|271=0.00000000|60=20250411-01:51:33.128973|58=FILLED|10=244|
20250411-01:51:33.519580000 : 8=FIXT.1.1|9=282|35=X|49=Coinbase|56=24ab46f784d1b20db435b852086e3250|34=40|50=TEST|52=20250411-01:51:33.359921|369=2|262=b7f6c79a-636c-490b-8bc5-37cb784406ba|268=1|279=0|269=0|83=1597570821|55=BTC-USD|270=3.79|271=0.61971831|60=20250411-01:51:33.358865|40=2|37=1cec2c6e-a6c2-49f7-9a2e-867d8aea0307|10=166|
20250411-01:51:33.520267000 : 8=FIXT.1.1|9=325|35=X|49=Coinbase|56=24ab46f784d1b20db435b852086e3250|34=41|50=TEST|52=20250411-01:51:33.359932|369=2|262=b7f6c79a-636c-490b-8bc5-37cb784406ba|268=1|279=0|269=2|278=c5b88ea9-605d-4595-ac52-f7c3f08523ba|83=1597570822|55=BTC-USD|270=3.55|271=0.61971831|60=20250411-01:51:33.358865|37=1cec2c6e-a6c2-49f7-9a2e-867d8aea0307|5797=1|10=118|
20250411-01:51:33.520512000 : 8=FIXT.1.1|9=288|35=X|49=Coinbase|56=24ab46f784d1b20db435b852086e3250|34=42|50=TEST|52=20250411-01:51:33.359957|369=2|262=b7f6c79a-636c-490b-8bc5-37cb784406ba|268=1|279=2|269=0|278=1cec2c6e-a6c2-49f7-9a2e-867d8aea0307|83=1597570823|55=BTC-USD|270=3.79|271=0.00000000|60=20250411-01:51:33.358865|58=FILLED|10=085|
20250411-01:51:33.533038000 : 8=FIXT.1.1|9=281|35=X|49=Coinbase|56=24ab46f784d1b20db435b852086e3250|34=43|50=TEST|52=20250411-01:51:33.417002|369=2|262=b7f6c79a-636c-490b-8bc5-37cb784406ba|268=1|279=0|269=1|83=1597570824|55=BTC-USD|270=3.3|271=0.61971831|60=20250411-01:51:33.415774|40=2|37=ff143297-ffb2-4137-bd8b-b75d195f05df|10=047|
20250411-01:51:33.533299000 : 8=FIXT.1.1|9=325|35=X|49=Coinbase|56=24ab46f784d1b20db435b852086e3250|34=44|50=TEST|52=20250411-01:51:33.417114|369=2|262=b7f6c79a-636c-490b-8bc5-37cb784406ba|268=1|279=0|269=2|278=4d60a78e-b39b-420e-b830-bc0f3f4fdde2|83=1597570825|55=BTC-USD|270=3.53|271=0.61971831|60=20250411-01:51:33.415774|37=ff143297-ffb2-4137-bd8b-b75d195f05df|5797=2|10=189|
20250411-01:51:33.534234000 : 8=FIXT.1.1|9=287|35=X|49=Coinbase|56=24ab46f784d1b20db435b852086e3250|34=45|50=TEST|52=20250411-01:51:33.417170|369=2|262=b7f6c79a-636c-490b-8bc5-37cb784406ba|268=1|279=2|269=1|278=ff143297-ffb2-4137-bd8b-b75d195f05df|83=1597570826|55=BTC-USD|270=3.3|271=0.00000000|60=20250411-01:51:33.415774|58=FILLED|10=219|
20250411-01:51:33.706771000 : 8=FIXT.1.1|9=282|35=X|49=Coinbase|56=24ab46f784d1b20db435b852086e3250|34=46|50=TEST|52=20250411-01:51:33.589609|369=2|262=b7f6c79a-636c-490b-8bc5-37cb784406ba|268=1|279=0|269=1|83=1597570827|55=BTC-USD|270=3.21|271=0.62322946|60=20250411-01:51:33.588412|40=2|37=146c543c-1330-479b-a6f7-a05707358dc7|10=128|
20250411-01:51:33.707318000 : 8=FIXT.1.1|9=325|35=X|49=Coinbase|56=24ab46f784d1b20db435b852086e3250|34=47|50=TEST|52=20250411-01:51:33.589618|369=2|262=b7f6c79a-636c-490b-8bc5-37cb784406ba|268=1|279=0|269=2|278=4d60a78e-b39b-420e-b830-bc0f3f4fdde2|83=1597570828|55=BTC-USD|270=3.53|271=0.62322946|60=20250411-01:51:33.588412|37=146c543c-1330-479b-a6f7-a05707358dc7|5797=2|10=217|
20250411-01:51:33.710509000 : 8=FIXT.1.1|9=288|35=X|49=Coinbase|56=24ab46f784d1b20db435b852086e3250|34=48|50=TEST|52=20250411-01:51:33.589622|369=2|262=b7f6c79a-636c-490b-8bc5-37cb784406ba|268=1|279=2|269=1|278=146c543c-1330-479b-a6f7-a05707358dc7|83=1597570829|55=BTC-USD|270=3.21|271=0.00000000|60=20250411-01:51:33.588412|58=FILLED|10=035|
20250411-01:51:33.761506000 : 8=FIXT.1.1|9=282|35=X|49=Coinbase|56=24ab46f784d1b20db435b852086e3250|34=49|50=TEST|52=20250411-01:51:33.644116|369=2|262=b7f6c79a-636c-490b-8bc5-37cb784406ba|268=1|279=0|269=0|83=1597570830|55=BTC-USD|270=3.78|271=0.62322946|60=20250411-01:51:33.642750|40=2|37=7c705463-0e9e-49c3-9252-05aba626da00|10=156|
20250411-01:51:33.762014000 : 8=FIXT.1.1|9=325|35=X|49=Coinbase|56=24ab46f784d1b20db435b852086e3250|34=50|50=TEST|52=20250411-01:51:33.644125|369=2|262=b7f6c79a-636c-490b-8bc5-37cb784406ba|268=1|279=0|269=2|278=c5b88ea9-605d-4595-ac52-f7c3f08523ba|83=1597570831|55=BTC-USD|270=3.55|271=0.62322946|60=20250411-01:51:33.642750|37=7c705463-0e9e-49c3-9252-05aba626da00|5797=1|10=098|
20250411-01:51:33.762142000 : 8=FIXT.1.1|9=288|35=X|49=Coinbase|56=24ab46f784d1b20db435b852086e3250|34=51|50=TEST|52=20250411-01:51:33.644129|369=2|262=b7f6c79a-636c-490b-8bc5-37cb784406ba|268=1|279=2|269=0|278=7c705463-0e9e-49c3-9252-05aba626da00|83=1597570832|55=BTC-USD|270=3.78|271=0.00000000|60=20250411-01:51:33.642750|58=FILLED|10=063|
20250411-01:51:34.281406000 : 8=FIXT.1.1|9=282|35=X|49=Coinbase|56=24ab46f784d1b20db435b852086e3250|34=52|50=TEST|52=20250411-01:51:34.162483|369=2|262=b7f6c79a-636c-490b-8bc5-37cb784406ba|268=1|279=0|269=0|83=1597570833|55=BTC-USD|270=3.74|271=0.61971831|60=20250411-01:51:34.161077|40=2|37=485e585e-fc3c-45f0-97ff-22db49ae3417|10=069|
20250411-01:51:34.282028000 : 8=FIXT.1.1|9=325|35=X|49=Coinbase|56=24ab46f784d1b20db435b852086e3250|34=53|50=TEST|52=20250411-01:51:34.162494|369=2|262=b7f6c79a-636c-490b-8bc5-37cb784406ba|268=1|279=0|269=2|278=c5b88ea9-605d-4595-ac52-f7c3f08523ba|83=1597570834|55=BTC-USD|270=3.55|271=0.61971831|60=20250411-01:51:34.161077|37=485e585e-fc3c-45f0-97ff-22db49ae3417|5797=1|10=026|
