20250411-04:25:43.299306000 : 8=FIXT.1.1|9=215|35=A|34=1|49=24ab46f784d1b20db435b852086e3250|52=20250411-04:25:43.274|56=Coinbase|95=44|96=w4ldiVuBuXQX1AN8bzzNJ7kV7c34tEXyXZ9mojA3yFg=|98=0|108=30|141=Y|553=24ab46f784d1b20db435b852086e3250|554=akmwnltyfgb|1137=9|10=078|
20250411-04:26:03.901708000 : 8=FIXT.1.1|9=215|35=A|34=1|49=24ab46f784d1b20db435b852086e3250|52=20250411-04:26:03.897|56=Coinbase|95=44|96=wp0RA8ZK+b1j0/JvlFGQRfxIgV1GDntYWRzCHczu+w0=|98=0|108=30|141=Y|553=24ab46f784d1b20db435b852086e3250|554=akmwnltyfgb|1137=9|10=210|
20250411-04:31:02.568338000 : 8=FIXT.1.1|9=229|35=A|34=1|49=24ab46f784d1b20db435b852086e3250|52=20250411-04:31:02.558|56=Coinbase|95=44|96=aEMEHGOg1njE+CQcNeLP8Lb2pTNxN5RZo7Ib6W+LOGY=|98=0|108=30|141=Y|553=24ab46f784d1b20db435b852086e3250|554=akmwnltyfgb|1137=9|8013=Y|9406=N|10=200|
20250411-04:31:32.545405000 : 8=FIXT.1.1|9=222|35=A|34=1|49=24ab46f784d1b20db435b852086e3250|52=20250411-04:31:32.536|56=Coinbase|95=44|96=l4F4/mIgmeVyJCCEzfShtBuz4WgefmGw4eROHLGooSA=|98=0|108=30|141=Y|553=24ab46f784d1b20db435b852086e3250|554=akmwnltyfgb|1137=9|8013=Y|10=219|
20250411-04:31:53.220605000 : 8=FIXT.1.1|9=222|35=A|34=1|49=24ab46f784d1b20db435b852086e3250|52=20250411-04:31:53.209|56=Coinbase|95=44|96=iGeZzoVHV6aTXgmPnpb/a3RJPCYxTt/2CROndqle1gk=|98=0|108=30|141=Y|553=24ab46f784d1b20db435b852086e3250|554=akmwnltyfgb|1137=9|8013=Y|10=234|
20250411-04:38:30.848055000 : 8=FIXT.1.1|9=222|35=A|34=1|49=24ab46f784d1b20db435b852086e3250|52=20250411-04:38:30.839|56=Coinbase|95=44|96=mTREztMLkWLgMV0z7uiPCEXiVjEXG1lIBFP8xLay8bY=|98=0|108=30|141=Y|553=24ab46f784d1b20db435b852086e3250|554=akmwnltyfgb|1137=9|8013=Y|10=149|
20250411-04:39:25.707496000 : 8=FIXT.1.1|9=222|35=A|34=1|49=24ab46f784d1b20db435b852086e3250|52=20250411-04:39:25.698|56=Coinbase|95=44|96=/C92/n4mFNW++iJcl78Ac17Da+KmyakD9KL0QpX+rfs=|98=0|108=30|141=Y|553=24ab46f784d1b20db435b852086e3250|554=akmwnltyfgb|1137=9|8013=Y|10=028|
20250411-04:39:45.431517000 : 8=FIXT.1.1|9=222|35=A|34=1|49=24ab46f784d1b20db435b852086e3250|52=20250411-04:39:45.407|56=Coinbase|95=44|96=ipfM7BfCF52TrCkQ7L9zZENeUKjmPXBaAri75hWdmbw=|98=0|108=30|141=Y|553=24ab46f784d1b20db435b852086e3250|554=akmwnltyfgb|1137=9|8013=Y|10=116|
20250411-04:42:57.938851000 : 8=FIXT.1.1|9=222|35=A|34=1|49=24ab46f784d1b20db435b852086e3250|52=20250411-04:42:57.926|56=Coinbase|95=44|96=H2AQN4tqj9qVapx+UuC/mEJ7kDM5CCzusB5bGLkuoi8=|98=0|108=30|141=Y|553=24ab46f784d1b20db435b852086e3250|554=akmwnltyfgb|1137=9|8013=Y|10=081|
20250411-04:43:17.642533000 : 8=FIXT.1.1|9=222|35=A|34=1|49=24ab46f784d1b20db435b852086e3250|52=20250411-04:43:17.632|56=Coinbase|95=44|96=8PlZjLbFMmHtE0CUjcepoIh17dD6PHiRBPMWNql2ZO8=|98=0|108=30|141=Y|553=24ab46f784d1b20db435b852086e3250|554=akmwnltyfgb|1137=9|8013=Y|10=017|
20250411-04:43:37.773485000 : 8=FIXT.1.1|9=222|35=A|34=1|49=24ab46f784d1b20db435b852086e3250|52=20250411-04:43:37.759|56=Coinbase|95=44|96=fUzytD6fM3MTXNHppUc8xl561Yua9I1pdNpjpofLmbc=|98=0|108=30|141=Y|553=24ab46f784d1b20db435b852086e3250|554=akmwnltyfgb|1137=9|8013=Y|10=033|
20250411-04:43:57.948469000 : 8=FIXT.1.1|9=222|35=A|34=1|49=24ab46f784d1b20db435b852086e3250|52=20250411-04:43:57.908|56=Coinbase|95=44|96=gNK1ofQcbIAy0YGi9QDWX7foU9Cb5RRVTFKVQGuRHhw=|98=0|108=30|141=Y|553=24ab46f784d1b20db435b852086e3250|554=akmwnltyfgb|1137=9|8013=Y|10=033|
20250411-04:44:17.763227000 : 8=FIXT.1.1|9=222|35=A|34=1|49=24ab46f784d1b20db435b852086e3250|52=20250411-04:44:17.759|56=Coinbase|95=44|96=+fD6Pgoo4HgIuITFPFvyQc4naZbvacUzbPUKWsUke1w=|98=0|108=30|141=Y|553=24ab46f784d1b20db435b852086e3250|554=akmwnltyfgb|1137=9|8013=Y|10=044|
20250411-04:49:44.898060000 : 8=FIXT.1.1|9=222|35=A|34=1|49=24ab46f784d1b20db435b852086e3250|52=20250411-04:49:44.889|56=Coinbase|95=44|96=/6vC1j16BU5XEGplPMDPrCXthIZFFs2M8GNCzUfEWuc=|98=0|108=30|141=Y|553=24ab46f784d1b20db435b852086e3250|554=akmwnltyfgb|1137=9|8013=Y|10=199|
20250411-04:50:04.745487000 : 8=FIXT.1.1|9=222|35=A|34=1|49=24ab46f784d1b20db435b852086e3250|52=20250411-04:50:04.736|56=Coinbase|95=44|96=EC7RBcA+9S/E3zPNUAiyJrhSTtUAu16iRk6c03cJEVk=|98=0|108=30|141=Y|553=24ab46f784d1b20db435b852086e3250|554=akmwnltyfgb|1137=9|8013=Y|10=125|
20250411-05:18:45.422503000 : 8=FIXT.1.1|9=222|35=A|34=1|49=24ab46f784d1b20db435b852086e3250|52=20250411-05:18:45.409|56=Coinbase|95=44|96=wRfIywfC1CFPUhwq7OjX8SIyBaOUWD/XmWQiHcBfsdY=|98=0|108=30|141=Y|553=24ab46f784d1b20db435b852086e3250|554=akmwnltyfgb|1137=9|8013=Y|10=216|
20250411-05:19:06.098612000 : 8=FIXT.1.1|9=222|35=A|34=1|49=24ab46f784d1b20db435b852086e3250|52=20250411-05:19:06.091|56=Coinbase|95=44|96=XPCPYcAhjmoz2QMdrqlTMwNHs25v+nhKhAZT+/ehUy4=|98=0|108=30|141=Y|553=24ab46f784d1b20db435b852086e3250|554=akmwnltyfgb|1137=9|8013=Y|10=193|
20250411-05:19:25.988637000 : 8=FIXT.1.1|9=222|35=A|34=1|49=24ab46f784d1b20db435b852086e3250|52=20250411-05:19:25.959|56=Coinbase|95=44|96=tAT7pxQQ9CA2a2AFBP9x7/rf/o2b0r70vTpJdr2dilA=|98=0|108=30|141=Y|553=24ab46f784d1b20db435b852086e3250|554=akmwnltyfgb|1137=9|8013=Y|10=183|
20250411-06:19:04.040315000 : 8=FIXT.1.1|9=222|35=A|34=1|49=24ab46f784d1b20db435b852086e3250|52=20250411-06:19:04.028|56=Coinbase|95=44|96=Zm9et76VLPbs0deV5euC47BbhCNCHcJhY5p/pRA+fZE=|98=0|108=30|141=Y|553=24ab46f784d1b20db435b852086e3250|554=akmwnltyfgb|1137=9|8013=Y|10=201|
20250411-06:19:04.294031000 : 8=FIXT.1.1|9=125|35=A|49=Coinbase|56=24ab46f784d1b20db435b852086e3250|34=1|50=TEST|52=20250411-06:19:04.304445|369=1|98=0|108=30|141=Y|1137=9|10=192|
20250411-06:19:04.298889000 : 8=FIXT.1.1|9=129|35=1|34=2|49=24ab46f784d1b20db435b852086e3250|52=20250411-06:19:04.298|56=Coinbase|112=test-2374086d-d379-472d-9ca7-ea8ff033d907|10=140|
20250411-06:19:04.524901000 : 8=FIXT.1.1|9=146|35=0|49=Coinbase|56=24ab46f784d1b20db435b852086e3250|34=2|50=TEST|52=20250411-06:19:04.534726|369=1|112=test-2374086d-d379-472d-9ca7-ea8ff033d907|10=022|
20250411-06:19:10.803332000 : 8=FIXT.1.1|9=83|35=5|34=3|49=24ab46f784d1b20db435b852086e3250|52=20250411-06:19:10.802|56=Coinbase|10=111|
20250411-06:19:11.034355000 : 8=FIXT.1.1|9=117|35=5|49=Coinbase|56=24ab46f784d1b20db435b852086e3250|34=3|50=TEST|52=20250411-06:19:11.040119|369=2|58=CLIENT_LOGOUT|10=203|
20250411-06:19:30.592644000 : 8=FIXT.1.1|9=222|35=A|34=1|49=24ab46f784d1b20db435b852086e3250|52=20250411-06:19:30.581|56=Coinbase|95=44|96=uyx0Kx9noqtXNPBLbx98Rtc5d1eX2mWs7HLOjO+/3DU=|98=0|108=30|141=Y|553=24ab46f784d1b20db435b852086e3250|554=akmwnltyfgb|1137=9|8013=Y|10=075|
20250411-06:19:30.849753000 : 8=FIXT.1.1|9=125|35=A|49=Coinbase|56=24ab46f784d1b20db435b852086e3250|34=1|50=TEST|52=20250411-06:19:30.856654|369=1|98=0|108=30|141=Y|1137=9|10=205|
20250411-06:19:30.854071000 : 8=FIXT.1.1|9=129|35=1|34=2|49=24ab46f784d1b20db435b852086e3250|52=20250411-06:19:30.853|56=Coinbase|112=test-82c4b42f-55b8-4ce6-b2f6-19ad82c2e082|10=216|
20250411-06:19:31.083598000 : 8=FIXT.1.1|9=146|35=0|49=Coinbase|56=24ab46f784d1b20db435b852086e3250|34=2|50=TEST|52=20250411-06:19:31.092353|369=1|112=test-82c4b42f-55b8-4ce6-b2f6-19ad82c2e082|10=097|
20250411-06:19:32.531455000 : 8=FIXT.1.1|9=83|35=5|34=3|49=24ab46f784d1b20db435b852086e3250|52=20250411-06:19:32.530|56=Coinbase|10=113|
20250411-06:19:32.767392000 : 8=FIXT.1.1|9=117|35=5|49=Coinbase|56=24ab46f784d1b20db435b852086e3250|34=3|50=TEST|52=20250411-06:19:32.769362|369=2|58=CLIENT_LOGOUT|10=224|
20250411-07:31:29.992893000 : 8=FIXT.1.1|9=222|35=A|34=1|49=24ab46f784d1b20db435b852086e3250|52=20250411-07:31:29.982|56=Coinbase|95=44|96=hw3ZtowJPYebsyzNIDlnVe0XBadpn1rv3Pv5a+xRCi8=|98=0|108=30|141=Y|553=24ab46f784d1b20db435b852086e3250|554=akmwnltyfgb|1137=9|8013=Y|10=098|
20250411-07:31:30.245297000 : 8=FIXT.1.1|9=125|35=A|49=Coinbase|56=24ab46f784d1b20db435b852086e3250|34=1|50=TEST|52=20250411-07:31:30.145314|369=1|98=0|108=30|141=Y|1137=9|10=184|
20250411-07:31:30.250649000 : 8=FIXT.1.1|9=129|35=1|34=2|49=24ab46f784d1b20db435b852086e3250|52=20250411-07:31:30.250|56=Coinbase|112=test-50247620-af80-4926-a645-62aa27773fdf|10=010|
20250411-07:31:30.550530000 : 8=FIXT.1.1|9=146|35=0|49=Coinbase|56=24ab46f784d1b20db435b852086e3250|34=2|50=TEST|52=20250411-07:31:30.377792|369=1|112=test-50247620-af80-4926-a645-62aa27773fdf|10=168|
20250411-07:31:48.883148000 : 8=FIXT.1.1|9=83|35=5|34=3|49=24ab46f784d1b20db435b852086e3250|52=20250411-07:31:48.878|56=Coinbase|10=130|
20250411-07:31:49.191037000 : 8=FIXT.1.1|9=117|35=5|49=Coinbase|56=24ab46f784d1b20db435b852086e3250|34=3|50=TEST|52=20250411-07:31:49.011144|369=2|58=CLIENT_LOGOUT|10=205|
20250411-07:35:44.368495000 : 8=FIXT.1.1|9=222|35=A|34=1|49=24ab46f784d1b20db435b852086e3250|52=20250411-07:35:44.357|56=Coinbase|95=44|96=bCyvWsSaBUPZdUiwNVrxbh59QO3wr9katd2jabFFvhQ=|98=0|108=30|141=Y|553=24ab46f784d1b20db435b852086e3250|554=akmwnltyfgb|1137=9|8013=Y|10=128|
20250411-07:35:44.643404000 : 8=FIXT.1.1|9=125|35=A|49=Coinbase|56=24ab46f784d1b20db435b852086e3250|34=1|50=TEST|52=20250411-07:35:44.520747|369=1|98=0|108=30|141=Y|1137=9|10=200|
20250411-07:35:44.648214000 : 8=FIXT.1.1|9=129|35=1|34=2|49=24ab46f784d1b20db435b852086e3250|52=20250411-07:35:44.647|56=Coinbase|112=test-85b9dd9d-1641-402d-94b2-55bca69164b5|10=128|
20250411-07:35:44.876735000 : 8=FIXT.1.1|9=146|35=0|49=Coinbase|56=24ab46f784d1b20db435b852086e3250|34=2|50=TEST|52=20250411-07:35:44.789641|369=1|112=test-85b9dd9d-1641-402d-94b2-55bca69164b5|10=020|
20250411-07:36:11.880729000 : 8=FIXT.1.1|9=100|35=0|49=Coinbase|56=24ab46f784d1b20db435b852086e3250|34=3|50=TEST|52=20250411-07:36:11.791223|369=2|10=036|
20250411-07:39:49.784713000 : 8=FIXT.1.1|9=222|35=A|34=1|49=24ab46f784d1b20db435b852086e3250|52=20250411-07:39:49.776|56=Coinbase|95=44|96=/UawIyG7VqeXzvtoKmaA8jfJJCk7Zm1rezBoNdxfbKg=|98=0|108=30|141=Y|553=24ab46f784d1b20db435b852086e3250|554=akmwnltyfgb|1137=9|8013=Y|10=149|
20250411-07:39:50.036145000 : 8=FIXT.1.1|9=125|35=A|49=Coinbase|56=24ab46f784d1b20db435b852086e3250|34=1|50=TEST|52=20250411-07:39:49.946534|369=1|98=0|108=30|141=Y|1137=9|10=215|
20250411-07:39:50.040372000 : 8=FIXT.1.1|9=129|35=1|34=2|49=24ab46f784d1b20db435b852086e3250|52=20250411-07:39:50.039|56=Coinbase|112=test-a934ce5e-06ed-4843-9a25-b3a52dc64f7b|10=010|
20250411-07:39:50.270197000 : 8=FIXT.1.1|9=146|35=0|49=Coinbase|56=24ab46f784d1b20db435b852086e3250|34=2|50=TEST|52=20250411-07:39:50.180864|369=1|112=test-a934ce5e-06ed-4843-9a25-b3a52dc64f7b|10=155|
20250411-07:39:50.272946000 : 8=FIXT.1.1|9=203|35=D|34=3|49=24ab46f784d1b20db435b852086e3250|52=20250411-07:39:50.272|56=Coinbase|60=20250411-07:39:50|11=26a7d3d1-3560-475d-8758-86a758a552e2|38=0.1|40=2|44=2|54=2|55=BTC-USD|59=1|60=20250411-07:39:50|10=049|
20250411-07:39:50.507074000 : 8=FIXT.1.1|9=349|35=8|49=Coinbase|56=24ab46f784d1b20db435b852086e3250|34=3|50=TEST|52=20250411-07:39:50.417618|369=3|11=26a7d3d1-3560-475d-8758-86a758a552e2|14=0|17=20b6f59f-589d-4a14-aed5-06aecc1f231c|37=6402ea08-8551-4b77-a559-df268d96b890|39=8|55=BTC-USD|54=2|40=2|44=2|38=0.1|58=Notional must be greater than 1|60=20250411-07:39:50.417597|103=0|150=8|151=0|59=1|10=186|
20250411-07:39:55.325942000 : 8=FIXT.1.1|9=83|35=5|34=4|49=24ab46f784d1b20db435b852086e3250|52=20250411-07:39:55.325|56=Coinbase|10=124|
20250411-07:39:55.551239000 : 8=FIXT.1.1|9=117|35=5|49=Coinbase|56=24ab46f784d1b20db435b852086e3250|34=4|50=TEST|52=20250411-07:39:55.462511|369=3|58=CLIENT_LOGOUT|10=220|
20250411-07:41:19.835597000 : 8=FIXT.1.1|9=222|35=A|34=1|49=24ab46f784d1b20db435b852086e3250|52=20250411-07:41:19.827|56=Coinbase|95=44|96=4Gg6qPz9kkONCtZz4eLunGmlgSISquiX7qViECcdbW0=|98=0|108=30|141=Y|553=24ab46f784d1b20db435b852086e3250|554=akmwnltyfgb|1137=9|8013=Y|10=042|
20250411-07:41:20.089976000 : 8=FIXT.1.1|9=125|35=A|49=Coinbase|56=24ab46f784d1b20db435b852086e3250|34=1|50=TEST|52=20250411-07:41:19.998757|369=1|98=0|108=30|141=Y|1137=9|10=219|
20250411-07:41:20.093777000 : 8=FIXT.1.1|9=129|35=1|34=2|49=24ab46f784d1b20db435b852086e3250|52=20250411-07:41:20.093|56=Coinbase|112=test-b55c2b49-a8af-4c07-b901-0392135d4f6a|10=147|
20250411-07:41:20.323418000 : 8=FIXT.1.1|9=146|35=0|49=Coinbase|56=24ab46f784d1b20db435b852086e3250|34=2|50=TEST|52=20250411-07:41:20.232991|369=1|112=test-b55c2b49-a8af-4c07-b901-0392135d4f6a|10=035|
20250411-07:41:20.327012000 : 8=FIXT.1.1|9=203|35=D|34=3|49=24ab46f784d1b20db435b852086e3250|52=20250411-07:41:20.326|56=Coinbase|60=20250411-07:41:20|11=0f70fd27-8c5d-4dca-a077-08a1e9950b6c|38=0.1|40=2|44=2|54=2|55=BTC-USD|59=1|60=20250411-07:41:20|10=034|
20250411-07:41:20.554064000 : 8=FIXT.1.1|9=349|35=8|49=Coinbase|56=24ab46f784d1b20db435b852086e3250|34=3|50=TEST|52=20250411-07:41:20.463455|369=3|11=0f70fd27-8c5d-4dca-a077-08a1e9950b6c|14=0|17=f78e4329-a237-44fb-a820-ad10cb5aa085|37=bf8f6d99-4ec9-4860-a8cd-23a517e06e9e|39=8|55=BTC-USD|54=2|40=2|44=2|38=0.1|58=Notional must be greater than 1|60=20250411-07:41:20.463445|103=0|150=8|151=0|59=1|10=061|
20250411-07:41:47.582671000 : 8=FIXT.1.1|9=100|35=0|49=Coinbase|56=24ab46f784d1b20db435b852086e3250|34=4|50=TEST|52=20250411-07:41:47.491482|369=3|10=047|
20250411-07:41:50.420219000 : 8=FIXT.1.1|9=83|35=0|34=4|49=24ab46f784d1b20db435b852086e3250|52=20250411-07:41:50.419|56=Coinbase|10=111|
20250411-07:41:50.585058000 : 8=FIXT.1.1|9=110|35=1|49=Coinbase|56=24ab46f784d1b20db435b852086e3250|34=5|50=TEST|52=20250411-07:41:50.491482|369=3|112=12345|10=253|
20250411-07:41:50.586488000 : 8=FIXT.1.1|9=93|35=0|34=5|49=24ab46f784d1b20db435b852086e3250|52=20250411-07:41:50.586|56=Coinbase|112=12345|10=071|
20250411-07:42:17.583789000 : 8=FIXT.1.1|9=100|35=0|49=Coinbase|56=24ab46f784d1b20db435b852086e3250|34=6|50=TEST|52=20250411-07:42:17.491503|369=5|10=043|
20250411-07:42:20.345107000 : 8=FIXT.1.1|9=83|35=0|34=6|49=24ab46f784d1b20db435b852086e3250|52=20250411-07:42:20.344|56=Coinbase|10=108|
20250411-07:42:44.583377000 : 8=FIXT.1.1|9=100|35=0|49=Coinbase|56=24ab46f784d1b20db435b852086e3250|34=7|50=TEST|52=20250411-07:42:44.491542|369=6|10=048|
20250411-07:42:50.429938000 : 8=FIXT.1.1|9=83|35=0|34=7|49=24ab46f784d1b20db435b852086e3250|52=20250411-07:42:50.424|56=Coinbase|10=111|
20250411-07:42:50.583740000 : 8=FIXT.1.1|9=110|35=1|49=Coinbase|56=24ab46f784d1b20db435b852086e3250|34=8|50=TEST|52=20250411-07:42:50.491545|369=6|112=12345|10=004|
20250411-07:42:50.585134000 : 8=FIXT.1.1|9=93|35=0|34=8|49=24ab46f784d1b20db435b852086e3250|52=20250411-07:42:50.584|56=Coinbase|112=12345|10=073|
20250411-07:42:58.517929000 : 8=FIXT.1.1|9=83|35=5|34=9|49=24ab46f784d1b20db435b852086e3250|52=20250411-07:42:58.517|56=Coinbase|10=129|
20250411-07:42:58.742737000 : 8=FIXT.1.1|9=117|35=5|49=Coinbase|56=24ab46f784d1b20db435b852086e3250|34=9|50=TEST|52=20250411-07:42:58.651300|369=8|58=CLIENT_LOGOUT|10=223|
20250411-08:05:09.997317000 : 8=FIXT.1.1|9=222|35=A|34=1|49=24ab46f784d1b20db435b852086e3250|52=20250411-08:05:09.965|56=Coinbase|95=44|96=a/cVI+KGbOrw6kbtNxsXw1hTwXAoouGYtktpzThh/rg=|98=0|108=30|141=Y|553=24ab46f784d1b20db435b852086e3250|554=akmwnltyfgb|1137=9|8013=Y|10=224|
20250411-08:05:10.255120000 : 8=FIXT.1.1|9=125|35=A|49=Coinbase|56=24ab46f784d1b20db435b852086e3250|34=1|50=TEST|52=20250411-08:05:10.154501|369=1|98=0|108=30|141=Y|1137=9|10=182|
20250411-08:05:10.262640000 : 8=FIXT.1.1|9=129|35=1|34=2|49=24ab46f784d1b20db435b852086e3250|52=20250411-08:05:10.261|56=Coinbase|112=test-f483ef47-e71d-4db0-81ee-f76e02ac241b|10=042|
20250411-08:05:10.498824000 : 8=FIXT.1.1|9=146|35=0|49=Coinbase|56=24ab46f784d1b20db435b852086e3250|34=2|50=TEST|52=20250411-08:05:10.394051|369=1|112=test-f483ef47-e71d-4db0-81ee-f76e02ac241b|10=185|
20250411-08:05:10.557725000 : 8=FIXT.1.1|9=203|35=D|34=3|49=24ab46f784d1b20db435b852086e3250|52=20250411-08:05:10.533|56=Coinbase|60=20250411-08:05:10|11=65aa25c5-cd1d-4772-9ff6-b3b321f894d4|38=0.1|40=2|44=2|54=2|55=BTC-USD|59=1|60=20250411-08:05:10|10=249|
20250411-08:05:10.792530000 : 8=FIXT.1.1|9=349|35=8|49=Coinbase|56=24ab46f784d1b20db435b852086e3250|34=3|50=TEST|52=20250411-08:05:10.694473|369=3|11=65aa25c5-cd1d-4772-9ff6-b3b321f894d4|14=0|17=4486f284-560a-4672-8bc6-571d0bbb340c|37=fb609717-3ae7-4816-aa8f-98dc4b36a684|39=8|55=BTC-USD|54=2|40=2|44=2|38=0.1|58=Notional must be greater than 1|60=20250411-08:05:10.694464|103=0|150=8|151=0|59=1|10=052|
20250411-08:05:12.546619000 : 8=FIXT.1.1|9=83|35=5|34=4|49=24ab46f784d1b20db435b852086e3250|52=20250411-08:05:12.544|56=Coinbase|10=114|
20250411-08:05:12.777073000 : 8=FIXT.1.1|9=117|35=5|49=Coinbase|56=24ab46f784d1b20db435b852086e3250|34=4|50=TEST|52=20250411-08:05:12.679048|369=3|58=CLIENT_LOGOUT|10=222|
20250411-08:05:18.946585000 : 8=FIXT.1.1|9=222|35=A|34=1|49=24ab46f784d1b20db435b852086e3250|52=20250411-08:05:18.887|56=Coinbase|95=44|96=mIYgPwOFSlHfateKS+ZzOWNcm4Oefs2WpIgMvkETGGk=|98=0|108=30|141=Y|553=24ab46f784d1b20db435b852086e3250|554=akmwnltyfgb|1137=9|8013=Y|10=038|
20250411-08:05:19.202995000 : 8=FIXT.1.1|9=125|35=A|49=Coinbase|56=24ab46f784d1b20db435b852086e3250|34=1|50=TEST|52=20250411-08:05:19.103617|369=1|98=0|108=30|141=Y|1137=9|10=193|
20250411-08:05:19.207881000 : 8=FIXT.1.1|9=129|35=1|34=2|49=24ab46f784d1b20db435b852086e3250|52=20250411-08:05:19.207|56=Coinbase|112=test-4495d334-75d1-42b8-bd08-ae6805e8a4be|10=168|
20250411-08:05:19.436610000 : 8=FIXT.1.1|9=146|35=0|49=Coinbase|56=24ab46f784d1b20db435b852086e3250|34=2|50=TEST|52=20250411-08:05:19.338799|369=1|112=test-4495d334-75d1-42b8-bd08-ae6805e8a4be|10=072|
20250411-08:05:19.440194000 : 8=FIXT.1.1|9=201|35=D|34=3|49=24ab46f784d1b20db435b852086e3250|52=20250411-08:05:19.439|56=Coinbase|60=20250411-08:05:19|11=f17f240d-53b4-405a-a547-6fb36e269d68|38=5|40=2|44=2|54=2|55=BTC-USD|59=1|60=20250411-08:05:19|10=092|
20250411-08:05:19.676095000 : 8=FIXT.1.1|9=320|35=8|49=Coinbase|56=24ab46f784d1b20db435b852086e3250|34=3|50=TEST|52=20250411-08:05:19.576342|369=3|83=1598024341|11=f17f240d-53b4-405a-a547-6fb36e269d68|14=0|17=402beae2-11ce-473c-af3c-7ad7994499db|37=c400d847-cb49-4b84-a848-e37f85d524d5|39=0|55=BTC-USD|54=2|40=2|44=2|38=5|60=20250411-08:05:19.575241|150=0|151=5|59=1|10=240|
20250411-08:05:19.677432000 : 8=FIXT.1.1|9=398|35=8|49=Coinbase|56=24ab46f784d1b20db435b852086e3250|34=4|50=TEST|52=20250411-08:05:19.576367|369=3|83=1598024342|6=3.55|11=f17f240d-53b4-405a-a547-6fb36e269d68|14=5|17=1d265217-769f-5067-8be3-0745691c6055|37=c400d847-cb49-4b84-a848-e37f85d524d5|39=2|55=BTC-USD|54=2|40=2|32=5|31=3.55|44=2|38=5|60=20250411-08:05:19.575241|150=F|151=0|1003=138889705|1057=Y|59=1|136=1|137=0.006|138=USD|139=4|891=2|10=005|
20250411-08:05:33.705632000 : 8=FIXT.1.1|9=83|35=5|34=4|49=24ab46f784d1b20db435b852086e3250|52=20250411-08:05:33.703|56=Coinbase|10=114|
20250411-08:05:33.934982000 : 8=FIXT.1.1|9=117|35=5|49=Coinbase|56=24ab46f784d1b20db435b852086e3250|34=5|50=TEST|52=20250411-08:05:33.837055|369=3|58=CLIENT_LOGOUT|10=220|
20250411-08:06:49.842915000 : 8=FIXT.1.1|9=222|35=A|34=1|49=24ab46f784d1b20db435b852086e3250|52=20250411-08:06:49.831|56=Coinbase|95=44|96=wR3FZ69fF9XmxpW141acJPnFtUQLZ3Pt0LNnRpsOK3o=|98=0|108=30|141=Y|553=24ab46f784d1b20db435b852086e3250|554=akmwnltyfgb|1137=9|8013=Y|10=024|
20250411-08:07:08.233085000 : 8=FIXT.1.1|9=222|35=A|34=1|49=24ab46f784d1b20db435b852086e3250|52=20250411-08:07:08.222|56=Coinbase|95=44|96=gYL0/74UPbN0PrYocLhNc3O1xo9czWBiCrjALbH7lLQ=|98=0|108=30|141=Y|553=24ab46f784d1b20db435b852086e3250|554=akmwnltyfgb|1137=9|8013=Y|10=007|
20250411-08:07:08.485082000 : 8=FIXT.1.1|9=125|35=A|49=Coinbase|56=24ab46f784d1b20db435b852086e3250|34=1|50=TEST|52=20250411-08:07:08.389451|369=1|98=0|108=30|141=Y|1137=9|10=205|
20250411-08:07:08.489235000 : 8=FIXT.1.1|9=129|35=1|34=2|49=24ab46f784d1b20db435b852086e3250|52=20250411-08:07:08.488|56=Coinbase|112=test-dc628f30-80c4-4a9c-babb-0b7c67c5244f|10=054|
20250411-08:07:08.714693000 : 8=FIXT.1.1|9=146|35=0|49=Coinbase|56=24ab46f784d1b20db435b852086e3250|34=2|50=TEST|52=20250411-08:07:08.619403|369=1|112=test-dc628f30-80c4-4a9c-babb-0b7c67c5244f|10=187|
20250411-08:07:08.718173000 : 8=FIXT.1.1|9=201|35=D|34=3|49=24ab46f784d1b20db435b852086e3250|52=20250411-08:07:08.717|56=Coinbase|60=20250411-08:07:08|11=fb31b5c5-eddf-42f8-9921-374bdf1d24b4|38=5|40=2|44=2|54=2|55=BTC-USD|59=1|60=20250411-08:07:08|10=023|
20250411-08:07:08.949892000 : 8=FIXT.1.1|9=320|35=8|49=Coinbase|56=24ab46f784d1b20db435b852086e3250|34=3|50=TEST|52=20250411-08:07:08.853752|369=3|83=1598026583|11=fb31b5c5-eddf-42f8-9921-374bdf1d24b4|14=0|17=79fd8f8b-7a1e-4fab-98d5-ad97940b54a4|37=8c7bc73a-ca05-4d4f-a1e4-ef804cc9da50|39=0|55=BTC-USD|54=2|40=2|44=2|38=5|60=20250411-08:07:08.852072|150=0|151=5|59=1|10=215|
20250411-08:07:08.952527000 : 8=FIXT.1.1|9=398|35=8|49=Coinbase|56=24ab46f784d1b20db435b852086e3250|34=4|50=TEST|52=20250411-08:07:08.853824|369=3|83=1598026584|6=3.55|11=fb31b5c5-eddf-42f8-9921-374bdf1d24b4|14=5|17=6e133d33-40e9-5c5d-b238-5e64da77706a|37=8c7bc73a-ca05-4d4f-a1e4-ef804cc9da50|39=2|55=BTC-USD|54=2|40=2|32=5|31=3.55|44=2|38=5|60=20250411-08:07:08.852072|150=F|151=0|1003=138890424|1057=Y|59=1|136=1|137=0.006|138=USD|139=4|891=2|10=168|
20250411-08:07:35.963713000 : 8=FIXT.1.1|9=100|35=0|49=Coinbase|56=24ab46f784d1b20db435b852086e3250|34=5|50=TEST|52=20250411-08:07:35.865127|369=3|10=049|
20250411-08:07:38.239000000 : 8=FIXT.1.1|9=83|35=0|34=4|49=24ab46f784d1b20db435b852086e3250|52=20250411-08:07:38.237|56=Coinbase|10=118|
20250411-08:07:50.748016000 : 8=FIXT.1.1|9=83|35=5|34=5|49=24ab46f784d1b20db435b852086e3250|52=20250411-08:07:50.745|56=Coinbase|10=122|
20250411-08:07:50.978960000 : 8=FIXT.1.1|9=117|35=5|49=Coinbase|56=24ab46f784d1b20db435b852086e3250|34=6|50=TEST|52=20250411-08:07:50.881443|369=4|58=CLIENT_LOGOUT|10=223|
20250412-06:01:59.306119000 : 8=FIXT.1.1|9=222|35=A|34=1|49=24ab46f784d1b20db435b852086e3250|52=20250412-06:01:59.289|56=Coinbase|95=44|96=HTnRvTEyHKzyAAfHfFwj5+g0BQ/tAOceEF6C6dUaFgc=|98=0|108=30|141=Y|553=24ab46f784d1b20db435b852086e3250|554=akmwnltyfgb|1137=9|8013=Y|10=046|
20250412-06:01:59.640321000 : 8=FIXT.1.1|9=125|35=A|49=Coinbase|56=24ab46f784d1b20db435b852086e3250|34=1|50=TEST|52=20250412-06:01:59.482205|369=1|98=0|108=30|141=Y|1137=9|10=195|
20250412-06:02:26.624735000 : 8=FIXT.1.1|9=100|35=0|49=Coinbase|56=24ab46f784d1b20db435b852086e3250|34=2|50=TEST|52=20250412-06:02:26.533285|369=1|10=035|
20250412-06:02:29.562399000 : 8=FIXT.1.1|9=83|35=0|34=2|49=24ab46f784d1b20db435b852086e3250|52=20250412-06:02:29.560|56=Coinbase|10=109|
20250412-06:02:29.623925000 : 8=FIXT.1.1|9=110|35=1|49=Coinbase|56=24ab46f784d1b20db435b852086e3250|34=3|50=TEST|52=20250412-06:02:29.533285|369=1|112=12345|10=250|
20250412-06:02:29.626570000 : 8=FIXT.1.1|9=93|35=0|34=3|49=24ab46f784d1b20db435b852086e3250|52=20250412-06:02:29.624|56=Coinbase|112=12345|10=065|
20250412-06:02:56.631406000 : 8=FIXT.1.1|9=100|35=0|49=Coinbase|56=24ab46f784d1b20db435b852086e3250|34=4|50=TEST|52=20250412-06:02:56.533296|369=3|10=044|
20250412-06:02:59.140429000 : 8=FIXT.1.1|9=83|35=0|34=4|49=24ab46f784d1b20db435b852086e3250|52=20250412-06:02:59.138|56=Coinbase|10=115|
20250412-06:03:23.680336000 : 8=FIXT.1.1|9=100|35=0|49=Coinbase|56=24ab46f784d1b20db435b852086e3250|34=5|50=TEST|52=20250412-06:03:23.533340|369=4|10=031|
20250412-06:03:29.111689000 : 8=FIXT.1.1|9=83|35=0|34=5|49=24ab46f784d1b20db435b852086e3250|52=20250412-06:03:29.110|56=Coinbase|10=104|
20250412-06:03:50.622828000 : 8=FIXT.1.1|9=100|35=0|49=Coinbase|56=24ab46f784d1b20db435b852086e3250|34=6|50=TEST|52=20250412-06:03:50.533366|369=5|10=041|
20250412-06:03:59.422064000 : 8=FIXT.1.1|9=110|35=1|49=Coinbase|56=24ab46f784d1b20db435b852086e3250|34=7|50=TEST|52=20250412-06:03:59.333369|369=5|112=12345|10=007|
20250412-06:03:59.431109000 : 8=FIXT.1.1|9=93|35=0|34=6|49=24ab46f784d1b20db435b852086e3250|52=20250412-06:03:59.428|56=Coinbase|112=12345|10=074|
20250412-06:04:26.423647000 : 8=FIXT.1.1|9=100|35=0|49=Coinbase|56=24ab46f784d1b20db435b852086e3250|34=8|50=TEST|52=20250412-06:04:26.333381|369=6|10=043|
20250412-06:04:29.619380000 : 8=FIXT.1.1|9=83|35=0|34=7|49=24ab46f784d1b20db435b852086e3250|52=20250412-06:04:29.613|56=Coinbase|10=115|
20250412-06:04:29.823180000 : 8=FIXT.1.1|9=110|35=1|49=Coinbase|56=24ab46f784d1b20db435b852086e3250|34=9|50=TEST|52=20250412-06:04:29.733382|369=6|112=12345|10=007|
20250412-06:04:29.824040000 : 8=FIXT.1.1|9=93|35=0|34=8|49=24ab46f784d1b20db435b852086e3250|52=20250412-06:04:29.823|56=Coinbase|112=12345|10=073|
20250412-06:04:56.824990000 : 8=FIXT.1.1|9=101|35=0|49=Coinbase|56=24ab46f784d1b20db435b852086e3250|34=10|50=TEST|52=20250412-06:04:56.733401|369=8|10=087|
20250412-06:04:59.019867000 : 8=FIXT.1.1|9=83|35=0|34=9|49=24ab46f784d1b20db435b852086e3250|52=20250412-06:04:59.018|56=Coinbase|10=119|
20250412-06:05:23.903026000 : 8=FIXT.1.1|9=101|35=0|49=Coinbase|56=24ab46f784d1b20db435b852086e3250|34=11|50=TEST|52=20250412-06:05:23.733456|369=9|10=094|
20250412-06:05:29.041881000 : 8=FIXT.1.1|9=84|35=0|34=10|49=24ab46f784d1b20db435b852086e3250|52=20250412-06:05:29.040|56=Coinbase|10=153|
20250412-06:05:50.820376000 : 8=FIXT.1.1|9=102|35=0|49=Coinbase|56=24ab46f784d1b20db435b852086e3250|34=12|50=TEST|52=20250412-06:05:50.733481|369=10|10=134|
20250412-06:05:59.286656000 : 8=FIXT.1.1|9=84|35=0|34=11|49=24ab46f784d1b20db435b852086e3250|52=20250412-06:05:59.283|56=Coinbase|10=166|
20250412-06:05:59.320231000 : 8=FIXT.1.1|9=112|35=1|49=Coinbase|56=24ab46f784d1b20db435b852086e3250|34=13|50=TEST|52=20250412-06:05:59.233484|369=10|112=12345|10=097|
20250412-06:05:59.324553000 : 8=FIXT.1.1|9=94|35=0|34=12|49=24ab46f784d1b20db435b852086e3250|52=20250412-06:05:59.322|56=Coinbase|112=12345|10=115|
20250412-06:06:26.385052000 : 8=FIXT.1.1|9=102|35=0|49=Coinbase|56=24ab46f784d1b20db435b852086e3250|34=14|50=TEST|52=20250412-06:06:26.233495|369=12|10=142|
20250412-06:06:29.120306000 : 8=FIXT.1.1|9=84|35=0|34=13|49=24ab46f784d1b20db435b852086e3250|52=20250412-06:06:29.117|56=Coinbase|10=162|
20250412-06:06:53.348666000 : 8=FIXT.1.1|9=102|35=0|49=Coinbase|56=24ab46f784d1b20db435b852086e3250|34=15|50=TEST|52=20250412-06:06:53.233514|369=13|10=136|
20250412-06:06:59.291337000 : 8=FIXT.1.1|9=84|35=0|34=14|49=24ab46f784d1b20db435b852086e3250|52=20250412-06:06:59.289|56=Coinbase|10=176|
20250412-06:06:59.424140000 : 8=FIXT.1.1|9=112|35=1|49=Coinbase|56=24ab46f784d1b20db435b852086e3250|34=16|50=TEST|52=20250412-06:06:59.333516|369=13|112=12345|10=101|
20250412-06:06:59.425860000 : 8=FIXT.1.1|9=94|35=0|34=15|49=24ab46f784d1b20db435b852086e3250|52=20250412-06:06:59.424|56=Coinbase|112=12345|10=122|
20250412-06:06:59.742861000 : 8=FIXT.1.1|9=84|35=5|34=16|49=24ab46f784d1b20db435b852086e3250|52=20250412-06:06:59.741|56=Coinbase|10=176|
20250412-06:06:59.997719000 : 8=FIXT.1.1|9=119|35=5|49=Coinbase|56=24ab46f784d1b20db435b852086e3250|34=17|50=TEST|52=20250412-06:06:59.890421|369=15|58=CLIENT_LOGOUT|10=072|
20250412-06:07:14.634991000 : 8=FIXT.1.1|9=222|35=A|34=1|49=24ab46f784d1b20db435b852086e3250|52=20250412-06:07:14.623|56=Coinbase|95=44|96=iiRMwmD6mr2SUIh/HhrRJRcMELz8kgIdw04g+bWo4/I=|98=0|108=30|141=Y|553=24ab46f784d1b20db435b852086e3250|554=akmwnltyfgb|1137=9|8013=Y|10=062|
20250412-06:07:14.900595000 : 8=FIXT.1.1|9=125|35=A|49=Coinbase|56=24ab46f784d1b20db435b852086e3250|34=1|50=TEST|52=20250412-06:07:14.811050|369=1|98=0|108=30|141=Y|1137=9|10=186|
20250412-06:07:23.888685000 : 8=FIXT.1.1|9=205|35=D|34=2|49=24ab46f784d1b20db435b852086e3250|52=20250412-06:07:23.884|56=Coinbase|60=20250412-06:07:23|11=6c094600-c92c-448f-a680-f333957879e9|38=1.0|40=2|44=2.0|54=1|55=BTC-USD|59=1|60=20250412-06:07:23|10=148|
20250412-06:07:24.384862000 : 8=FIXT.1.1|9=320|35=8|49=Coinbase|56=24ab46f784d1b20db435b852086e3250|34=2|50=TEST|52=20250412-06:07:24.180311|369=2|83=1599634161|11=6c094600-c92c-448f-a680-f333957879e9|14=0|17=8f50264a-5b62-4956-b2dc-be850783cee2|37=fc51212c-40c2-49c2-bfa9-c945803b43ce|39=0|55=BTC-USD|54=1|40=2|44=2|38=1|60=20250412-06:07:24.179187|150=0|151=1|59=1|10=034|
20250412-06:07:28.929750000 : 8=FIXT.1.1|9=205|35=D|34=3|49=24ab46f784d1b20db435b852086e3250|52=20250412-06:07:28.923|56=Coinbase|60=20250412-06:07:28|11=c956e808-6f45-497f-987c-42e7615a8ec7|38=1.0|40=2|44=2.0|54=1|55=BTC-USD|59=1|60=20250412-06:07:28|10=014|
20250412-06:07:29.176584000 : 8=FIXT.1.1|9=320|35=8|49=Coinbase|56=24ab46f784d1b20db435b852086e3250|34=3|50=TEST|52=20250412-06:07:29.087418|369=3|83=1599634289|11=c956e808-6f45-497f-987c-42e7615a8ec7|14=0|17=5d30cb0e-4011-4bed-933b-4a8cf5c25cc9|37=cdbb42ee-5063-417c-94a0-72a541d8847e|39=0|55=BTC-USD|54=1|40=2|44=2|38=1|60=20250412-06:07:29.085889|150=0|151=1|59=1|10=014|
20250412-06:07:33.935037000 : 8=FIXT.1.1|9=205|35=D|34=4|49=24ab46f784d1b20db435b852086e3250|52=20250412-06:07:33.933|56=Coinbase|60=20250412-06:07:33|11=6dbff077-482f-4b55-97ff-e250ca847842|38=1.0|40=2|44=2.0|54=1|55=BTC-USD|59=1|60=20250412-06:07:33|10=079|
20250412-06:07:34.177681000 : 8=FIXT.1.1|9=320|35=8|49=Coinbase|56=24ab46f784d1b20db435b852086e3250|34=4|50=TEST|52=20250412-06:07:34.088950|369=4|83=1599634416|11=6dbff077-482f-4b55-97ff-e250ca847842|14=0|17=8a0b76c7-8b65-40ab-bca0-7dfa27f21178|37=5a0f78a7-9af7-48d9-8a3e-b2fc133ddb62|39=0|55=BTC-USD|54=1|40=2|44=2|38=1|60=20250412-06:07:34.087335|150=0|151=1|59=1|10=181|
20250412-06:08:01.247549000 : 8=FIXT.1.1|9=100|35=0|49=Coinbase|56=24ab46f784d1b20db435b852086e3250|34=5|50=TEST|52=20250412-06:08:01.154032|369=4|10=029|
20250412-06:08:03.133483000 : 8=FIXT.1.1|9=83|35=0|34=5|49=24ab46f784d1b20db435b852086e3250|52=20250412-06:08:03.132|56=Coinbase|10=105|
20250412-06:08:28.267926000 : 8=FIXT.1.1|9=100|35=0|49=Coinbase|56=24ab46f784d1b20db435b852086e3250|34=6|50=TEST|52=20250412-06:08:28.154080|369=5|10=043|
20250412-06:08:33.338497000 : 8=FIXT.1.1|9=83|35=0|34=6|49=24ab46f784d1b20db435b852086e3250|52=20250412-06:08:33.337|56=Coinbase|10=116|
20250412-06:08:33.444419000 : 8=FIXT.1.1|9=110|35=1|49=Coinbase|56=24ab46f784d1b20db435b852086e3250|34=7|50=TEST|52=20250412-06:08:33.354082|369=5|112=12345|10=255|
20250412-06:08:33.446957000 : 8=FIXT.1.1|9=93|35=0|34=7|49=24ab46f784d1b20db435b852086e3250|52=20250412-06:08:33.446|56=Coinbase|112=12345|10=072|
20250412-06:09:00.447604000 : 8=FIXT.1.1|9=100|35=0|49=Coinbase|56=24ab46f784d1b20db435b852086e3250|34=8|50=TEST|52=20250412-06:09:00.354154|369=7|10=042|
20250412-06:09:03.337771000 : 8=FIXT.1.1|9=83|35=0|34=8|49=24ab46f784d1b20db435b852086e3250|52=20250412-06:09:03.336|56=Coinbase|10=115|
20250412-06:09:27.446858000 : 8=FIXT.1.1|9=100|35=0|49=Coinbase|56=24ab46f784d1b20db435b852086e3250|34=9|50=TEST|52=20250412-06:09:27.354165|369=8|10=055|
20250412-06:09:33.086600000 : 8=FIXT.1.1|9=83|35=0|34=9|49=24ab46f784d1b20db435b852086e3250|52=20250412-06:09:33.085|56=Coinbase|10=120|
20250412-06:09:54.445476000 : 8=FIXT.1.1|9=101|35=0|49=Coinbase|56=24ab46f784d1b20db435b852086e3250|34=10|50=TEST|52=20250412-06:09:54.354177|369=9|10=100|
20250412-06:10:03.306436000 : 8=FIXT.1.1|9=84|35=0|34=10|49=24ab46f784d1b20db435b852086e3250|52=20250412-06:10:03.304|56=Coinbase|10=144|
20250412-06:10:03.344427000 : 8=FIXT.1.1|9=111|35=1|49=Coinbase|56=24ab46f784d1b20db435b852086e3250|34=11|50=TEST|52=20250412-06:10:03.254181|369=9|112=12345|10=036|
20250412-06:10:03.349371000 : 8=FIXT.1.1|9=94|35=0|34=11|49=24ab46f784d1b20db435b852086e3250|52=20250412-06:10:03.348|56=Coinbase|112=12345|10=107|
20250412-06:10:30.421558000 : 8=FIXT.1.1|9=102|35=0|49=Coinbase|56=24ab46f784d1b20db435b852086e3250|34=12|50=TEST|52=20250412-06:10:30.254280|369=11|10=124|
20250412-06:10:33.008196000 : 8=FIXT.1.1|9=84|35=0|34=12|49=24ab46f784d1b20db435b852086e3250|52=20250412-06:10:33.007|56=Coinbase|10=149|
20250412-06:10:57.344952000 : 8=FIXT.1.1|9=102|35=0|49=Coinbase|56=24ab46f784d1b20db435b852086e3250|34=13|50=TEST|52=20250412-06:10:57.254478|369=12|10=144|
20250412-06:11:03.343847000 : 8=FIXT.1.1|9=84|35=0|34=13|49=24ab46f784d1b20db435b852086e3250|52=20250412-06:11:03.341|56=Coinbase|10=149|
20250412-06:11:03.396529000 : 8=FIXT.1.1|9=112|35=1|49=Coinbase|56=24ab46f784d1b20db435b852086e3250|34=14|50=TEST|52=20250412-06:11:03.254635|369=12|112=12345|10=087|
20250412-06:11:03.399109000 : 8=FIXT.1.1|9=94|35=0|34=14|49=24ab46f784d1b20db435b852086e3250|52=20250412-06:11:03.398|56=Coinbase|112=12345|10=116|
20250412-06:11:30.346813000 : 8=FIXT.1.1|9=102|35=0|49=Coinbase|56=24ab46f784d1b20db435b852086e3250|34=15|50=TEST|52=20250412-06:11:30.254816|369=14|10=136|
20250412-06:11:33.024123000 : 8=FIXT.1.1|9=84|35=0|34=15|49=24ab46f784d1b20db435b852086e3250|52=20250412-06:11:33.021|56=Coinbase|10=149|
20250412-06:11:57.345894000 : 8=FIXT.1.1|9=102|35=0|49=Coinbase|56=24ab46f784d1b20db435b852086e3250|34=16|50=TEST|52=20250412-06:11:57.254829|369=15|10=151|
20250412-06:12:03.345858000 : 8=FIXT.1.1|9=112|35=1|49=Coinbase|56=24ab46f784d1b20db435b852086e3250|34=17|50=TEST|52=20250412-06:12:03.254831|369=15|112=12345|10=092|
20250412-06:12:03.351099000 : 8=FIXT.1.1|9=94|35=0|34=16|49=24ab46f784d1b20db435b852086e3250|52=20250412-06:12:03.348|56=Coinbase|112=12345|10=114|
20250412-06:12:30.466991000 : 8=FIXT.1.1|9=102|35=0|49=Coinbase|56=24ab46f784d1b20db435b852086e3250|34=18|50=TEST|52=20250412-06:12:30.254843|369=16|10=142|
20250412-06:12:33.035044000 : 8=FIXT.1.1|9=84|35=0|34=17|49=24ab46f784d1b20db435b852086e3250|52=20250412-06:12:33.033|56=Coinbase|10=155|
20250412-06:12:57.348323000 : 8=FIXT.1.1|9=102|35=0|49=Coinbase|56=24ab46f784d1b20db435b852086e3250|34=19|50=TEST|52=20250412-06:12:57.254855|369=17|10=156|
20250412-06:13:03.106164000 : 8=FIXT.1.1|9=84|35=0|34=18|49=24ab46f784d1b20db435b852086e3250|52=20250412-06:13:03.104|56=Coinbase|10=153|
20250412-06:13:03.358586000 : 8=FIXT.1.1|9=112|35=1|49=Coinbase|56=24ab46f784d1b20db435b852086e3250|34=20|50=TEST|52=20250412-06:13:03.254856|369=17|112=12345|10=096|
20250412-06:13:03.360470000 : 8=FIXT.1.1|9=94|35=0|34=19|49=24ab46f784d1b20db435b852086e3250|52=20250412-06:13:03.359|56=Coinbase|112=12345|10=120|
20250412-06:13:30.346042000 : 8=FIXT.1.1|9=102|35=0|49=Coinbase|56=24ab46f784d1b20db435b852086e3250|34=21|50=TEST|52=20250412-06:13:30.254869|369=19|10=148|
20250412-06:13:33.298982000 : 8=FIXT.1.1|9=84|35=0|34=20|49=24ab46f784d1b20db435b852086e3250|52=20250412-06:13:33.297|56=Coinbase|10=162|
20250412-06:13:57.348719000 : 8=FIXT.1.1|9=102|35=0|49=Coinbase|56=24ab46f784d1b20db435b852086e3250|34=22|50=TEST|52=20250412-06:13:57.254879|369=20|10=151|
20250412-06:14:03.562431000 : 8=FIXT.1.1|9=84|35=0|34=21|49=24ab46f784d1b20db435b852086e3250|52=20250412-06:14:03.559|56=Coinbase|10=162|
20250412-06:14:03.647618000 : 8=FIXT.1.1|9=112|35=1|49=Coinbase|56=24ab46f784d1b20db435b852086e3250|34=23|50=TEST|52=20250412-06:14:03.554882|369=20|112=12345|10=096|
20250412-06:14:03.649620000 : 8=FIXT.1.1|9=94|35=0|34=22|49=24ab46f784d1b20db435b852086e3250|52=20250412-06:14:03.648|56=Coinbase|112=12345|10=116|
20250412-06:14:30.641972000 : 8=FIXT.1.1|9=102|35=0|49=Coinbase|56=24ab46f784d1b20db435b852086e3250|34=24|50=TEST|52=20250412-06:14:30.554919|369=22|10=145|
20250412-06:14:33.058900000 : 8=FIXT.1.1|9=84|35=0|34=23|49=24ab46f784d1b20db435b852086e3250|52=20250412-06:14:33.057|56=Coinbase|10=160|
20250412-06:14:57.642926000 : 8=FIXT.1.1|9=102|35=0|49=Coinbase|56=24ab46f784d1b20db435b852086e3250|34=25|50=TEST|52=20250412-06:14:57.554930|369=23|10=149|
20250412-06:15:03.057070000 : 8=FIXT.1.1|9=84|35=0|34=24|49=24ab46f784d1b20db435b852086e3250|52=20250412-06:15:03.052|56=Coinbase|10=154|
20250412-06:15:24.646842000 : 8=FIXT.1.1|9=102|35=0|49=Coinbase|56=24ab46f784d1b20db435b852086e3250|34=26|50=TEST|52=20250412-06:15:24.554998|369=24|10=160|
20250412-06:15:33.457604000 : 8=FIXT.1.1|9=112|35=1|49=Coinbase|56=24ab46f784d1b20db435b852086e3250|34=27|50=TEST|52=20250412-06:15:33.255001|369=24|112=12345|10=089|
20250412-06:15:33.462590000 : 8=FIXT.1.1|9=94|35=0|34=25|49=24ab46f784d1b20db435b852086e3250|52=20250412-06:15:33.460|56=Coinbase|112=12345|10=115|
20250412-06:16:00.347583000 : 8=FIXT.1.1|9=102|35=0|49=Coinbase|56=24ab46f784d1b20db435b852086e3250|34=28|50=TEST|52=20250412-06:16:00.255035|369=25|10=138|
20250412-06:16:03.417972000 : 8=FIXT.1.1|9=84|35=0|34=26|49=24ab46f784d1b20db435b852086e3250|52=20250412-06:16:03.416|56=Coinbase|10=161|
20250412-06:16:23.451464000 : 8=FIXT.1.1|9=84|35=5|34=27|49=24ab46f784d1b20db435b852086e3250|52=20250412-06:16:23.449|56=Coinbase|10=175|
